:020000040040BA
:1000000070094020CD024000C9024000C9024000F2
:10001000C9024000C9024000C902400000000000BF
:10002000000000000000000000000000C9024000C5
:10003000C902400000000000C9024000C90240009F
:10004000C9024000C9024000C9024000C902400084
:10005000C9024000C9024000C9024000C902400074
:10006000C90240000000000091114000C902400098
:10007000C9024000C9024000C9024000C902400054
:1000800085114000C9024000C9024000C902400079
:10009000C9024000C9024000C90240005916400090
:1000A000C9024000C9024000C9024000C902400024
:1000B000C9024000C9024000C90240003D024000A0
:1000C000C9024000C9024000C9024000C902400004
:1000D000C9024000550F4000C9024000C90240005B
:1000E000C9024000C9024000C9024000C9024000E4
:1000F000C9024000C9024000C9024000C9024000D4
:10010000C9024000C90240006D164000C90240000B
:10011000C9024000000000000000000000000000D4
:10012000C9024000C9024000C9024000C9024000A3
:10013000C9024000C9024000C9024000C902400093
:10014000C9024000C9024000C9024000C902400083
:10015000C9024000C9024000C9024000C902400073
:10016000C9024000C902400010B5054C237833B9DC
:10017000044B13B10448AFF300800123237010BD7A
:100180001802402000000000A84940000C4B43B179
:100190000C480D4910B5AFF300800C48036823B933
:1001A00010BD0A48036833B97047094B002BF7D0DC
:1001B000BDE810401847064B002BF5D0184700BF8C
:1001C00000000000A84940001C024020A84940004F
:1001D0000000000008B5024B9847024B984708BD45
:1001E0002D074000A519400070B5114D0821284683
:1001F000104CA04702212846A0470F4E012130464F
:10020000A04706213046A04705213046A0470621D9
:100210002846A0470A212846A04700213046A0478B
:1002200005212846A04700212846A04770BD00BFF1
:10023000440340206508400064034020074A1378C7
:1002400083F00103137023B94FF48072044B5A6397
:1002500070474FF48072024B1A637047340240209B
:1002600000120E4070B50122114B1A61114B4FF074
:1002700000421A604FF08052C3F88420BFF34F8FC2
:10028000BFF36F8F0C4C20460C4EB0470C4D2846E8
:10029000B0474FF4FA724FF47A712046094CA047E8
:1002A0004FF4FA724FF47A712846A04770BD00BF30
:1002B0000000024000E100E0BC024020F1094000E3
:1002C000480340202D0A4000FEE7000008B5104B0F
:1002D000104A9A4209D00E4B0E4A03E01168196089
:1002E000043304320C498B42F8D30C4B02E0002259
:1002F0001A6004330A4A9342F9D30A4A0A4B23F09C
:100300007F039360094B9847094B9847FEE700BF6E
:1003100000004020A8494000180240201802402058
:100320006C03402000ED00E000004000B9224000D6
:10033000991840004FF08042084B1A60A3F5806383
:1003400008221A6004221A60054A4FF40031116035
:100350004FF40021116001221A60704700140E4012
:10036000000E0E40044B9B6913F0005F03D14FF069
:100370000052014B1A61704700060E4008B5054B4C
:100380009847054B9847002204490548054B984774
:1003900008BD00BF650340003503400000C00340B6
:1003A00044034020350840000222074B1A6003F541
:1003B00000734FF400521A604FF080421A604FF001
:1003C00000421A60704700BF00100E40054BD3F882
:1003D000083113F4807F04D14FF48072014BC3F8CD
:1003E0000021704700060E4008B5054B9847054BA5
:1003F0009847002204490548054B984708BD00BFAF
:10040000CD034000A90340000040064064034020A3
:1004100035084000044B4FF400225A611A66C3F8B5
:1004200090201A60704700BF00140E400A4B04224F
:100430005A611A66C3F890201A6020225A611A661F
:10044000C3F890201A604FF080625A611A66C3F8B0
:1004500090201A60704700BF000E0E40164B1A6FB6
:1004600042F400021A675A6F22F400025A674FF4EE
:1004700000025A601A6F42F000721A675A6F22F037
:1004800000725A674FF000725A601A6F22F002022F
:100490001A675A6F22F002025A6702225A601A6FD4
:1004A00022F080421A675A6F22F080425A674FF05A
:1004B00080425A60704700BF000E0E40044B9B699B
:1004C000002B03DB4FF00042014B1A61704700BF65
:1004D00000060E4008B5064B9847064B9847064B5A
:1004E0009847024605490648064B984708BD00BF95
:1004F000BD0440005D044000BD1440000000024007
:10050000BC024020AD0940000C4B1A6F22F480520F
:100510001A675A6F42F480525A674FF480525A60F9
:1005200003F5C0631A6F42F001021A675A6F22F096
:1005300001025A6701225A60704700BF000E0E4048
:10054000054BD3F8083113F0805F04D14FF080528F
:10055000014BC3F80021704700060E4008B5064B5A
:100560009847064B9847064B984702460549064868
:10057000064B984708BD00BF4105400009054000F3
:10058000BD14400000C0054048034020AD094000B4
:10059000064B1A6F42F000521A675A6F22F000524F
:1005A0005A674FF000525A60704700BF000E0E406D
:1005B00008B50E4B9B6913F4000F03D14FF40002F2
:1005C0000A4B1A61094B9B6913F0807F03D14FF0EE
:1005D0008072064B1A61064B9847064B98470246B5
:1005E00005490648064B984708BD00BF00060E4067
:1005F000910540005316400000C0004028034020F1
:10060000150B4000064B1A6F22F080721A675A6F62
:1006100042F080725A674FF080725A60704700BF94
:1006200000140E4008B5104BD3F8083113F4802F96
:1006300004D14FF480220C4BC3F800210A4BD3F8AD
:10064000083113F4002F04D14FF40022064BC3F8F5
:100650000021064B9847064B984702460549064835
:10066000064B984708BD00BF00060E400506400037
:100670005316400000400540D8024020150B4000B2
:1006800008B50248024B984708BD00BF10E000E0E3
:10069000AD0840000F4B1A6F22F400121A675A6F10
:1006A00022F400125A674FF400125A600A4AD2F834
:1006B000143143F01003C2F81431084B1A6F42F0A2
:1006C00010021A675A6F42F010025A6710225A60DD
:1006D000704700BF000E0E400080084000100E4022
:1006E000044B9B6913F4804F03D14FF48042014BBC
:1006F0001A61704700060E4008B5064B9847064B36
:100700009847064B9847024605490648064B9847C6
:1007100008BD00BFE1064000950640009518400066
:10072000008002401C0340205D0C400008B5324BA5
:100730009847324B9B6913F4806F03D14FF480626A
:100740002E4B1A612D4B9B6913F4805F03D14FF43C
:1007500080522A4B1A61294B9B6913F4803F03D1C5
:100760004FF48032254B1A61254A536843F4004305
:100770005360244B4FF400625A61C3F890205A66CC
:100780001A604FF480215963196119604FF080524B
:100790005A631A611A6003F580634FF480705863DE
:1007A000186118604FF4007058631861186003F501
:1007B00000735963196119604FF000615963196141
:1007C00019605A631A611A600F4B98470F4B98478C
:1007D0000F4B98470F4B98470F4B98470F4B984735
:1007E0000F4B98470F4B98470F4B98470F4B984725
:1007F0000F4B984708BD00BF8D0E400000060E400D
:1008000050180E40000E0E407D034000E9034000EA
:10081000150440002D044000D50440005D05400053
:10082000B10540002506400081064000F906400061
:100830000509400038B504460D46002818BF0029B8
:1008400014BF0120002039220349044B9847294650
:100850002046034B984738BD24444000D10C40004B
:10086000490E400038B50D4604464E220549003079
:1008700018BF0120044B984729462046034B984750
:10088000002038BD24444000D10C4000810E4000BF
:10089000EFF31083036072B6BFF35F8F7047BFF34F
:1008A0005F8F036883F310887047000008B5024B20
:1008B0001860024B984708BD38024020D51440000C
:1008C00038B50425002407E00D4A52F83330B3B19F
:1008D000984738BD013AD5B2AC4210D82B195B10FD
:1008E000DAB2032A0BD81346054901EBC201496865
:1008F0008142E9D08142EDD20132D4B2ECE738BD79
:100900003C02402008B500230AE0084A02EBC3017C
:100910004FF0FF304860002142F8331001339BB2A2
:10092000032BF2D90248034B984708BD3C024020F4
:10093000C10840009D11400070B5164604460D46A2
:10094000002818BF002914BF0120002034220449C8
:10095000044B98472368324629462046984770BD85
:1009600040444000D10C400070B5164604460D4688
:10097000002818BF002914BF012000203D2204498F
:10098000044B98476368324629462046984770BD15
:1009900040444000D10C400008B5436903B198477A
:1009A00008BD08B5836903B1984708BD38B504464A
:1009B0000D46002818BF002914BF01200020332253
:1009C0000649074B984729462046064B9847064B51
:1009D0002360064B6360002038BD00BF54444000D4
:1009E000D10C4000A512400099094000A309400025
:1009F00010B504464A220949003018BF0120084BAF
:100A000098472046074B984720B92046064B984701
:100A1000002010BD6FF0100010BD00BF5444400016
:100A2000D10C40008D144000E913400070B50D4614
:100A3000164604467C220649003018BF0120054BAB
:100A40009847324629462046034B9847002070BD00
:100A500054444000D10C40002D144000F8B5076804
:100A600017B13C4600260BE00E4B9847F8BDA56831
:100A70002B449B1A01338D68AB4209D22646246869
:100A800034B163689342F2D8A5689B1A2B44F2E70D
:100A9000BC4203D03046044B9847F8BD014B984701
:100AA000F8BD00BFED0C4000190D4000F8B54469D9
:100AB000066901360661037E13F0010F05D1037E3E
:100AC00013F0020F01D1054609E0037E43F0020353
:100AD0000376F8BD6F69E368204698473C469CB1B1
:100AE0006368F31AA26893420ED305F114073846DF
:100AF000064B9847237C012BECD166603246214699
:100B00003846034B9847E5E7F8BD00BF210D40008C
:100B10005D0A400038B504460D46002818BF00297C
:100B200014BF012000203B220549064B9847294667
:100B30002046054B984700202061044B236038BDB8
:100B40006C444000D10C400059154000AD0A4000F3
:100B500010B5044653220949003018BF0120084B44
:100B600098472046074B984720B92046064B9847A0
:100B7000002010BD6FF0100010BD00BF6C4440009D
:100B8000D10C40004116400035164000F8B516461D
:100B900005460F46002818BF002902D00ABB0020D6
:100BA00000E00020F1221049104B984705F108049D
:100BB00020460F4B98470028F8D00025795D204645
:100BC0000C4B984720460A4B98470028FAD001352D
:100BD000B542F3D32046084B98470028FAD0284660
:100BE000F8BD0120DEE700BF84444000D10C400086
:100BF0001D184000D5174000451840002DE9F04170
:100C0000174605468846002818BF002902D0D2B9E9
:100C1000002000E000204FF486720C490C4B9847EE
:100C2000002605F1080420460A4B98470028F8D012
:100C30002046094B984708F806000136BE42F0D31B
:100C40003046BDE8F0810120E5E700BF8444400064
:100C5000D10C40006D184000F917400038B504462B
:100C60000D46002818BF002914BF0120002034229F
:100C70000749084B9847294604F10800064B984756
:100C8000034618B9054A6260054A2260184638BD15
:100C900084444000D10C400069174000FD0B400027
:100CA0008D0B400010B5044653220649003018BF92
:100CB0000120054B984704F10800044B9847002099
:100CC00010BD00BF84444000D10C4000A11740007B
:100CD00000B900BE704703681BB18B4203D01B688C
:100CE000FAE70020704701207047000038B504463D
:100CF0000D46064B984780F0010039220449C0B2E6
:100D0000044B984723682B60256038BDD70C400002
:100D1000A0444000D10C400003680B6001607047A4
:100D200003681BB11A6802601846704700207047BC
:100D30000346064A126822B1044A1068034413604D
:100D400070470349014A1160F6E700BF5C0240208A
:100D5000700940204FF0FF3070474FF400534B6054
:100D6000002070470020704764231D4A03FB0123C5
:100D70005A6842609A688260DA68C2601A690261E1
:100D80005A6902659A694265DA6902661A6AC0F8A8
:100D900094205A6AC0F8A0209A6AC0F8D020DA6A73
:100DA000C0F8D4201B6BC0F8D83000220B2A14D80E
:100DB00010B4426601EB810303EB830313440C334D
:100DC000074C04EB83035B68C3660132D2B20B2A83
:100DD000EFD900205DF8044B70470020704700BF3A
:100DE000C044400008B5094B98420AD003F52033AF
:100DF000984208D0A32206490020064B98470020BD
:100E000008BD002008BD012008BD00BF00C0034090
:100E100088454000D10C400008B5094B9847002395
:100E2000012B09D8642202FB03F206498A5C904236
:100E300003D00133DBB2F3E70023184608BD00BF3F
:100E4000E50D4000C044400038B50C4605464FF45F
:100E50008D720749003018BF0120064B98472C605F
:100E60002046054B984701462046044B984738BD1D
:100E700088454000D10C4000190E4000690D40002B
:100E80000268012303FA01F15161704700B583B094
:100E900001A80E4B98470E4AD2F8883043F47003ED
:100EA000C2F88830BFF34F8FBFF36F8F01A8094B93
:100EB0009847094A136823F4706343F4C0631360CE
:100EC000064B984703B05DF804FB00BF9108400053
:100ED00000ED00E09F084000000C0E406112400051
:100EE00038B5054603681C6D14F0010F1AD114F4CF
:100EF000007F1AD114F0007F1BD114F0807F1DD128
:100F000014F4000F08D0EB682A68526C12F0200F1E
:100F100019D002212846984714F0080F15D12B68E4
:100F20001C6538BD83689847E1E76B682846984799
:100F3000E0E7EB68032128469847DEE7EB680021ED
:100F400028469847DCE70121E4E7EB6804212846BE
:100F50009847E4E708B5024B986A024B984708BDEA
:100F600060024020E10E400030B400258D4210D2D6
:100F7000012200231F2B0AD850F82540224202D11B
:100F800052000133F6E703EB451030BC70470135E2
:100F9000ECE74FF0FF30F8E710B586B0002301937F
:100FA0000293039304930593214B1868F822214977
:100FB000003018BF0120204B9847204BDA6C9B6C07
:100FC000134001931E49CA6C896C0A400492134372
:100FD00025E0174B1B6820469847631104F01F0457
:100FE000012202FA04F406AA02EB830353F8142C3C
:100FF00022EA040243F8142C052101A8114B98475A
:101000000446B4F1FF3FE4D10C4AD16C936C0B4021
:1010100001930B49C86C8A6C0240049213432BB1B4
:10102000052101A8074B98470446EAE706B010BD22
:101030008C024020E0454000D10C4000000E0E40E4
:1010400000140E40690F400010B50446D222054935
:10105000003018BF0120044B984704482044C0F3D7
:10106000472010BDE0454000D10C400000F2F1BF28
:1010700010B50446E0220D49003018BF01200C4B8A
:10108000984720460B4B98470023012B0BD8C3EB06
:10109000C3018A0008498A5C904202D00133DBB266
:1010A000F3E758B210BD4FF0FF3010BDE0454000EF
:1010B000D10C400049104000A045400038B504461E
:1010C00040F259122949003018BF0120284B984797
:1010D0002046284B9847002843DB274DC200111AB1
:1010E0008B002B449968C4F8B010D968C4F8C010BC
:1010F0001969C4F8C4109B69C4F8D030101A830071
:101100002B445B69C4F8D43020461C4B98472844D4
:1011100090F93830002B0CDB5A0903F01F00012135
:1011200081402032164840F82210BFF34F8FBFF3A2
:101130006F8F002B08DB5A0903F01F00012181404B
:1011400060320F4840F82210002B0DDB590903F0E4
:101150001F03012202FA03F3094A42F8213000205A
:1011600038BD6FF0100038BD002038BDE0454000AC
:10117000D10C400071104000A045400049104000D3
:1011800000E100E008B5014B984708BD990F400009
:1011900008B5014B984708BD990F400038B5054682
:1011A0000448054CA0470548A047054B1D6000209A
:1011B00038BD00BF000E0E40BD10400000140E40B0
:1011C0008C0240200E490A6A22F002020D4B1343A2
:1011D0000B620B4B9B6E13F0010FFAD0084B196A90
:1011E000094A0A431A62996A084A0A409A62084AF6
:1011F0009A62034B9B6E13F0020FFAD0704700BF48
:1012000000060E40013E370000003701FFFF00F8E6
:10121000013F1820114A136B23F0700313630F4B27
:101220009B6E13F0080FFAD00C4A136B23F4407333
:1012300043F480731363094B9B6E13F0080FFAD0CD
:10124000064A136B23F0030343F002031363034BBB
:101250009B6E13F0080FFAD0704700BF00060E40D7
:1012600008B5024B9847024B984708BDC51140008E
:10127000151240000023012B0FD8C3EB03118A0085
:1012800007498A58824202D00133DBB2F3E7C3EB4D
:1012900003139A000846104470470020704700BFAF
:1012A000FC454000F8B505460C46081C18BF012057
:1012B00040F261124849494B98472046484B9847AD
:1012C0002C6183682360C368E3670369C4F88030D6
:1012D0004369E3658369A366C369C4F8C030036AE0
:1012E000E366436AC4F82C34836AC4F84C340021A2
:1012F00029E0026B0B01D718D55C7E6846F4803676
:1013000010356D016651D55C04EB4515D5F81862B2
:1013100046F00A06C5F81862D55C04EB4515D5F809
:10132000186246F42026C5F81862D55CFE681035B0
:1013300004EB45156E60D35CBA6804EB4313C3F845
:101340000C22013149B2C36A9942D2D3002311E081
:10135000816B03EB4305AA008F188D5C7E6804EB5C
:101360000515C5F838618A5CB96813321201A150BD
:1013700001335BB2426B9342EAD390F90430002B05
:101380000DDB5A0903F01F03012101FA03F3203298
:10139000144941F82230BFF34F8FBFF36F8F90F99C
:1013A0000430002B09DB5A0903F01F03012101FA65
:1013B00003F360320B4941F8223090F90430002BDE
:1013C00008DB590903F01F03012202FA03F3054A5F
:1013D00042F821300020F8BDA4464000D10C400066
:1013E0007512400000E100E038B5044640F29D125D
:1013F0000B49003018BF01200A4B984720690A4B5F
:101400009847002308E02169056B1A01AD5C0122B1
:10141000AA404A6001335BB2C26A9342F3D338BD3B
:10142000A4464000D10C400075124000F8B50D46AE
:10143000164604464FF4DD721149002818BFAE422B
:1014400034BF012000200F4B984720690E4B98476E
:10145000002310E02269076B19017F5C02EB471241
:10146000C2F808622269076B795C02EB4112C2F88C
:1014700010520133DBB2C26A9342EBD3F8BD00BF16
:10148000A4464000D10C40007512400010B504463F
:101490004FF4E3720749003018BF0120064B98470C
:1014A0002369DB6813F00F0F01D0012010BD00206D
:1014B00010BD00BFA4464000D10C40000020704782
:1014C000034B6FF07F425A6005221A60704700BFDD
:1014D00010E000E008B5014B984708BDC11440007A
:1014E0000023012B15D810B403EBC3018A000A496D
:1014F0008A58824207D00133DBB2012BF4D9002095
:101500005DF8044B704703EBC304A300084618447E
:10151000F6E70020704700BF00004020064B9842CD
:1015200003D0064B984203D07047054B1960F8E78B
:10153000034B5960F8E700BF00C000400040054081
:10154000A802402008B5C3681B6A13F0100F00D131
:1015500008BD03689847FBE72DE9F04706460C46AF
:1015600008462F4B98470546D0F814A0D0F818909D
:10157000C769D0F80C80F460C3222A4901202A4BA5
:10158000984748F207036360C4F814A0C4F81890A1
:10159000C4F83080E7610023636248F20F0262649E
:1015A000C4F854A0C4F85890C4F87080E765636626
:1015B0002B69C4F8D830314620461C4B984795F922
:1015C0000430002B0DDB5A0903F01F03012101FA3F
:1015D00003F32032164941F82230BFF34F8FBFF397
:1015E0006F8F95F90430002B09DB5A0903F01F03B4
:1015F000012101FA03F360320D4941F8223095F9D7
:101600000430002B08DB590903F01F03012202FA02
:1016100003F3074A42F821300020BDE8F08700BFFD
:10162000E1144000BC464000D10C40001D154000B4
:1016300000E100E0C26805231360C26813647047CC
:10164000C268136AC3F30043106EC0F3004018432E
:10165000704700207047000008B5024B1868024B25
:10166000984708BDA80240204515400008B5024B28
:101670005868024B984708BDA80240204515400015
:1016800010B5044640F22B220549003018BF012056
:10169000044B984704482044C0F3873010BD00BF76
:1016A000DC464000D10C400000C0FDBF10B5044630
:1016B00040F287220E49003018BF01200D4B984799
:1016C00020460D4B9847002343B140F29122084930
:1016D0000020084B98470023184610BD03EB430138
:1016E0008A0006498A5C9042F6D00133DBB2EBE710
:1016F000DC464000D10C400081164000D04640003E
:1017000010B5044640F29E221149003018BF012056
:10171000104B98472046104B9847104BC4F8E430C4
:10172000002363606362A362AC2222604FF4807284
:1017300022604FF40022226000EB40008100084A42
:101740000A4452686260074A2262184610BD00BF10
:10175000DC464000D10C4000AD164000004153551E
:10176000D0464000F4000100F8B50C46094E07468B
:10177000BD223146003018BF0120074DA847BE22C8
:101780003146201C18BF0120A8473C602046034B6F
:101790009847F8BDDC464000D10C400001174000DE
:1017A00070B50A4E044640F205123146003018BFAB
:1017B0000120074DA847246840F2C7223146201C6B
:1017C00018BF0120A8475023236070BDDC464000AD
:1017D000D10C400038B50C4605464FF4D47204498C
:1017E000003018BF0120034B98472B68DC6138BDDF
:1017F000DC464000D10C400010B504464FF4DD72C9
:101800000449003018BF0120034B984723689869AA
:10181000C0B210BDDC464000D10C400010B50446FB
:1018200040F2C3120549003018BF0120044B98470D
:1018300023685869C0F3400010BD00BFDC4640007B
:10184000D10C400010B504464FF4E6720549003053
:1018500018BF0120044B984723685869C0F3402003
:1018600010BD00BFDC464000D10C400010B504465E
:101870004FF4EF720549003018BF0120044B984720
:101880002368586900F0010010BD00BFDC4640002D
:10189000D10C40000020704708B50A4B98474FF420
:1018A0008072094B1A63094B9847094B98474FF4CC
:1018B0008022084B1A630848084CA0470848A047F4
:1018C000FEE700BFD501400000120E406502400057
:1018D000E9014000000E0E4028034020510B40005B
:1018E000D802402058B908B50B4611461846054B9A
:1018F0009847002800DB08BD4FF0FF3008BD4FF0CF
:10190000FF3070475D194000013802280BD808B538
:101910000B4611461846054B9847002800DB08BDCA
:101920004FF0FF3008BD4FF0FF3070478119400085
:1019300070B50646064D2B6800219868054CA047F7
:101940002B6800215868A047034B1E6070BD00BF84
:1019500048004020A5294000B002402008B5064BB1
:101960001B6833B10A46014692B21846034B9847AA
:1019700008BD002008BD00BFB0024020690940003A
:1019800008B5064B1B6833B10A46014692B21846A9
:10199000034B984708BD002008BD00BFB00240209F
:1019A0003909400010B5044C2046044B98472046A6
:1019B000034B984710BD00BF1C034020A50C4000FE
:1019C0003119400081F0004102E000BF83F0004384
:1019D00030B54FEA41044FEA430594EA050F08BFCA
:1019E00090EA020F1FBF54EA000C55EA020C7FEA8E
:1019F000645C7FEA655C00F0E2804FEA5454D4EB0B
:101A00005555B8BF6D420CDD2C4480EA020281EAD4
:101A1000030382EA000083EA010180EA020281EA0C
:101A20000303362D88BF30BD11F0004F4FEA01315E
:101A30004FF4801C4CEA113102D0404261EB41016D
:101A400013F0004F4FEA03334CEA133302D05242F3
:101A500063EB430394EA050F00F0A780A4F10104AF
:101A6000D5F1200E0DDB02FA0EFC22FA05F28018E9
:101A700041F1000103FA0EF2801843FA05F35941CF
:101A80000EE0A5F120050EF1200E012A03FA0EFC4E
:101A900028BF4CF0020C43FA05F3C01851EBE37178
:101AA00001F0004507D54FF0000EDCF1000C7EEB95
:101AB00000006EEB0101B1F5801F1BD3B1F5001FD3
:101AC0000CD349085FEA30004FEA3C0C04F10104F2
:101AD0004FEA445212F5800F80F09A80BCF1004F1B
:101AE00008BF5FEA500C50F1000041EB045141EA9D
:101AF000050130BD5FEA4C0C404141EB010111F49E
:101B0000801FA4F10104E9D191F0000F04BF014648
:101B10000020B1FA81F308BF2033A3F10B03B3F126
:101B200020020CDA0C3208DD02F1140CC2F10C02B6
:101B300001FA0CF021FA02F10CE002F11402D8BF14
:101B4000C2F1200C01FA02F120FA0CFCDCBF41EAE0
:101B50000C019040E41AA2BF01EB0451294330BDAF
:101B60006FEA04041F3C1CDA0C340EDC04F114048C
:101B7000C4F1200220FA04F001FA02F340EA030063
:101B800021FA04F345EA030130BDC4F10C04C4F1A9
:101B9000200220FA02F001FA04F340EA0300294689
:101BA00030BD21FA04F0294630BD94F0000F83F4D3
:101BB000801306BF81F480110134013D4EE77FEAB6
:101BC000645C18BF7FEA655C29D094EA050F08BF02
:101BD00090EA020F05D054EA000C04BF19461046E3
:101BE00030BD91EA030F1EBF0021002030BD5FEA27
:101BF000545C05D14000494128BF41F0004130BD4F
:101C000014F580043CBF01F5801130BD01F00045A2
:101C100045F0FE4141F470014FF0000030BD7FEA15
:101C2000645C1ABF194610467FEA655C1CBF0B4610
:101C3000024650EA013406BF52EA033591EA030F27
:101C400041F4002130BD00BF90F0000F04BF00211F
:101C5000704730B54FF4806404F132044FF0000552
:101C60004FF0000150E700BF90F0000F04BF0021CB
:101C7000704730B54FF4806404F1320410F0004531
:101C800048BF40424FF000013EE700BF42004FEA2C
:101C9000E2014FEA31014FEA02701FBF12F07F43A9
:101CA00093F07F4F81F06051704792F0000F14BFA6
:101CB00093F07F4F704730B54FF4607401F00045EA
:101CC00021F0004120E700BF50EA010208BF704741
:101CD00030B54FF000050AE050EA010208BF704736
:101CE00030B511F0004502D5404261EB41014FF49F
:101CF000806404F132045FEA915C3FF4DCAE4FF0A3
:101D000003025FEADC0C18BF03325FEADC0C18BF89
:101D1000033202EBDC02C2F1200300FA03FC20FADA
:101D200002F001FA03FE40EA0E0021FA02F1144427
:101D3000C1E600BF70B54FF0FF0C4CF4E06C1CEA3C
:101D400011541DBF1CEA135594EA0C0F95EA0C0FB1
:101D500000F0DEF82C4481EA030621EA4C5123EA24
:101D60004C5350EA013518BF52EA033541F4801153
:101D700043F4801338D0A0FB02CE4FF00005E1FB06
:101D800002E506F00042E0FB03E54FF00006E1FB50
:101D900003569CF0000F18BF4EF0010EA4F1FF0493
:101DA000B6F5007F64F5407404D25FEA4E0E6D41D3
:101DB00046EB060642EAC62141EA55514FEAC520E4
:101DC00040EA5E504FEACE2EB4F1FD0C88BFBCF560
:101DD000E06F1ED8BEF1004F08BF5FEA500E50F111
:101DE000000041EB045170BD06F0004646EA0101D7
:101DF00040EA020081EA0301B4EB5C04C2BFD4EB09
:101E00000C0541EA045170BD41F480114FF0000E01
:101E1000013C00F3AB8014F1360FDEBF002001F06F
:101E2000004170BDC4F10004203C35DA0C341BDCE9
:101E300004F11404C4F1200500FA05F320FA04F0BB
:101E400001FA05F240EA020001F0004221F00041EF
:101E500010EBD37021FA04F642EB06015EEA430E62
:101E600008BF20EAD37070BDC4F10C04C4F1200592
:101E700000FA04F320FA05F001FA04F240EA020045
:101E800001F0004110EBD37041F100015EEA430E16
:101E900008BF20EAD37070BDC4F1200500FA05F236
:101EA0004EEA020E20FA04F301FA05F243EA0203B5
:101EB00021FA04F001F0004121FA04F220EA0200C4
:101EC00000EBD3705EEA430E08BF20EAD37070BD0A
:101ED00094F0000F0FD101F00046400041EB0101EA
:101EE00011F4801F08BF013CF7D041EA060195F0CC
:101EF000000F18BF704703F00046520043EB030386
:101F000013F4801F08BF013DF7D043EA0603704772
:101F100094EA0C0F0CEA135518BF95EA0C0F0CD07D
:101F200050EA410618BF52EA4306D1D181EA0301C3
:101F300001F000414FF0000070BD50EA410606BFBD
:101F40001046194652EA430619D094EA0C0F02D102
:101F500050EA013613D195EA0C0F05D152EA033647
:101F60001CBF104619460AD181EA030101F0004165
:101F700041F0FE4141F470014FF0000070BD41F0AE
:101F8000FE4141F4780170BD70B54FF0FF0C4CF488
:101F9000E06C1CEA11541DBF1CEA135594EA0C0FA7
:101FA00095EA0C0F00F0A7F8A4EB050481EA030EF4
:101FB00052EA03354FEA013100F088804FEA0333DB
:101FC0004FF0805545EA131343EA12634FEA0222A9
:101FD00045EA111545EA10654FEA00260EF000416A
:101FE0009D4208BF964244F1FD0404F5407402D2BC
:101FF0005B084FEA3202B61A65EB03055B084FEA4D
:1020000032024FF480104FF4002CB6EB020E75EB49
:10201000030E22BFB61A754640EA0C005B084FEA71
:102020003202B6EB020E75EB030E22BFB61A7546EE
:1020300040EA5C005B084FEA3202B6EB020E75EB39
:10204000030E22BFB61A754640EA9C005B084FEAB1
:102050003202B6EB020E75EB030E22BFB61A7546BE
:1020600040EADC0055EA060E18D04FEA051545EAAD
:1020700016754FEA06164FEAC30343EA52734FEA56
:10208000C2025FEA1C1CC0D111F4801F0BD141EACF
:1020900000014FF000004FF0004CB6E711F4801F34
:1020A00004BF01430020B4F1FD0C88BFBCF5E06F14
:1020B0003FF6AFAEB5EB030C04BFB6EB020C5FEA24
:1020C000500C50F1000041EB045170BD0EF0004E79
:1020D0004EEA113114EB5C04C2BFD4EB0C0541EAAB
:1020E000045170BD41F480114FF0000E013C90E6A8
:1020F00045EA060E8DE60CEA135594EA0C0F08BF6C
:1021000095EA0C0F3FF43BAF94EA0C0F0AD150EA6A
:1021100001347FF434AF95EA0C0F7FF425AF1046FD
:1021200019462CE795EA0C0F06D152EA03353FF425
:10213000FDAE1046194622E750EA410618BF52EAA2
:1021400043067FF4C5AE50EA41047FF40DAF52EA76
:1021500043057FF4EBAE12E74FF0FF3C06E000BF13
:102160004FF0010C02E000BF4FF0010C4DF804CD20
:102170004FEA410C7FEA6C5C4FEA430C18BF7FEAE0
:102180006C5C1BD001B050EA410C0CBF52EA430C0E
:1021900091EA030F02BF90EA020F0020704710F18E
:1021A000000F91EA030F58BF994208BF90422CBF1D
:1021B000D8176FEAE37040F0010070474FEA410C16
:1021C0007FEA6C5C02D150EA013C07D14FEA430C34
:1021D0007FEA6C5CD6D152EA033CD3D05DF8040BA5
:1021E000704700BF8446104662468C4619466346D7
:1021F00000E000BF01B5FFF7B7FF002848BF10F1AE
:10220000000F01BD4DF808EDFFF7F4FF0CBF0120F2
:1022100000205DF808FB00BF4DF808EDFFF7EAFF6E
:1022200034BF012000205DF808FB00BF4DF808ED29
:10223000FFF7E0FF94BF012000205DF808FB00BF1E
:102240004DF808EDFFF7CEFF94BF012000205DF8A8
:1022500008FB00BF4DF808EDFFF7C4FF34BF0120B5
:1022600000205DF808FB00BF4FEA410212F50012A2
:1022700015D211D56FF47873B3EB625212D94FEACD
:10228000C12343F0004343EA505311F0004F23FAB7
:1022900002F018BF404270474FF00000704750EA0C
:1022A000013005D111F0004008BF6FF000407047C9
:1022B0004FF00000704700BF70B50D4E0D4CA41BD1
:1022C000A4100025A54209D10B4E0C4C02F05CFB7A
:1022D000A41BA4100025A54205D170BD56F82530D9
:1022E00098470135EEE756F8253098470135F2E773
:1022F0009449400094494000944940009849400066
:1023000010B5431E0A44914200D110BD11F8014B93
:1023100003F8014FF7E702440346934200D17047A8
:1023200003F8011BF9E72DE9F04788B0002B149F53
:102330001299109DDDF84CA01E4627F02007BBBF68
:1023400003F100431E4600232D23462F14460B7035
:1023500004D0452F00D10135022300E0032307AA52
:10236000049206AA03928DE828042246334600F020
:1023700063FC472F804602D1119BDB0726D5462FF1
:1023800008EB050911D198F80030302B0AD1002252
:10239000002320463146FFF735FF18B9C5F1010586
:1023A000CAF80050DAF80030994400220023204691
:1023B0003146FFF727FF38B93022079B994505D9E9
:1023C000591C07911A70F8E7CDF81C90079B159AD5
:1023D000A3EB08034046136008B0BDE8F087F7B5EB
:1023E00003460029B8BF494203F8022BB4BF2D228F
:1023F0002B220929427020DD0DF1070217460A261B
:1024000091FBF6F506FB15113031092D02F8011C80
:1024100002F1FF34294609DC3031023A04F8011C8C
:10242000BA421C4604D3201A03B0F0BD2246E7E7A7
:1024300012F8011B03F8011BF2E730221C4611447D
:1024400004F8022B5970EEE72DE9F04F91B00C46DD
:102450001A9F93461E46054601F03CFB036809930C
:10246000184600F055FB00230E933B680A90073393
:1024700023F0070303F1080294F81880D4F800A0B1
:102480003A60D3E90023C4E91223D4F84C90A76C36
:1024900029F000430B934FF0FF32A64B0B993846BF
:1024A00001F0AAFF002840F0F7814FF0FF32A14B66
:1024B0000B993846FFF7BAFE002840F0ED81002264
:1024C000002338464946FFF7A7FE10B12D2384F8B4
:1024D0004330994B994FB8F1470F98BF1F460323DC
:1024E00023612AF0040323604FF0000900965B4645
:1024F0000FAA2146284600F0DFF9013040F09A800B
:102500004FF0FF3011B0BDE8F08F6268531C0EA889
:102510004AF480630DF1340E41D1062262602360DB
:1025200000210DF13302019363680590029200933C
:102530003A464B460691CDF81080CDF80CE028467F
:10254000FFF7F1FE08F0DF03472B074609D10D9B8B
:10255000D81C02DB6268934259DDA8F102085FFAD9
:1025600088F8B8F1650F0D9936D80139424604F163
:1025700050000D91FFF733FF0E9A8318012A814610
:10258000236102DC2268D10701D5013323619DF864
:102590003330002BAAD02D2384F84330A6E7B8F1BE
:1025A000670F02D0B8F1470FB9D19AB10021069157
:1025B0000DF133018DE80C00236005903A46CDF80B
:1025C0001080CDF80CE002914B462846FFF7ABFE99
:1025D0000746BCE70122A1E7B8F1660F19D100292F
:1025E00063680CDD216113B92268D20702D501337B
:1025F0000B4423610D9BA3654FF00009C7E713B996
:102600002268D00701D50233F3E70123F1E74FF049
:1026100067080D9B0E9A934205DB22682361D10760
:10262000E8D50133E5E7002BD4BFC3F10203012352
:102630001344DEE723685A0507D423693A4659460E
:102640002846B04701302AD15AE7B8F1650F40F269
:10265000DC8000220023D4E91201FFF7D3FD00281B
:1026600039D00123364A59462846B04701303FF455
:1026700047AF0E9B0D9A9A4202DB2368D8070ED50E
:102680000A9B099A59462846B04701303FF438AFB3
:10269000002704F11A080E9B013B9F4211DB2368BF
:1026A0009F0708D5002704F11908E3680F9A9B1AC1
:1026B0009F42C0F2E780E0680F9B9842B8BF18467F
:1026C00020E70123424659462846B04701303FF4EF
:1026D00017AF0137DFE70D9B002B33DC0123184ACE
:1026E00059462846B04701303FF40AAF0D9B23B945
:1026F0000E9B13B92368D907D1D50A9B099A59466D
:102700002846B04701303FF4FBAE4FF0000804F11B
:102710001A090D9B5B42984501DB0E9B8EE7012356
:102720004A4659462846B04701303FF4E9AE08F121
:102730000108EEE7FFFFEF7FFC4640000047400046
:102740000C4740000E9AA36D9A42A8BF1A46002A71
:10275000904636DC04F11A034FF0000A28EAE878C4
:102760000B93D4F85890A9EB08039A4531DB0E9BE4
:102770000D9A9A4238DB2368DA0735D40E9B0D99FF
:10278000A3EB0902A3EB01089045A8BF9046B8F15E
:10279000000F31DC002728EAE87804F11A090D9AC5
:1027A0000E9B9B1AA3EB08039F42BFF678AF012351
:1027B0004A4659462846B04701303FF4A1AE01379A
:1027C000EDE7134659463A462846B0470130C1D195
:1027D00096E601230B9A59462846B04701303FF44C
:1027E0008FAE0AF1010ABCE70A9B099A59462846AE
:1027F000B0470130C2D183E6434607EB0902594690
:102800002846B0470130C5D17AE60E9A012A01DC8C
:10281000DB0734D501233A4659462846B0470130F4
:102820003FF46EAE0A9B099A59462846B0470130DC
:102830003FF466AE00220023D4E91201FFF7E2FC68
:1028400050B1002704F11A080E9B013B9F420CDB9C
:102850004B4604F15002F2E60E9B7A1C013B5946AE
:102860002846B0470130F3D14AE601234246594693
:102870002846B04701303FF443AE0137E4E7012377
:102880003A46ECE70123424659462846B047013014
:102890003FF436AE013708E73A464B4638464946DC
:1028A00001F0AAFD00283FF430AE014B014F12E6C3
:1028B00004474000084740002DE9F04791461F4675
:1028C0008A680B69DDF820809342B8BF1346C9F8C7
:1028D000003091F8432006460C4612B10133C9F886
:1028E00000302368990642BFD9F800300233C9F896
:1028F0000030256815F0060507D104F1190AE368D0
:10290000D9F800209B1A9D4229DB94F843302268B5
:10291000003318BF012392062ED404F14302394636
:102920003046C047013021D02368E568D9F800203F
:1029300003F00603042B08BFAD1AA36822690CBF7D
:1029400025EAE57500259342C4BF9B1AED184FF0A8
:1029500000091A344D451BD10020BDE8F087012342
:10296000524639463046C047013003D14FF0FF3060
:10297000BDE8F0870135C2E7E1185A1C302081F824
:102980004300224494F8451082F843100233C4E710
:102990000123224639463046C0470130E6D009F1CE
:1029A0000109D7E700294FF480630CBF02220022FF
:1029B00000F000B82DE9F7431D46514B1E68044650
:1029C0000F46904626B1B36913B9304600F0F8FFC0
:1029D0004C4B9C4252D17468B8F1020F06D0B8F14A
:1029E000010F00F28980002DC0F28680214630461A
:1029F00000F07CFF616B41B104F14403994202D0C5
:102A0000304601F07FFB002363630023A361636012
:102A1000A3891B0603D52169304601F073FBA38906
:102A200023F44A6323F00303B8F1020FA3815DD0BE
:102A300001AB6A462146304601F05AF8A389184393
:102A4000A0812DBB009D284601F076F8074600289E
:102A50004ED1DDF80090A9453CD14FF0FF30A3895D
:102A600043F00203A3810023A36004F14703236022
:102A700023610123636103B0BDE8F083224B9C42D4
:102A800001D1B468A8E7214B9C4208BFF468A3E7D2
:102A9000002FD8D0B36913B9304600F091FFB8F1D8
:102AA000010F08BFA389276004BF43F00103A3817E
:102AB000A389276113F0080065611BD013F00100A2
:102AC00018BF6D424FF000031DBFA360A5611846FB
:102AD000A560D0E7484601F02FF807460028BCD093
:102AE000A38943F08003A3814D46D3E70020B6E7D6
:102AF000A946F5E7A060BEE74FF0FF30BBE700BF97
:102B0000480040203C4740005C4740001C474000D4
:102B1000034613F8012B002AFBD1181A013870471D
:102B20002DE9F74F03690C699C42804600F38280CF
:102B3000013C01F114074FEA840E00F1140657F826
:102B4000245056F8240006EB0E03013507EB0E095E
:102B50000193B0FBF5F595B34FF0000A3846B44643
:102B6000D34650F8042B93B205FB03A34FEA134A54
:102B70009BB2ABEB0303120CBCF800B005FB02A246
:102B800013FA8BF34FEA124A1FFA82FBDCF800209B
:102B9000CBEB124202EB23429BB243EA0243814554
:102BA0004FEA224B4CF8043BDBD256F80E3033B9D7
:102BB000019B043B9E421A4630D3C8F81040404661
:102BC00001F0CBF9002825DB013530464FF0000E2F
:102BD00057F8042BD0F800C093B2AEEB0303120CED
:102BE00013FA8CF3C2EB1C4202EB23429BB243EA82
:102BF0000243B9454FEA224E40F8043BE8D256F86A
:102C0000242006EB84032AB9043B9E421A460BD3C8
:102C1000C8F81040284603B0BDE8F08F1268043BA6
:102C2000002ACAD1013CC5E71268043B002AEFD153
:102C3000013CEAE70020EEE72DE9F04F466A95B047
:102C40000446219DCDE902233EB9102000F074FF17
:102C50006062466086600660C660636A196851B14A
:102C60005A684A60012393408B60204600F0A0FF21
:102C7000636A00221A60039B002BBFBF01232B60F5
:102C8000039B23F00043B2BF039300232B60DDF8C6
:102C90000C90A94B33EA09031BD1209A42F20F731F
:102CA0001360029B23B9C9F31300002800F081854B
:102CB000229B53B9A14B21E0A14B06930833229AE2
:102CC0001360069815B0BDE8F08F9C4B0693033354
:102CD000F5E7DDE902670022002330463946FFF7B9
:102CE00091FA804660B1209A01231360229B002B49
:102CF00000F05C85934B229A1360013B0693E0E75A
:102D000012AB019313AB009332463B46204601F0D1
:102D10009CF9C9F30A558246002D7CD0C7F31303F2
:102D200043F07F51304641F44011A5F2FF35CDF814
:102D300040800022844BFEF749FE79A3D3E90023AB
:102D4000FEF7F8FF78A3D3E90023FEF741FE06461D
:102D500028460F46FEF788FF75A3D3E90023FEF748
:102D6000E9FF02460B4630463946FEF731FE06467D
:102D70000F46FFF779FA0022834600233046394692
:102D8000FFF74AFA58B15846FEF76EFF02460B4667
:102D900030463946FFF736FA08B90BF1FF3BBBF175
:102DA000160F57D8694901EBCB01DDE90223D1E9C0
:102DB0000001FFF74FFA00284ED00BF1FF3B002334
:102DC0000D93129B5D1B6B1E079343BF0023C5F140
:102DD000010807934FF00008BBF1000F3EDB079B93
:102DE000CDF830B05B440793002308931E9B092B5A
:102DF00000F2B080052BC4BF043B1E931E9BA3F1C1
:102E00000203CCBF00260126032B00F2AF80DFE8CF
:102E100003F083852D77139B129D1D4405F23243E9
:102E2000202B11DD029A05F21240C3F1400322FA71
:102E300000F009FA03F31843FEF706FF0123A1F19E
:102E4000F871013D109374E7C3F12000029B03FA6F
:102E500000F0F1E70123B3E70D90B2E7CBF10003F7
:102E600008930023A8EB0B080C93BFE701230993F9
:102E70001F9B002B7DDD04939946656A00226A60E2
:102E8000042101F114029A4278D96968204600F0C1
:102E90005BFE636A28601B680693B9F10E0F00F2AF
:102EA000EE80002E00F0EB80DDE90223BBF1000F85
:102EB000CDE90E2377DD254A0BF00F0302EBC303A8
:102EC000D3E900234FEA2B16F006CDE90A235AD5A1
:102ED0001F4BDDE90E01D3E90823FFF755F8CDE9D3
:102EE000020106F00F060325194F002E4DD1DDE932
:102EF0000A23DDE90201FFF747F8CDE902016CE0A2
:102F0000012309931F9B5B4403F1010904934B4682
:102F1000012BB8BF0123B0E70023A8E70023F0E7A7
:102F200061436F63A787D23FB3C8608B288AC63FCF
:102F3000FB799F501344D33F0000F07F17474000B8
:102F40000E4740000D4740000000F83FA8474000F2
:102F500080474000012600231E9309964FF0FF335F
:102F600004939946002212231F9286E701230993B6
:102F7000F4E70123049399461A46F5E76A6801329B
:102F80006A6049007DE70225AEE7F10708D5DDE973
:102F90000A01D7E90023FEF7CDFECDE90A0101358C
:102FA00076100837A1E700F0A580CBF10006A34B0F
:102FB000A34F06F00F0203EBC203D3E90023DDE9C0
:102FC0000E01FEF7B7FECDE90201361100230225FE
:102FD000002E40F08480002B8FD10D9B002B00F041
:102FE0008B80DDE90223CDE90A23DDE90A01002215
:102FF000944BFFF711F900287ED0B9F1000F7BD078
:10300000049B002B37DD00228F4BDDE90A01FEF720
:1030100091FECDE90201049E0BF1FF3701352846F0
:10302000FEF722FEDDE90223FEF784FE874B002235
:10303000FEF7CEFCCDE90A010B9BA3F150750B9571
:10304000002E5CD10022824BDDE90201FEF7BEFCBE
:103050000A9A2B46CDE90201FFF7FCF8002840F060
:10306000F7820A9A05F10043DDE90201FFF7D4F87F
:10307000002840F0EB82DDE90E23CDE90223139B0B
:10308000002BC0F25181BBF10E0F00F34D816B4B51
:1030900003EBCB03D3E90023CDE904231F9B002BD3
:1030A00080F2DA80B9F1000F00F3D68040F0CD82D3
:1030B0000022674BDDE90401FEF73CFEDDE9022357
:1030C000FFF7BEF84E464F46002840F0A482069B0C
:1030D000069A5D1C312313700BF1010B9FE2F2077E
:1030E00005D5D7E90023FEF725FE0135012376102B
:1030F00008376DE7022570E75F464E468FE7069A70
:103100004E4B32441192099A711E002A48D003EBAB
:10311000C103D3E9002300204E49FEF735FFDDE966
:103120000A23FEF753FCCDE90A01069DDDE9020101
:10313000FFF79AF80646FEF797FD02460B46DDE9D3
:103140000201FEF743FC303605F8016BDDE90A2386
:10315000CDE90201FFF760F8002865D1DDE902231F
:1031600000203849FEF732FCDDE90A23FFF754F866
:10317000002840F0B980119B9D423FF47CAF0022B3
:10318000314BDDE90A01FEF7D5FD0022CDE90A0148
:103190002D4BDDE90201FEF7CDFDCDE90201C5E7CA
:1031A00003EBC101D1E90001DDE90A23FEF7C2FD0D
:1031B000CDE90A01069DDDE90201FFF755F8064653
:1031C000FEF752FD303602460B46DDE90201FEF7FE
:1031D000FDFB05F8016B119BAB42CDE902014FF0FD
:1031E000000225D11B4BDDE90A01FEF7F1FB024687
:1031F0000B46DDE90201FFF72DF8002874D1DDE967
:103200000A2300201349FEF7E1FB02460B46DDE9E5
:103210000201FFF701F800283FF42DAF15F8013C3B
:10322000302B05F1FF3201D0BB464CE01546F5E7E7
:10323000054BFEF77FFDCDE90201BCE7A847400042
:10324000804740000000F03F0000244000001C4088
:10325000000014400000E03FDDE90267069DDDE963
:10326000042330463946FEF78FFEFEF7FDFF804609
:10327000FEF7FAFCDDE90423FEF75CFD02460B468F
:103280003046394608F13006FEF7A0FB05F8016B21
:10329000069EAE1BB14502460B4638D1FEF798FBA1
:1032A00006460F4602460B46DDE90401FEF7B4FF71
:1032B000C8B932463B46DDE90401FEF7A3FF10B171
:1032C00018F0010F0FD15146204600F071FC002389
:1032D000209A2B700BF101031360229B002B3FF40B
:1032E000F0AC1D60EDE45F4615F8012C392A05F1BC
:1032F000FF3306D1069A9A4207D130231370013763
:1033000013461A7801321A708EE71D46ECE7002248
:10331000B44BFEF70FFD0022002306460F46FEF7D2
:1033200071FF00289BD0CEE7099A002A00F029817E
:103330001E9A012A00F30E81109A002A00F00681DD
:1033400003F23343089E4546079A01211A4420465A
:103350009844079200F0CCFC0746002D0BDD079B3C
:10336000002B08DDAB42079AA8BF2B46A8EB030849
:10337000ED1AD31A0793089BFBB1099B002B00F0B1
:103380000481002E11DD39463246204600F046FD0C
:10339000524601460746204600F0B3FC51460A90CB
:1033A000204600F005FC0A9B9A46089B9A1B04D015
:1033B0005146204600F032FD82460121204600F0B1
:1033C00097FC0C9B002B064640F3E1801A46014611
:1033D000204600F023FD1E9B012B064640F3DA80B9
:1033E00000230893336906EB8303186900F032FC6D
:1033F000C0F12000079B184410F01F0000F0F0807F
:10340000C0F12003042B40F3E280079BC0F11C00B5
:103410008044054403440793B8F1000F05DD51468D
:103420004246204600F048FD8246079B002B05DD02
:1034300031461A46204600F03FFD06460D9B002B04
:1034400000F0D2803146504600F087FD002880F21F
:10345000CB80002351460A22204600F0C0FB099B86
:103460000BF1FF3B8246002B00F0AA810023394676
:103470000A22204600F0B3FB049B002B074603DC26
:103480001E9B022B00F3B880002D05DD39462A462D
:10349000204600F011FD0746089B002B00F010812C
:1034A0007968204600F050FB3A69023205469200E6
:1034B00007F10C010C30FEF723FF012229462046BC
:1034C00000F0FAFC029BDDF81880079703F0010377
:1034D0000746089331465046FFF722FB07990546F9
:1034E00000F13009504600F038FD3A46029031466E
:1034F000204600F04CFDC3680246002B40F0E280FD
:1035000001460990504600F028FD099A03461146ED
:103510002046099300F04CFB099B002B40F0D4801F
:103520001E9A002A40F0D080089A002A40F0CC80F1
:10353000B9F1390F00F0E880029B002B01DD05F1A5
:10354000310908F1010588F800906AE0129BC3F187
:103550003603F7E6089B09F1FF36B342BFBF089B6D
:103560000896F21A0C9BB7BF9B189E1B0C93002663
:10357000B9F1000FB9BFA8EB0905002345464B463A
:10358000E2E6089E099F4546E7E6089A10E71E9B7B
:10359000012B18DC029BB3B9039BC3F31303A3B93C
:1035A000039B23F000431B0D1B052BB1079B01332D
:1035B000079308F10108012308930C9B002B7FF46B
:1035C00011AF012016E70023F6E7029BF4E73FF472
:1035D00023AF079A1C331A4498441D4413461AE734
:1035E0000346F6E700002440B9F1000F33DC1E9BD0
:1035F000022B30DDCDF81090049B63B931460522D3
:10360000204600F0ECFA01460646504600F0A5FCC4
:1036100000283FF75CAD1F9B069D6FEA030B00235C
:1036200007933146204600F0C3FA002F3FF44BAE1B
:10363000079B2BB1BB4203D01946204600F0B8FAD5
:103640003946204600F0B4FA3DE600263746E2E768
:10365000BB4637463BE5099BCDF81090002B7FF425
:1036600013AF069D31465046FFF75AFA00F1300974
:1036700005F8019B069B049AEB1A9A4200F383809B
:10368000069B012AACBF9B18013398460023079381
:1036900051460122204600F00FFC3146824600F0E0
:1036A0005CFC002835DC02D119F0010F31D1454610
:1036B00015F8013C302B05F1FF32B2D11546F7E782
:1036C0003846FFE6012322E7029A002A04DB29D1CB
:1036D0001E9A3ABB089A2ABB002B7FF732AF51469D
:1036E0000122204600F0E8FB3146824600F035FC1E
:1036F000002805DC7FF425AF19F0010F3FF421AF5E
:10370000B9F1390F7FF41BAF392388F8003008F185
:103710000108454615F8013C392B05F1FF323AD036
:1037200001333FE0002B08F1010505DDB9F1390F48
:10373000EAD009F1010906E7069B049A05F8019C05
:10374000EB1A9342A846A3D0514600230A222046F2
:1037500000F045FA079B0799BB4282464FF00003F1
:103760004FF00A02204604D100F039FA07900746CC
:10377000B0E600F034FA002307900A2239462046CA
:1037800000F02DFAF3E7514600230A22204600F00C
:1037900026FA824666E7069B934205D1069A0BF10C
:1037A000010B312313703CE71546B3E7094BFFF7D4
:1037B000A5BA229B002B7FF47FAA074BFFF79EBA86
:1037C000049B002B3FF74DAF1E9B022B7FF749AFA9
:1037D00012E700BF0C4740000E4740008A892DE9E0
:1037E000F041054610070C465AD44B68002B05DC07
:1037F0000B6C002B02DC0020BDE8F081E66A002E95
:10380000F9D0002312F480522F682B6033D0606D02
:10381000A3895A0705D56368C01A636B0BB1236C83
:10382000C01A00230246E66A216A2846B047431CB4
:10383000A38906D129681D294BD82B4ACA40D6072F
:1038400047D500226260D9042269226004D5421C57
:1038500001D12B6803B96065616B2F600029CAD064
:1038600004F14403994202D0284600F04BFC0020AA
:103870006063BDE8F081216A01232846B047411CFE
:10388000C6D12B68002BC3D01D2B01D0162B01D124
:103890002F60B0E7A38943F04003A381BDE8F08126
:1038A0000F69002FA7D093070E6808BF4B690F6000
:1038B00018BF0023A6EB07088B60B8F1000F9ADD54
:1038C00043463A46216AA66A2846B047002807DCE4
:1038D000A38943F04003A3814FF0FF30BDE8F0819E
:1038E0000744A8EB0008E8E70100402038B50B6961
:1038F00005460C46DBB118B183690BB900F060F8DE
:103900000C4B9C4209D16C68B4F90C307BB1214658
:103910002846BDE83840FFF761BF074B9C4201D104
:10392000AC68F1E7054B9C4208BFEC68ECE700206F
:1039300038BD00BF3C4740005C4740001C4740008A
:10394000014900F0A9B800BFED384000002310B5D0
:10395000044603604360836081814366C2810361E2
:1039600043618361194608225C30FEF7D4FC054BA5
:103970006362054BA362054BE362054B246223633C
:1039800010BD00BF7D4240009F424000D742400032
:10399000FB42400070B54A1E682555430E4605F1AE
:1039A000740100F0FDFB044640B1002180E84200B4
:1039B0000C30A06005F16802FEF7ADFC204670BD3A
:1039C000836910B5044633BB8364C3640365124B3B
:1039D000124A1B688262984204BF0123836100F08F
:1039E0001FF86060204600F01BF8A060204600F041
:1039F00017F80022E06004216068FFF7A7FF0122AA
:103A00000921A068FFF7A2FF02221221E068FFF758
:103A10009DFF0123A36110BDF846400041394000DD
:103A2000F8B51C4B1E68B369074613B93046FFF75B
:103A3000C7FF4836B4687368013B03D5336833B1B8
:103A40003668F7E7B4F90C506DB16834F4E7042137
:103A50003846FFF79FFF30600028F1D10C233B6010
:103A600004462046F8BD4FF6FF73E3810123A3818E
:103A700065662560A560656025616561A5610822B0
:103A8000294604F15C00FEF746FC6563A563A56466
:103A9000E564E6E7F84640002DE9F84380468946AC
:103AA00000F14804002614B93046BDE8F883A56843
:103AB0006768013F01D52468F5E7AB89012B07D979
:103AC000B5F90E30013303D029464046C8470643B6
:103AD0006835EEE7044B1B68186A044B002808BFE2
:103AE0001846F030704700BF48004020AC0040202E
:103AF00070B50E46B1F90E10002990B014461D465F
:103B000007DA00232B60B3891A0610D44FF48063C0
:103B10000EE001AA00F018FC0028F2DB029A02F481
:103B20007042A2F500535A425A412A60EEE7402300
:103B30000020236010B070BD024B0146186800F0F1
:103B40002FBB00BF4800402070B5456A04460E46B2
:103B50003DB91020FFF7F0FF6062456085600560A9
:103B6000C560656AEB6883B1636ADB6853F8260059
:103B7000B8B9012101FA06F56A1D9200204600F04D
:103B8000B3FA60B1466085600EE021220421204630
:103B900000F0AAFA636AE860DB68002BE4D1002039
:103BA00070BD026843F8262000230361C36070BD26
:103BB00070B5446A06460D463CB91020FFF7BCFFBD
:103BC0007062446084600460C4603DB1736A6A6876
:103BD000DB6853F82210296043F8225070BD2DE9AC
:103BE000F0410D691F4606460C4601F1140E0023F4
:103BF000DEF8000081B202FB01710F0C000C02FB29
:103C0000007089B2013301EB00419D424FEA104739
:103C10004EF8041BECDCD7B1A3689D4212DB61684F
:103C200030460131FFF790FF2269023204F10C01A6
:103C3000804692000C30FEF763FB21463046FFF7CA
:103C4000B7FF444604EB850301355F6125612046DB
:103C5000BDE8F081020C12040346B2B9030410203F
:103C600013F07F4F04BF1B02083013F0704F04BFE6
:103C70001B01043013F0404F04BF9B000230002BA7
:103C800006DB5B0003D5013070470020E8E7202009
:103C90007047036813F0070201460BD0DA0723D4FC
:103CA000980749BF5B089B0801200B605CBF0B6055
:103CB0000220704798B2A8B91B0C102013F0FF0F18
:103CC00004BF1B0A08301A0704BF1B0904309A07F7
:103CD00004BF9B080230DA0702D45B0806D001302B
:103CE0000B6070471046E9E70020704720207047BE
:103CF00010B50C460121FFF727FF01224461026144
:103D000010BD2DE9F74F14460A6923699A42B8BFDE
:103D10000B468946BCBFA1461C46D9F81070D4F8A2
:103D200010A0D9F80830D9F8041007EB0A069E4213
:103D3000C8BF0131FFF708FF00F1140505EB860845
:103D40002B460022434516D304F1140209F1140155
:103D500002EB8A0301EB87070193019C944213460F
:103D60000CD8002E03DD58F8043D002B54D006611A
:103D700003B0BDE8F08F43F8042BE3E7B3F800A0ED
:103D80000432BAF1000F20D0AE4689464FF0000C45
:103D900059F8044BBEF800B0A3B20AFB03B34FEAD4
:103DA000144BDEF8004063444FEA144C0AFB0BC48A
:103DB00004EB13449BB243EA04434F454FEA144CCF
:103DC0004EF8043BE4D8CEF800C032F8029CB9F1BA
:103DD000000F1FD02B68AE468C464FF0000ABCF88F
:103DE0000040BEF802B009FB04B4A2449BB243EA0F
:103DF0000A434EF8043B5CF8043BBEF800401B0C41
:103E000009FB034303EB1A4367454FEA134AE6D81D
:103E1000CEF800300435A0E7013EA2E72DE9F843D3
:103E2000154612F0030206460F4607D0013A214C10
:103E3000002354F82220FFF7D2FE0746AD1035D0FC
:103E4000746A3CB91020FFF777FE706244608460AA
:103E50000460C460D6F82480D8F808404CB940F219
:103E600071213046FFF744FF0023C8F808000446DC
:103E700003604FF00008EB070AD53946224630466A
:103E8000FFF73FFF394681463046FFF791FE4F4628
:103E90006D100BD0206838B9224621463046FFF716
:103EA00030FF2060C0F800800446E4E73846BDE8F3
:103EB000F88300BF704840002DE9F0470C464FEAF8
:103EC000621A236949680AEB0309A3680746164684
:103ED00009F10105AB4231DB3846FFF735FE002220
:103EE000804600F11403114652452ADB20692AEA74
:103EF000EA7A04F1140116F01F0203EB8A0301EBC6
:103F0000800E22D0C2F1200C00200E689640304373
:103F100043F8040B51F8040B8E4520FA0CF0F4D84A
:103F2000186008B109F10205013D3846C8F8105083
:103F30002146FFF73DFE4046BDE8F08701315B00BA
:103F4000C8E743F822100132CEE7043B51F8042BB6
:103F500043F8042F8E45F9D8E6E703690A699B1AEE
:103F600030B50CD19200143014318418114454F837
:103F7000045D51F8042D954203D005D30123184662
:103F800030BDA042F3D3FAE74FF0FF33F7E72DE956
:103F9000F0470D460746114628461446FFF7DDFF59
:103FA000061E08D131463846FFF7CEFD01230361D6
:103FB0004661BDE8F087A4BF23462C4638466168B9
:103FC000A6BF1D4600260126FFF7BEFD2B69C66071
:103FD000266905F1140904F1140202EB860709EBC6
:103FE000830800F114054FF0000C52F804AB59F8A7
:103FF000044B1CFA8AF1A3B2C91A230CC3EB1A436F
:1040000003EB214389B24FEA234CC84541EA0343FD
:10401000964645F8043BE8D8BE4505D355F8043D1F
:104020008BB10661BDE8F0875EF8041B1CFA81F3D2
:104030001A1402EB11429BB243EA02434FEA224CAC
:1040400045F8043BE8E7013EE8E72DE9F3410121AB
:104050001C469046089E099DFFF776FDC4F31302A7
:10406000C4F30A54074634BB0192B8F1000F27D0BD
:1040700002A840F8088DFFF70CFE0099F0B1019AF4
:10408000C0F1200302FA03F30B43C2407B610192AB
:10409000019BBB61002B14BF022101213961C4B116
:1040A000A4F2334404443460C0F13500286038463B
:1040B00002B0BDE8F08142F48012D5E77961E7E70C
:1040C00001A8FFF7E6FD019B7B61012139612030EA
:1040D000E5E707EB8103A0F2324030601869FFF793
:1040E000B9FDC0EB4110E1E738B502FB01F4214610
:1040F00000F056F8054618B122460021FEF70BF9EC
:10410000284638BD38B50546002945D051F8043C4D
:104110000C1F002BB8BFE41800F04CF91F4A1368BD
:10412000104633B9636014602846BDE8384000F09B
:1041300042B9A3420CD921686218934204BF1A689D
:104140005B68636004BF521822600460ECE71346AA
:104150005A680AB1A242FAD919685818A0420BD17C
:1041600020680144581882421960DDD110685268F5
:104170005A6001441960D7E702D90C232B60D3E7BA
:10418000206821188A4204BF11685268626004BF27
:10419000091821605C60C7E738BD00BFB402402049
:1041A00070B5CD1C25F0030508350C2D38BF0C2546
:1041B000002D064601DBA94203D90C233360002001
:1041C00070BD00F0F7F8234A1468214691B9224CDB
:1041D00023681BB9304600F041F82060294630467C
:1041E00000F03CF8431C26D10C233360304600F02D
:1041F000E2F8E4E70B685B1B1AD40B2B0FD90B60BA
:10420000CD50CC18304600F0D6F804F10B00231D39
:1042100020F00700C31A1BD05A42E25070BD8C42F6
:104220000DBF63684B686360136018BF0C46E9E715
:104230000C464968CAE7C41C24F00304A04205D018
:10424000211A304600F00AF80130CDD02560D9E7B8
:1042500070BD00BFB4024020B802402038B5064C03
:104260000023054608462360FCF762FD431C02D18B
:10427000236803B12B6038BD6803402010B50C469D
:10428000B1F90E1000F098F80028ABBF636DA38958
:104290001B1823F48053ACBF6365A38110BD2DE9C7
:1042A000F0411F468B89DB0505460C46164605D5B1
:1042B00002230022B1F90E1000F058F8A389B4F9D6
:1042C0000E1023F48053A38132463B462846BDE8B6
:1042D000F04100F017B810B50C46B1F90E1000F01F
:1042E00045F8431CA38915BF606523F4805343F44C
:1042F0008053A38118BFA38110BDB1F90E1000F047
:1043000013B8000038B5074C054608461146002290
:1043100022601A46FDF7F8FA431C02D1236803B164
:104320002B6038BD6803402038B5064C0023054695
:1043300008462360FCF70EFD431C02D1236803B13D
:104340002B6038BD6803402038B5074C0023054674
:10435000084611462360FCF700FD431C02D1236888
:1043600003B12B6038BD00BF6803402038B5074C4F
:10437000054608461146002222601A46FCF7F2FC68
:10438000431C02D1236803B12B6038BD6803402071
:1043900082B001B901A942B14BB113780B60127818
:1043A000101C18BF012002B070471046FBE76FF0E9
:1043B0000100F8E77047704738B5074C05460846D6
:1043C0001146002222601A46FDF78CFA431C02D1E6
:1043D000236803B12B6038BD6803402049B1FF2A30
:1043E00085BF8A2303600A704FF0FF3098BF012019
:1043F00070470846704700004FEA410C7FEA6C5C4A
:1044000002D150EA013C0AD14FEA430C7FEA6C5CCE
:1044100002D152EA033C02D14FF0000070474FF046
:10442000010070472E2E2F68616C2F7372632F6806
:10443000616C5F6164635F73796E632E630000007B
:104440002E2E2F68616C2F7372632F68616C5F6909
:104450006F2E63002E2E2F68616C2F7372632F688E
:10446000616C5F70776D2E63000000002E2E2F6848
:10447000616C2F7372632F68616C5F74696D657214
:104480002E6300002E2E2F68616C2F7372632F68CD
:10449000616C5F75736172745F73796E632E630014
:1044A0002E2E2F68616C2F7574696C732F73726375
:1044B0002F7574696C735F6C6973742E63000000F0
:1044C000000000000031842F00000003FFFFFFFF09
:1044D000FFFF0000000000000000000000000000DE
:1044E0000C010000000000000000000000000000BF
:1044F00000000000000200000002000000020000B6
:1045000000020000000200000002000000020000A3
:104510000002000000020000000200000002000093
:1045200000020000010000000031842F00000003A1
:10453000FFFFFFFFFFFF0000000000000000000081
:10454000000000000C01000000000000000000005E
:104550000000000000000000000200000002000057
:104560000002000000020000000200000002000043
:104570000002000000020000000200000002000033
:1045800000020000000200002E2E2F68706C2F61C8
:104590006665632F68706C5F616665632E630000FB
:1045A00000000000240000000000000000000000E7
:1045B00000000000000000000000000003000000F8
:1045C00000000800000000000000000000000000E3
:1045D00000000000000000000A0B0C101100000099
:1045E0002E2E2F68706C2F70696F2F68706C5F7043
:1045F000696F5F6578742E63000000000000024060
:104600001F0000001900010001000000010000006F
:10461000FF00000000000000040000000000000097
:10462000000000000000000002000000844640007E
:10463000000000009C02402000C005403C0000003B
:10464000190001000100000001000000FF0000004F
:104650000000000004000000000000000000000056
:10466000000000000100000074464000000000004F
:1046700090024020000000000B010000E803000051
:1046800000020000000000000B010000E803000031
:1046900000020000020000000B010000E80300001F
:1046A000000200002E2E2F68706C2F70776D2F681F
:1046B000706C5F70776D2E63000000002E2E2F68E7
:1046C000706C2F74632F68706C5F74632E630000CE
:1046D00001000000C0081000F40001002E2E2F6819
:1046E000706C2F75736172742F68706C5F75736175
:1046F00072742E63000000004C004020494E4600BA
:10470000696E66004E414E006E616E003000496E6B
:1047100066696E697479004E614E00000000000009
:104720000000000000000000000000000000000089
:104730000000000000000000000000000000000079
:104740000000000000000000000000000000000069
:104750000000000000000000000000000000000059
:104760000000000000000000000000000000000049
:104770000000000000000000000000000000000039
:104780000080E03779C34143176E05B5B5B893464D
:10479000F5F93FE9034F384D321D30F94877825A19
:1047A0003CBF737FDD4F1575000000000000F03F37
:1047B00000000000000024400000000000005940FC
:1047C0000000000000408F40000000000088C3404F
:1047D00000000000006AF8400000000080842E41C4
:1047E00000000000D01263410000000084D7974110
:1047F0000000000065CDCD41000000205FA0024216
:10480000000000E876483742000000A2941A6D428A
:10481000000040E59C30A2420000901EC4BCD6427D
:1048200000003426F56B0C430080E03779C3414328
:1048300000A0D8855734764300C84E676DC1AB439E
:10484000003D9160E458E143408CB5781DAF1544BC
:1048500050EFE2D6E41A4B4492D54D06CFF0804497
:10486000F64AE1C7022DB544B49DD9794378EA44AC
:1048700005000000190000007D0000004300504FBB
:10488000534958002E0000202020202020202020E6
:1048900028282828282020202020202020202020F0
:1048A0002020202020202088101010101010101020
:1048B0001010101010101004040404040404040464
:1048C00004101010101010104141414141410101EC
:1048D00001010101010101010101010101010101C8
:1048E00001011010101010104242424242420202D6
:1048F0000202020202020202020202020202020298
:104900000202101010102000000000000000000043
:104910000000000000000000000000000000000097
:104920000000000000000000000000000000000087
:104930000000000000000000000000000000000077
:104940000000000000000000000000000000000067
:104950000000000000000000000000000000000057
:104960000000000000000000000000000000000047
:104970000000000000000000000000000000000037
:104980000000000000000000F8B500BFF8BC08BC43
:104990009E4670478D014000F8B500BFF8BC08BCCA
:0849A0009E46704769014000CA
:1049A80000C000401700000001C000000000000027
:1049B800000000009F240000000000003E490000A5
:1049C80000000000004005403200000001C0000067
:1049D80000000000000000009F240000000000000C
:1049E8003E490000000000004C004020000000008C
:1049F8003C4740005C4740001C4740000000000066
:104A0800000000000000000000000000000000009E
:104A1800000000000000000000000000000000008E
:104A2800000000000000000000000000000000007E
:104A3800000000000000000000000000000000006E
:104A4800000000000000000000000000430000001B
:104A5800000000000000000000000000000000004E
:104A680000000000000000000000000043000000FB
:104A7800000000000000000000000000000000002E
:104A880000000000000000000000000043000000DB
:104A9800000000000000000000000000000000000E
:104AA80000000000000000000000000043000000BB
:104AB80000000000000000000000000000000000EE
:104AC800000000000000000000000000430000009B
:104AD80000000000000000000000000000000000CE
:104AE800000000000000000000000000430000007B
:104AF80000000000000000000000000000000000AE
:104B0800000000000000000000000000430000005A
:104B1800000000000000000000000000000000008D
:104B2800000000000000000000000000DD4340001D
:104B3800914340000000000086484000844840003F
:104B48008548400085484000854840008548400029
:104B58008548400085484000854840008548400019
:104B680085484000FFFFFFFFFFFFFFFFFFFFFFFF3C
:104B7800FFFF0000010041534349490000000000C5
:104B8800000000000000000000000000000000001D
:104B980000000000000041534349490000000000A4
:104BA80000000000000000000000000000000000FD
:084BB8000000000000000000F5
:0400000500400000B7
:00000001FF
