S01400003459505F536F6674776172652E7372656389
S214400000F00E4020911840008D1840008D1840009A
S2144000108D1840008D1840008D18400000000000EC
S2144000200000000000000000000000008D184000A6
S2144000308D184000000000008D1840008D184000CC
S2144000408D1840008D1840008D1840008D184000D7
S2144000508D1840008D1840008D1840008D184000C7
S2144000608D184000000000002D2D4000212D40003E
S2144000708D1840008D1840008D1840008D184000A7
S214400080152D40008D1840008D1840008D184000FA
S2144000908D1840008D1840008D18400051334000A8
S2144000A08D1840008D1840008D1840008D18400077
S2144000B08D184000DD2840008D184000E12E40009D
S2144000C08D1840008D1840008D1840008D18400057
S2144000D08D184000C52A40008D1840008D184000FD
S2144000E0F12840008D1840008D1840008D184000C3
S2144000F08D1840008D1840008D1840008D18400027
S2144001008D1840008D184000653340008D18400023
S2144001108D184000000000000000000000000000B5
S2144001208D1840008D184000C13640008D184000A4
S214400130F52E40008D1840008D1840008D18400068
S2144001408D1840008D1840008D1840008D184000D6
S2144001508D1840008D1840008D1840008D184000C6
S2144001608D1840008D18400010B5054C237833B9E3
S214400170044B13B10448AFF300800123237010BD35
S2144001802002402000000000608C40000C4B43B131
S2144001900C480D4910B5AFF300800C48036823B9EE
S2144001A010BD0A48036833B97047094B002BF7D097
S2144001B0BDE810401847064B002BF5D0184700BF47
S2144001C000000000608C400024024020608C40000C
S2144001D00000000008B5024B9847024B984708BD00
S2144001E0691D40004D3A400070B582B0114B022266
S2144001F003211148114CA047114B012203211148FD
S214400200A047114B012203211048A0470024104E5E
S214400210009623460F4A10491048114DA8470096AD
S2144002202346104A10491148A847114B1C6002B09B
S21440023070BD00BF540540207005402085504000EA
S214400240340640200C06402018064020F405402086
S21440025065CF8B383B0107412497FF3BD4054020B0
S214400260650B4000F1F40641C3642A3C94054020E7
S214400270F0054020000000002DE9F0412DED028BF6
S2144002800F46904607EE900A77EEA77A17EE900A4A
S214400290274B984720A3D3E90023264CA047264B5C
S2144002A0984707EE900AB3EE0E7AF4EEC77AF1EE70
S2144002B010FA01DDF0EE477A27EEA78A1C4E18EEBC
S2144002C0100AB04700221D4B1D4CA0471D4C02464D
S2144002D00B4613A1D1E90001A0471B4DA847024693
S2144002E00B4611A1D1E90001A047134CA04707EEE9
S2144002F0900AC8F8000067EEA77A78EE677A17EE9D
S214400300900AB047A847A0473860BDEC028BBDE8CE
S214400310F08100BFAFF300807B14AE47E17AD83F50
S214400320000000005065F0407A36AB3E57327040D1
S2144003305553400051564000AD5940000000E03F44
S214400340FD53400095504000893B400007EE100AA0
S21440035007EE901A06EE903AB1EE676A36EE476AB6
S21440036076EEC75A85EEA67A76EEE75AC5EEA67AB8
S21440037036EEC66AC6EE265AB4EEE77AF1EE10FAC4
S21440038004D5B4EEE57AF1EE10FA23D4F4EEE57A2D
S214400390F1EE10FA21D5B0EE676A37EE467AF7EE00
S2144003A0006A36EEC77A82ED007A77EEC67A76EE47
S2144003B0E77AC2ED017A75EEC65A76EEE56AC2ED88
S2144003C0026A094A13680133136043F6982293423F
S2144003D006D07047B0EE476ADFE7B0EE656ADCE706
S2144003E00022014B1A60F4E71406402070B52DED4C
S2144003F0028B0546D0ED007A9FED128A67EE887A2A
S214400400114EFDEEE77A17EE902A002130460F4C4B
S214400410A047D5ED017A67EE887AFDEEE77A17EECB
S214400420902A02213046A047D5ED027A67EE887AB8
S214400430FDEEE77A17EE902A00210548A047BDEC6E
S214400440028B70BD00C07944FC0640203518400041
S214400450A0084020000000002DE9F04F2DED048B51
S21440046083B0044692469B46674E684D3068A84720
S21440047061A3D3E90023664FB847664B9847306080
S2144004802046A8475EA3D3E90023634EB047804684
S2144004908946624B1868A84706460F4602460B46F2
S2144004A0404649465E4DA84748B155A3D3E9002388
S2144004B030463946564CA047564B98470446204649
S2144004C0524B98474EA3D3E90023514DA8470246C6
S2144004D00B4630463946524DA84748B148A3D3E963
S2144004E00023304639464C4CA0474A4B9847044672
S2144004F04A4B1C604B4B6A4601A920464A4CA047D3
S214400500119B109A59465046484CA047484B186095
S2144005103E4B984706460F46464B98473D4CA047AD
S21440052008EE100A30463946434B9847A04709EE36
S214400530100A424B93ED007AD3ED016ADFED407A24
S21440054067EE277A9FED3F6A66EE866A77EEA67A72
S21440055029EE076A68EE276A27EE487A69EE277A18
S21440056077EE278A76EE267A17EE902A0099364856
S214400570364DA847364C206018EE902A01993548EB
S214400580A84707EE100A344B1860D4ED006A69EEAF
S214400590267A28EE076A77EEC67A28EE268A29EE6D
S2144005A0079A38EE098ABEEE007A27EE877ADFEDA4
S2144005B02B6A28EE268A2A4C1A4B224637EE087AB1
S2144005C017EE101A17EE900A264DA8472046264BDF
S2144005D09847264B9847264B1860264A136801339F
S2144005E01360012B04D003B0BDEC048BBDE8F08F44
S2144005F0214A204B1A60F6E7A5E2ECC367D8553F80
S214400600FCA9F1D24D62503F0006402055534000B1
S21440061099504000AD59400095504000F0054020AC
S2144006201D5940000000A04179024000290B4000BF
S214400630B0054020013B40006D3A40003406402063
S2144006403ACD133F3ACD933FD40540207D0B400032
S21440065028064020940540202C064020D7B35D3F16
S214400660180640204D034000ED034000551840005A
S214400670FC0540203C02402068C5FFFF70B50C4E8C
S2144006800C4D33462A4602210B480C4CA0473346B5
S2144006902A4602210A48A04733462A4602210948EC
S2144006A0A0470948094B98470022094B1A6070BD7D
S2144006B000606A460080BB44400640201508400063
S2144006C0B40540207805402054834000F164400043
S2144006D0E806402008B50022074B1A60074A08493A
S2144006E00848094B98470948094B9847094B98478B
S2144006F0094B186008BD00BF30064020500540201A
S214400700D005402004064020F51140004C0540200E
S214400710350F400055184000BC064020F0B583B069
S21440072006460F460068274B984701462648274D01
S214400730A847274C20607068264B984701462648B5
S214400740A8476060B068254B984701462448A847AC
S214400750A0603846234B9847234B18604FF07F5293
S214400760224B1A60224BD3ED007A9FED227A77EE29
S214400770877AC3ED007A204A13680133136042F249
S2144007801072934207D01D4A1368013313600A2B38
S21440079005DC03B0F0BD0022174B1A60F3E70A22CF
S2144007A0164B1A60164B1B68164A1268164909689B
S2144007B001911649009101464FF07F50144CA047D6
S2144007C0E7E700BF690C4000400640203109400082
S2144007D034064020B90C4000B4054020090D4000C6
S2144007E0780540201D0C40009005402030064020F3
S2144007F0E806402000000000F00640205806402052
S21440080050054020D00540204C054020040640209E
S214400810590440002DE9F0412DED028B04460E466A
S21440082008EE102A08EE903A4F1CBD002846DFF826
S214400830F480C047A0602846C047E06026606760F6
S214400840012E4BD02368012B44DD0223236028462B
S214400850344FB847064620612846B8476061DFED0A
S214400860327A28EE278A88EE887A67EE077ADFEDB6
S2144008702F5A67EE255A77EEA56AB7EE005A76EEFF
S214400880856AC5EE264AC6ED004A2369B0EE006A80
S21440089086EE264A83ED014A2369C3ED024A636920
S2144008A000221A60636977EE074A27EE247A36EE0E
S2144008B0477AB1EE477A87EE266A83ED016A636926
S2144008C077EEE57A77EE857AF1EE677A87EEA67A66
S2144008D083ED027ABDEC028BBDE8F0812846C04726
S2144008E0064620612846C04760619FED0F7A28EE95
S2144008F0077AC8EE877AB7EE007A77EE876A87EE91
S214400900266A86ED006A236983ED016A63690022E0
S2144009101A60636977EEC77A87EEA67A83ED017A26
S21440092090E700BFA15A4000DB0F49408104B53F25
S214400930836819600022DFED207A19E08168930011
S214400940194491ED007A01691944D1ED006A27EE09
S214400950267A77EE877AC168194491ED007A416924
S2144009600B44D3ED006A27EE267A77EE877A01327B
S21440097003689A42E2DDC368C3ED007A4268013AF2
S214400980002A16DD30B48468910065186FF0404345
S21440099013449B001C4424682C60C46821442344B0
S2144009A01B680B60013A002AEDDC17EE900A30BC5B
S2144009B0704717EE900A70470000000000000000E5
S2144009C02DE9F84F2DED068BD2ED008AF5EE408AE4
S2144009D0F1EE10FA00F08480D2ED019AF5EE409ADE
S2144009E0F1EE10FA00F0848009EE101A444B984756
S2144009F0DFF830910022434BC847434D3EA3D3E92E
S214400A000023A847414EB0470AEE100A404CC9EEB4
S214400A10287A17EE900AA04737A3D3E90023A847C1
S214400A20B04708EE100A19EE900AA047394F024622
S214400A300B4600203349B84782468B4618EE900A4C
S214400A40A04702460B4600202E49B84702460B46B2
S214400A5050465946C8478046894678EEA97A17EEEA
S214400A60900AA04702460B4640464946B84780464D
S214400A70894619EE100AA04782468B4602460B4628
S214400A8040464946A84702460B4650465946A84760
S214400A9019A3D3E90023A847B0473AEE088A07EEE1
S214400AA0900A37EE888A18EE100AA04706460F4688
S214400AB01AEE100AA04710A3D3E90023164CA0470D
S214400AC004460D4602460B4630463946134EB0475E
S214400AD040B1204629460D4B984708EE100A01E0E3
S214400AE09FED0F8A18EE100ABDEC068BBDE8F88F16
S214400AF09FED0B8AF6E700BF40AF2D3852C1F03F5E
S214400B00315340000000F03FFD534000AD594000D7
S214400B105553400051564000995040001D594000E2
S214400B20000000009550400008B52DED028B08EE01
S214400B30103A084B9847084B1860DFED087A68EE85
S214400B40277A074BC3ED007A17EE900ABDEC028B6E
S214400B5008BD00BFC1094000240640200000964260
S214400B60CC05402083604260016000230361C3607F
S214400B7001230376009B43617047000007EE901AFE
S214400B8007EE102A77EEC76A90ED007A26EE877A4F
S214400B90D0ED017A90ED056A26EE866A67EE867A93
S214400BA090ED046A77EE867AC0ED047AB3EE046A76
S214400BB0F4EEC67AF1EE10FA01DD0B4B036190EDD0
S214400BC0046AFBEE047AB4EEE76AF1EE10FA01D559
S214400BD0064B0361C0ED036AD0ED047A77EE277AC0
S214400BE017EE900A704700BF0000A0400000A0C06B
S214400BF00023054A1360054A1360054A1360054BF7
S214400C001860054B18607047B0064020C406402068
S214400C1084064020B80640209806402000207047B2
S214400C2010B507EE900AB8EE677ADFED0B7A67EEFE
S214400C30277A17EE900A094B984705A3D3E9002375
S214400C40074CA047074B984710BD00BFAFF3008046
S214400C506666666666660A40000080395553400000
S214400C60FD534000AD59400010B50D4B98470D4B15
S214400C70D3ED007A07EE100A77EE677A17EE900A01
S214400C80094B984704A3D3E90023084CA047084BD8
S214400C90984710BDAFF300807B14AE47E17A743FAF
S214400CA0210C4000B00640205553400051564000AD
S214400CB0AD5940000000000010B50D4B98470D4B55
S214400CC0D3ED007A07EE100A77EE677A17EE900AB1
S214400CD0094B984704A3D3E90023084CA047084B88
S214400CE0984710BDAFF300807B14AE47E17A743F5F
S214400CF0210C4000C4064020555340005156400049
S214400D00AD5940000000000010B50D4B98470D4B04
S214400D10D3ED007A07EE100A77EE677A17EE900A60
S214400D20094B984704A3D3E90023084CA047084B37
S214400D30984710BDAFF300807B14AE47E17A743F0E
S214400D40210C400084064020555340005156400038
S214400D50AD59400008B5564B9B6913F4000F03D1BC
S214400D604FF40002524B1A61514B9B6913F0807F3F
S214400D7003D14FF080724E4B1A614D4BD3F8083179
S214400D8013F4802F04D14FF48022494BC3F800213E
S214400D90474BD3F8083113F4002F04D14FF4002208
S214400DA0434BC3F8002143492D20434B9847434BC0
S214400DB04FF400621A60402283F80B234FF400027F
S214400DC0C3F88020BFF34F8FBFF36F8FC3F88021E7
S214400DD04FF08072C3F88020BFF34F8FBFF36F8F02
S214400DE0C3F880214FF00072C3F88020BFF34F8FC6
S214400DF0BFF36F8FC3F880214FF08062C3F8802026
S214400E00BFF34F8FBFF36F8FC3F880214FF0006260
S214400E10C3F88020BFF34F8FBFF36F8FC3F8802196
S214400E204FF08052C3F88020BFF34F8FBFF36F8FD1
S214400E30C3F880214FF40042C3F88420BFF34F8F9D
S214400E40BFF36F8FC3F884214FF48032C3F88420F9
S214400E50BFF34F8FBFF36F8FC3F884214FF4003238
S214400E60C3F88420BFF34F8FBFF36F8FC3F884213E
S214400E704FF48022C3F88420BFF34F8FBFF36F8FA9
S214400E80C3F884214FF40022C3F88420BFF34F8F69
S214400E90BFF36F8FC3F884214FF48012C3F88420C9
S214400EA0BFF34F8FBFF36F8FC3F8842108BD00BFD9
S214400EB000060E40DD0E40006121400000E100E0EB
S214400EC0054A1369106D034402F5902210690344E5
S214400ED0106D1844704700BF00C0004038B5114B35
S214400EE09847114B1B68C31A03F58053B3F5005F50
S214400EF007D90E4B1B683BB90D4A106001330B4AAD
S214400F001360094B186038BD094A1168421AC2F38B
S214400F100D02951F43F6F374A542EFD80A440449E0
S214400F200A60EBE7C10E4000C80640208C06402011
S214400F309C06402010B504460A4B98470A4B1B684F
S214400F40C01AC0F30D0307EE903AF8EEE77A9FED2D
S214400F50077A67EE877A9FED067A67EE877AC4ED62
S214400F60007A10BDC10E4000CC064020DB0FC940C1
S214400F700000803808B5024B9847024B186008BD01
S214400F80C10E4000CC06402010B50446024B9847A0
S214400F902044024B186010BDC10E4000CC064020D5
S214400FA038B51D4BDB6B13F0200F1FD11A4BDB6B94
S214400FB013F0200F1ED00122184B1A70184B986859
S214400FC0184B1B681B1A002B18DD0122002A18DC60
S214400FD007EE903AF8EEE77ADFED136A87EEA67AE8
S214400FE0124B83ED007A0F4B186038BD9220104BA1
S214400FF09847DBE724200E4B9847DCE703F18073E5
S214401000E3E7541E094901EB84052D6801EB820293
S21440101015602246DAE700BF000E0E4088064020E4
S21440102010E000E0A806402000009643A0064020BE
S214401030890F400038B51C4BDB6B13F0040F1FD1F3
S214401040194BDB6B13F0040F1DD00122174B1A709F
S214401050174B9868174B1B681B1A002B17DD01228D
S214401060002A17DC07EE903AF8EEE77ADFED126AD0
S21440107087EEA67A114B83ED007A0E4B186038BD8A
S2144010800F4B9847DCE76D200E4B9847DDE703F1A2
S2144010908073E4E7541E094901EB84052D6801EB93
S2144010A0820215602246DBE7000E0E40880640208E
S2144010B010E000E0A806402000009643A00640202E
S2144010C0750F4000890F400038B51D4BDB6B13F49D
S2144010D0002F1FD01A4BDB6B13F4002F1ED10122BA
S2144010E0184B1A70184B9868184B1B681B1A002B25
S2144010F018DD0122002A18DC07EE903AF8EEE77A6F
S214401100DFED136A87EEA67A124B83ED007A0F4B1B
S214401110186038BDB620104B9847DBE749200E4B89
S2144011209847DCE703F18073E3E7541E094901EB77
S21440113084052D6801EB820215602246DAE700BF7F
S21440114000140E408806402010E000E0A80640202C
S21440115000009643A0064020890F400010B51A496B
S21440116073201A4CA0471A490220A0471949052067
S214401170A047194B4FF480621A60202283F80A2356
S2144011804FF48031196083F810230022134B1A6005
S214401190134B9A606FF07F415960124B042159609F
S2144011A00321D960022199600121996106211961C4
S2144011B0052159614FF0FF311960D9610A4B1A7009
S2144011C00A480B4B984710BDC910400061214000AB
S2144011D035104000A10F400000E100E0A806402086
S2144011E010E000E06006402088064020548740001B
S2144011F0F164400070B500241D4B1C701D4B9C686C
S2144012001D4B1B681B1B002B0BDD07EE903AF8EEC0
S214401210E77ADFED1A6A87EEA67A82ED007A002337
S21440122009E003F18073F0E79D004619144C2C4406
S214401230246834600133012BF6DD124BDD6BC5F3B9
S214401240C045A3F5C063DC6BC4F38004DB6BC3F31B
S214401250401304EB450403EB44030B4C54F8233093
S2144012600B60034B1B7803B970BDFFF7C3FFFBE76A
S2144012708806402010E000E0A80640200000964384
S214401280A006402000140E40600640200122014B7C
S2144012901A7070478006402008B506490020064B65
S2144012A0984718210020054B984701210020044B01
S2144012B0984708BD4002402005364000253640008D
S2144012C03D36400038B5414ABFF34F8F402304E0D7
S2144012D03F49C1F85C222032203B002BF8DCBFF3AC
S2144012E04F8FBFF36F8F01223A4B1A7000230AE0EC
S2144012F092B239494A60354991F8402042F002029C
S21440130081F840200133052B15DC304A52F8232063
S21440131002F07061B1F1007FEAD0B1F1006FF1D117
S21440132092B22D490A60294991F8402042F00102C4
S21440133081F84020E6E7294B1B7853BB284B98475B
S214401340284B1860284B1B68002B1CDD013B264AA7
S2144013501360214D2868254CA047254BD3ED007AD5
S21440136007EE100A77EE877AC3ED007A6868A047E2
S214401370204BD3ED007A07EE100A77EE877AC3ED5E
S214401380007A1D4B9847114B93F840300F2B03D0F3
S21440139038BD194B9847D1E7184B1B78002BF7D030
S2144013A0174A13680133136042F6E062934209D04D
S2144013B00022064B83F84020124B19680648124B11
S2144013C09847E5E700220E4B1A60F1E740024020BE
S2144013D000ED00E0B4064020D0064020F406402051
S2144013E055184000AC064020B8064020210C40006E
S2144013F0B0064020C4064020991240008006402097
S214401400F8064020EC0640201D07400008B5064977
S2144014100120064B984710210120054B9847012193
S2144014200846044B984708BDA002402005364000B9
S214401430253640003D36400008B53A4ABFF34F8F48
S214401440402304E03849C1F85C222032203B002B80
S214401450F8DCBFF34F8FBFF36F8F0122334B1A7008
S21440146000230AE092B232498A60324991F840201D
S21440147042F0040281F840200133032B13DC2D4A4E
S21440148002EB8302126E02F07061B1F1807FE9D008
S214401490B1F1C06FF0D1274991F8402042F00802E0
S2144014A081F84020E8E7244B1B78EBB9234B98475C
S2144014B0234B1860234B1B68002B0FDD013B214A52
S2144014C013601B4B9868204B9847204BD3ED007A0F
S2144014D007EE100A77EE877AC3ED007A154B93F83D
S2144014E040300F2B03D008BD194B9847DEE7194B09
S2144014F01B78002BF7D0184A13680133136042F666
S214401500E062934209D000220A4B83F84020134BF6
S21440151019680748124B9847E5E700220E4B1A60B9
S214401520F1E700BFA002402000ED00E08106402029
S214401530D006402040024020E0064020551840009B
S214401540E406402098064020210C400084064020B7
S2144015500D14400080064020F8064020EC0640204F
S2144015601D07400008B50122024B1A70024B9847EF
S21440157008BD00BFF40640209912400008B501227D
S214401580024B1A70024B984708BD00BFE006402049
S2144015900D1440000022014B1A707047F40640209C
S2144015A00022014B1A707047E00640202DE9F843B0
S2144015B02A490020DFF8D890C847DFF8D88041464F
S2144015C00020274FB84718210020264DA847002165
S2144015D00C460846244EB0472368244A1A60012227
S2144015E021462046224CA04722490120C84708F100
S2144015F060010120B84710210120A847012100259D
S2144016002846B0472B681C4A1A60012229461046D5
S214401610A0471A4B4FF080625A60802283F83A23E4
S2144016204FF00052C3F88020BFF34F8FBFF36F8F49
S214401630C3F880214FF48072C3F88420BFF34F8FE5
S214401640BFF36F8FC3F884210D4B98470D4B9847D7
S2144016500D4A15700D4A1570BDE8F88320C003404A
S214401660053640002536400055364000C51240003D
S21440167069364000204006403914400000E100E052
S21440168095154000A1154000B40640208106402034
S214401690153640004002402070B5114D08212846BE
S2144016A0104CA04702212846A0470F4E0121304645
S2144016B0A04706213046A04705213046A0470621D0
S2144016C02846A0470A212846A04700213046A04782
S2144016D005212846A04700212846A04770BD00BFE8
S2144016E0E407402059204000BC08402008B5024B83
S2144016F09847024B984708BDD50640004118400021
S21440170008B52E4BD3F8002242F48032C3F80022AC
S214401710D3F8182242F00A02C3F81822D3F8182247
S21440172042F42022C3F81822D3F8402242F48032F2
S214401730C3F84022D3F8582242F00A02C3F858228F
S214401740D3F8582242F42022C3F858221C4AD2F832
S214401750001241F48031C2F80012D2F8181241F05B
S2144017600A01C2F81812D2F8181241F42021C2F821
S2144017701812D3F8301141F00101C3F83011D2F8F5
S214401780301141F00101C2F8301101221A610D4AB0
S21440179000210D480D4B98470D4B4FF000421A6004
S2144017A0602283F81F234FF08052C3F88420BFF393
S2144017B04F8FBFF36F8FC3F8842108BD00000240EF
S2144017C000C00540ED164000FC06402025234000A2
S2144017D000E100E070B5124AD2F8383143F0010318
S2144017E0C2F8383102F57032D2F8383143F001038E
S2144017F0C2F838310B4C20460B4EB0470B4D2846AE
S214401800B04740F2E7324FF47A712046084CA04782
S21440181040F2E7324FF47A712846A04770BD00BFC9
S21440182000000240FC064020E9224000A00840207C
S2144018306D234000036903EB4111C1F8082270474D
S214401840024B9A68024B1A60704700BF10E000E0F7
S2144018506C0540200A4B9A680A4B1B689B1A002B63
S2144018600ADD07EE903AF8EEE77A9FED077AC7EE84
S214401870876A16EE900A704703F18073F1E700BF5F
S21440188010E000E06C05402000009643FEE70000B4
S21440189008B5104B104A9A4209D00E4B0E4A03E048
S2144018A011681960043304320C498B42F8D30C4B50
S2144018B002E000221A6004330A4A9342F9D30A4AE5
S2144018C00A4B23F07F039360094B9847094B984790
S2144018D0FEE700BF00004020608C40001C02402015
S2144018E020024020EC08402000ED00E000004000D0
S2144018F0595A40002D374000F0B585B0204BD3F8FC
S214401900083113F4807F04D14FF480721C4BC3F827
S21440191000211C4D1C4C002602961C4B01930423B0
S214401920009306232A461A4920461A4FB8471023E2
S21440193005F1080231462046174EB047102305F100
S214401940180201212046B047102305F12802052140
S2144019502046B047102305F1380206212046B047FE
S21440196002220E4B1A6003F500734FF400521A60C1
S2144019704FF080421A604FF000421A6005B0F0BD4A
S21440198000060E40E0024020BC0840205C07402095
S21440199000400640F91E4000A11F400000100E40C7
S2144019A02DE9F04184B02A4B9B6913F0005F03D1C8
S2144019B04FF00052264B1A61264D274C00260296C1
S2144019C0264B0193062700970A2305F1480224492F
S2144019D02046DFF89C80C047102305F1540231466C
S2144019E02046204EB047102305F1640202212046CF
S2144019F0B047102305F1740205212046B047102356
S214401A0005F1840239462046B047102305F194027A
S214401A1008212046B047102305F1A4020A2120469B
S214401A20B0474FF08042104B1A60A3F580630822FF
S214401A301A6004221A600D4A4FF4003111604FF4C8
S214401A400021116001221A6004B0BDE8F08100BF99
S214401A5000060E40E0024020E407402010084020E8
S214401A6000C00340A11F400000140E40000E0E4070
S214401A70F91E4000044B4FF400225A611A66C3F820
S214401A8090201A60704700BF00140E40044B4FF47D
S214401A9000525A611A66C3F890201A60704700BF19
S214401AA000100E40064B04225A611A66C3F8902076
S214401AB01A6020225A611A66C3F890201A6070474E
S214401AC0000E0E40164B1A6F42F400021A675A6F09
S214401AD022F400025A674FF400025A601A6F42F02E
S214401AE000721A675A6F22F000725A674FF00072FF
S214401AF05A601A6F22F002021A675A6F22F00202E8
S214401B005A6702225A601A6F22F080421A675A6F4A
S214401B1022F080425A674FF080425A60704700BFBA
S214401B20000E0E40044B9B69002B03DB4FF0004237
S214401B30014B1A61704700BF00060E4008B5064BC1
S214401B409847064B9847064B98470246054906482D
S214401B50064B984708BD00BF251B4000C51A4000ED
S214401B607531400000000240FC064020A52240009F
S214401B700C4B1A6F22F480521A675A6F42F4805206
S214401B805A674FF480525A6003F5C0631A6F42F0AA
S214401B9001021A675A6F22F001025A6701225A6000
S214401BA0704700BF000E0E40054BD3F8083113F0C7
S214401BB0805F04D14FF08052014BC3F8002170473C
S214401BC000060E4008B5064B9847064B9847064B0E
S214401BD09847024605490648064B984708BD00BF49
S214401BE0A91B4000711B40007531400000C00540F5
S214401BF0A0084020A5224000064B1A6F42F0005233
S214401C001A675A6F22F000525A674FF000525A60D5
S214401C10704700BF000E0E4008B5094B9B6913F491
S214401C20000F03D14FF40002054B1A61054B98474D
S214401C30054B9847024605490548064B984708BD58
S214401C4000060E40F91B40004B33400000C00040E9
S214401C50C807402055244000064B1A6F22F0807279
S214401C601A675A6F42F080725A674FF080725A6015
S214401C70704700BF00140E4008B50A4BD3F8083131
S214401C8013F4802F04D14FF48022064BC3F8002172
S214401C90054B9847054B9847024605490548064B6D
S214401CA0984708BD00060E40591C40004B33400084
S214401CB000400540180740205524400008B502481B
S214401CC0024B984708BD00BF10E000E0B52040003A
S214401CD00F4B1A6F22F400121A675A6F22F4001242
S214401CE05A674FF400125A600A4AD2F8143143F049
S214401CF01003C2F81431084B1A6F42F010021A67EC
S214401D005A6F42F010025A6710225A60704700BF5E
S214401D10000E0E400080084000100E40044B9B69A9
S214401D2013F4804F03D14FF48042014B1A61704741
S214401D3000060E4008B5064B9847064B9847064B9C
S214401D409847024605490648064B984708BD00BFD7
S214401D501D1D4000D11C40008D35400000800240D3
S214401D60BC0740209D25400008B5374B9847374B69
S214401D709B6913F4806F03D14FF48062334B1A6132
S214401D80324B9B6913F4006F03D14FF400622F4B24
S214401D901A612E4B9B6913F4805F03D14FF4805237
S214401DA02A4B1A61294B9B6913F4803F03D14FF4A9
S214401DB08032264B1A61264A536843F400435360E8
S214401DC0244B4FF400625A61C3F890205A661A605A
S214401DD04FF480215963196119604FF080525A635D
S214401DE01A611A6003F580634FF480705863186177
S214401DF018604FF4007058631861186003F500735C
S214401E005963196119604FF000615963196119608F
S214401E105A631A611A60104B9847104B9847104BFC
S214401E209847104B9847104B9847104B9847104B85
S214401E309847104B9847104B9847104B9847104B75
S214401E409847104B984708BDDD29400000060E40D5
S214401E5050180E40000E0E40A1194000F9184000E0
S214401E60751A40008D1A4000A51A40003D1B4000E0
S214401E70C51B4000191C4000791C4000BD1C40009A
S214401E80351D40002D21400008B5836903B19847B1
S214401E9008BD08B5C36903B1984708BD2DE9F047AA
S214401EA0054688469146036A5B5C876A03EB4303B4
S214401EB0DE00BC1904F1040AD1B250460C4B9847D8
S214401EC028460C4B9847012807D94FEA1921504617
S214401ED0074B9847A38A0133A382A38A0133A38280
S214401EE0BB5913B1414628469847BDE8F08700BF26
S214401EF0B5264000C52940002DE9F84F16461C4639
S214401F009DF828800B9D07468946002818BF002963
S214401F100BD0131C18BF0123B8F1000F17D0B3B174
S214401F200DB1012002E0002000E00020DFF868B09C
S214401F303F225946DFF864A0D047601C40225946ED
S214401F408045CCBF00200120D047002305E000207C
S214401F50ECE7FF22F2540133DBB2A342F9D93E62EA
S214401F6087F8244087F82580BD6249463846064BA8
S214401F709847034628B9054ABA60054A3A60054A72
S214401F807A601846BDE8F88F052940009D1E40003F
S214401F90891E4000931E400060834000112640008A
S214401FA02DE9F8430E461F4605469046002818BFC2
S214401FB0002A02D0C3B9002000E00020DFF8949049
S214401FC066224946214CA04795F824006722494698
S214401FD0B04234BF00200120A047296A8B5DFF2B0A
S214401FE02BD10024234603E00120E7E70133DBB290
S214401FF095F82420934205D8CA5CFF2AF6D00134CF
S214402000E4B2F3E795F825309C4219D8A86A04EB69
S21440201044034FEAC30948443A46414604300C4B11
S2144020209847024678B92B6A9C55AB6A9944002378
S214402030A9F814301046BDE8F8836FF00C02F9E7B3
S2144020406FF01B02F6E76FF00C02F3E71126400034
S2144020507126400060834000F8B50D460B4F04469D
S21440206083223946003018BF0120094EB04794F805
S214402070240084223946A84234BF00200120B047BD
S21440208029462046034B98470020F8BD6083400011
S21440209011264000B9294000EFF31083036072B662
S2144020A0BFF35F8F7047BFF35F8F036883F310887B
S2144020B07047000008B5024B1860024B984708BDB1
S2144020C0940340208D31400010B5044B1C68044BEF
S2144020D0984701462046034B984710BD940340203E
S2144020E0C92940009931400038B50425002407E04E
S2144020F00D4A52F83330B3B1984738BD013AD5B29D
S214402100AC4210D82B195B10DAB2032A0BD8134610
S214402110054901EBC20149688142E9D08142EDD2CE
S2144021200132D4B2ECE738BD9803402008B500230E
S2144021300AE0084A02EBC3014FF0FF304860002136
S21440214042F8331001339BB2032BF2D90248034BBB
S214402150984708BD98034020E9204000392D4000AC
S214402160F0B583B005460023032B0ED818462E4AFA
S21440217002EBC3025268AA4202D00133DBB2F3E755
S214402180294B43F83010012700E0002759B1002FB3
S2144021903DD10026032E13D8234B53F8363043B197
S2144021A00136F6B2F6E7002F38D028461F4B984740
S2144021B032E01D4B43F8361003EBC6035D60012743
S2144021C0002301E00133DBB2032B98BF032E1ED859
S2144021D0B646154A02EBC601486802EBC30252688F
S2144021E09042EFD2B2F1FF3FECD00F4C04EBC3026B
S2144021F092E803008DE8030004EBC60494E803006D
S21440220082E803009DE8030084E80300DAE747B16C
S21440221001212846054B984703B0F0BD6FF00C00EF
S214402220FAE76FF00C00F7E798034020692D40006E
S21440223070B5164604460D46002818BF002914BF40
S2144022400120002034220449044B98472368324634
S21440225029462046984770BD7C83400011264000A2
S21440226070B5164604460D46002818BF002914BF10
S214402270012000203D220449044B984763683246BB
S21440228029462046984770BD7C8340001126400072
S21440229008B5436903B1984708BD08B5836903B1DB
S2144022A0984708BD38B504460D46002818BF002993
S2144022B014BF0120002033220649074B9847294681
S2144022C02046064B9847064B2360064B636000202B
S2144022D038BD00BF9083400011264000092F4000C3
S2144022E0912240009B22400010B504464A220949EC
S2144022F0003018BF0120084B98472046074B9847A8
S21440230020B92046064B9847002010BD6FF01000BD
S21440231010BD00BF9083400011264000E5304000CD
S2144023204130400070B50D4621B1012915D06FF0FF
S2144023300C0070BD426116460446722208490030C1
S21440234018BF0120074B9847321C18BF0122294668
S2144023502046054B9847002070BD8261EBE700BFE2
S21440236090834000112640001531400070B50D4660
S214402370164604467C220649003018BF0120054B0D
S2144023809847324629462046034B9847002070BD62
S214402390908340001126400085304000F8B507681D
S2144023A017B13C4600260BE00E4B9847F8BDA56893
S2144023B02B449B1A01338D68AB4209D226462468CB
S2144023C034B163689342F2D8A5689B1A2B44F2E76F
S2144023D0BC4203D03046044B9847F8BD014B984763
S2144023E0F8BD00BF2D26400059264000F8B5446988
S2144023F0066901360661037E13F0010F05D1037EA0
S21440240013F0020F01D1054609E0037E43F00203B4
S2144024100376F8BD6F69E368204698473C469CB112
S2144024206368F31AA26893420ED305F11407384640
S214402430064B9847237C012BECD1666032462146FA
S2144024403846034B9847E5E7F8BD00BF6126400095
S2144024509D23400038B504460D46002818BF002985
S21440246014BF012000203B220549064B98472946C9
S2144024702046054B984700202061044B236038BD1A
S214402480A88340001126400051324000ED23400012
S21440249010B5044653220949003018BF0120084BA6
S2144024A098472046074B984720B92046064B984702
S2144024B0002010BD6FF0100010BD00BFA883400084
S2144024C011264000393340002D334000F8B51646FB
S2144024D005460F46002818BF002902D00ABB002038
S2144024E000E00020F1221049104B984705F10804FF
S2144024F020460F4B98470028F8D00025795D2046A7
S2144025000C4B984720460A4B98470028FAD001358E
S214402510B542F3D32046084B98470028FAD02846C1
S214402520F8BD0120DEE700BFC08340001126400012
S21440253015354000CD3440003D3540002DE9F04192
S214402540174605468846002818BF002902D0D2B94B
S214402550002000E000204FF486720C490C4B984750
S214402560002605F1080420460A4B98470028F8D074
S2144025702046094B984708F806000136BE42F0D37D
S2144025803046BDE8F0810120E5E700BFC08340004B
S2144025901126400065354000F134400038B5044609
S2144025A00D46002818BF002914BF01200020342201
S2144025B00749084B9847294604F10800064B9847B8
S2144025C0034618B9054A6260054A2260184638BD77
S2144025D0C083400011264000613440003D25400045
S2144025E0CD24400010B5044653220649003018BF9B
S2144025F00120054B984704F10800044B98470020FB
S21440260010BD00BFC08340001126400099344000F2
S21440261000B900BE704703681BB18B4203D01B68ED
S214402620FAE70020704701207047000038B504469E
S2144026300D46064B984780F0010039220449C0B247
S214402640044B984723682B60256038BD172640000A
S214402650DC8340001126400003680B600160704731
S21440266003681BB11A68026018467047002070471E
S21440267070B5154604460E46002818BF002902D0FD
S2144026807AB9002000E0002028220849084B9847E5
S2144026906B1E1D4207D163600020A060E06026608C
S2144026A070BD0120F0E76FF00C0070BDFC83400069
S2144026B01126400038B50D46044651220B490030DD
S2144026C018BF01200A4B98472268E36861680B40B0
S2144026D0D554E368A2689A1A61688A4201D9591AA1
S2144026E0A1600133E360002038BD00BFFC8340009A
S2144026F0112640000346064A126822B1044A106872
S2144027000344136070470349014A1160F6E700BF6F
S214402710B8034020F00E40204FF0FF3070474FF493
S21440272000534B60002070470120704700207047E0
S2144027304369074A934205D002F52032934203D1BB
S214402740282070471D2070474FF0FF30704700BF6D
S21440275000C00340064B984203D0064B984203D035
S2144027607047054B1960F8E7034B5960F8E700BF20
S21440277000C0034000400640BC03402064231D4A7E
S21440278003FB01235A6842609A688260DA68C26036
S2144027901A6902615A6902659A694265DA6902668F
S2144027A01A6AC0F894205A6AC0F8A0209A6AC0F8FC
S2144027B0D020DA6AC0F8D4201B6BC0F8D83000228C
S2144027C00B2A14D810B4426601EB810303EB830353
S2144027D013440C33074C04EB83035B68C366013237
S2144027E0D2B20B2AEFD900205DF8044B7047002088
S2144027F0704700BF2084400030B583B0054642692C
S214402800116BD36A0B400193019B13F0806F0ED17E
S214402810019B13F0007F0ED1019BC3F30B03019382
S214402820019CB4FA84F4C4F12004E4B21FE00368C7
S21440283000219847ECE76B68002128469847EBE76D
S214402840013CE4B26B695C66AB686A69926E92B2B0
S2144028502146284698470123A340019C24EA0304C6
S2144028600194019CB4FA84F4C4F12004E4B2002C30
S214402870E6D103B030BD000008B5094B98420AD0F7
S21440288003F52033984208D0A72206490020064B7D
S2144028909847002008BD002008BD012008BD00BFA5
S2144028A000C00340E88440001126400008B5094BAC
S2144028B098470023012B09D8642202FB03F20649FD
S2144028C08A5C904203D00133DBB2F3E7002318461C
S2144028D008BD00BF792840002084400008B5024B60
S2144028E01868024B984708BDBC034020F9274000B3
S2144028F008B5024B5868024B984708BDBC034020B9
S214402900F927400070B50C4605464FF4A17223499E
S214402910003018BF0120224B98472046214B98474D
S21440292001462046204B9847064608B1304670BDC3
S2144029306C61294620461D4B984728461C4B9847B5
S21440294000280DDB430900F01F00012202FA00F0C8
S2144029502033184A42F82300BFF34F8FBFF36F8FE0
S2144029602846134B9847002809DB430900F01F0010
S214402970012202FA00F060330E4A42F8230028464D
S2144029800B4B98470028D1DB420900F01F0001237B
S21440299003FA00F0074B43F82200C7E7E8844000FC
S2144029A011264000AD2840007D27400055274000B6
S2144029B03127400000E100E04269012303FA01F1BB
S2144029C051617047022070474FF4967303FB00F046
S2144029D04FF47A7303FB00F07047000000B583B0F5
S2144029E001A8144B9847144AD2F8883043F4700331
S2144029F0C2F88830BFF34F8FBFF36F8F01A80F4BDD
S214402A0098470F4A136823F4706343F4C063136017
S214402A100C4BD3F8083113F0806F04D14FF080622E
S214402A20084BC3F80021084B9847084B984703B01B
S214402A305DF804FB9920400000ED00E0A720400030
S214402A40000C0E4000060E4091354000652E4000BA
S214402A5038B5054603681C6D14F0010F1AD114F4FE
S214402A60007F1AD114F0007F1BD114F0807F1DD157
S214402A7014F4000F08D0EB682A68526C12F0200F4E
S214402A8019D002212846984714F0080F15D12B6814
S214402A901C6538BD83689847E1E76B6828469847C9
S214402AA0E0E7EB68032128469847DEE7EB6800211D
S214402AB028469847DCE70121E4E7EB6804212846EE
S214402AC09847E4E708B5024B986A024B984708BD1A
S214402AD0C4034020512A400030B400258D4210D215
S214402AE0012200231F2B0AD850F82540224202D14B
S214402AF052000133F6E703EB451030BC7047013512
S214402B00ECE74FF0FF30F8E710B586B000230193AE
S214402B100293039304930593284B1868F822284998
S214402B20003018BF0120274B9847274BDA6C9B6C28
S214402B3013400193254AD16C926C0A40029213438B
S214402B402349CA6C896C0A40049213432CE01B4B01
S214402B501B6820469847631104F01F04012202FABE
S214402B6004F406AA02EB830353F8142C22EA040268
S214402B7043F8142C052101A8164B98470446B4F197
S214402B80FF3FE4D1104AD16C936C0B4001930F4940
S214402B90C86C8A6C02400292134301F58061C86C8F
S214402BA08A6C0240049213432BB1052101A8094BBD
S214402BB098470446E3E706B010BD00BFF003402048
S214402BC05C85400011264000000E0E4000100E406E
S214402BD000140E40D92A400010B50446D2220549BA
S214402BE0003018BF0120044B984704482044C0F3E7
S214402BF0472010BD5C8540001126400000F2F1BF22
S214402C0010B50446E0220D49003018BF01200C4B99
S214402C10984720460B4B98470023022B0BD8C3EB14
S214402C20C3018A0008498A5C904202D00133DBB275
S214402C30F3E758B210BD4FF0FF3010BD5C85400042
S214402C4011264000D92B40000085400038B5044688
S214402C504FF4AF722949003018BF0120284B9847DF
S214402C602046284B9847002843DB274DC200111AC0
S214402C708B002B449968C4F8B010D968C4F8C010CB
S214402C801969C4F8C4109B69C4F8D030101A830080
S214402C902B445B69C4F8D43020461C4B98472844E4
S214402CA090F95430002B0CDB5A0903F01F00012129
S214402CB081402032164840F82210BFF34F8FBFF3B2
S214402CC06F8F002B08DB5A0903F01F00012181405B
S214402CD060320F4840F82210002B0DDB590903F0F4
S214402CE01F03012202FA03F3094A42F8213000206A
S214402CF038BD6FF0100038BD002038BD5C85400000
S214402D0011264000012C400000854000D92B400091
S214402D1000E100E008B5014B984708BD092B40008C
S214402D2008B5014B984708BD092B400008B5014B34
S214402D30984708BD092B400038B505460548064C5F
S214402D40A0470648A0470648A047064B1D600020FF
S214402D5038BD00BF000E0E404D2C400000100E4007
S214402D6000140E40F00340202DE9F04104460F4683
S214402D70DFF8508040F2AB1241469F288CBF0020BF
S214402D8001200E4EB047E5B2C32241469F2D8CBF70
S214402D9000200120B0476D09094B03EB452504F0A0
S214402DA01F0437B9012303FA04F46C640020BDE81D
S214402DB0F081012303FA04F42C64F7E7112640005F
S214402DC0000E0E405C8540000E490A6A22F0020260
S214402DD00D4B13430B620B4B9B6E13F0010FFAD057
S214402DE0084B196A094A0A431A62996A084A0A400D
S214402DF09A62084A9A62034B9B6E13F0020FFAD00F
S214402E00704700BF00060E40013E37000000370105
S214402E10FFFF00F8013F1820114A136B23F07003A0
S214402E2013630F4B9B6E13F0080FFAD00C4A136BCC
S214402E3023F4407343F480731363094B9B6E13F083
S214402E40080FFAD0064A136B23F0030343F002033D
S214402E501363034B9B6E13F0080FFAD0704700BF06
S214402E6000060E4008B5024B9847024B984708BDEF
S214402E70C92D4000192E40000023012B0FD8C3EB6C
S214402E8003118A0007498A58824202D00133DBB2D6
S214402E90F3E7C3EB03139A0008461044704700203C
S214402EA0704700BF78854000064B984203D0064BDB
S214402EB0984203D07047054B1960F8E7034B5960BA
S214402EC0F8E700BF0000024000C00540F403402081
S214402ED008B50369DB6913B1036803B1984708BDB9
S214402EE008B5024B1868024B984708BDF4034020CB
S214402EF0D12E400008B5024B5868024B984708BD93
S214402F00F4034020D12E4000F8B506460C46081C77
S214402F1018BF01204FF4BF724449454B984720469E
S214402F20444B98470546346183682360C368E3672B
S214402F300369C4F880304369E3658369A366C3695F
S214402F40C4F8C030036AE366436AC4F82C34836A24
S214402F50C4F84C34002319E02F6B180107EB000E21
S214402F603A5CDEF8041010325201A1503A5CDEF8AA
S214402F700C10103204EB421251603A5CDEF8081036
S214402F8004EB4212C2F80C1201335BB2EA6A934277
S214402F90E2D3002314E0A96B03EB4300820001EB6D
S214402FA0020E885CDEF8047004EB0010C0F838713E
S214402FB08A5CDEF8081013321201A15001335BB26E
S214402FC06A6B9342E7D3314620461B4B984795F9A8
S214402FD00430002B0DDB5A0903F01F03012101FAD0
S214402FE003F32032154941F82230BFF34F8FBFF329
S214402FF06F8F95F90430002B09DB5A0903F01F0345
S214403000012101FA03F360320C4941F8223095F968
S2144030100430002B08DB590903F01F03012202FA93
S21440302003F3064A42F821300020F8BD20864000CF
S21440303011264000792E4000A92E400000E100E015
S21440304038B5044640F2B5120B49003018BF01208F
S2144030500A4B984720690A4B9847002308E02169A5
S214403060056B1A01AD5C0122AA404A6001335BB28F
S214403070C26A9342F3D338BD2086400011264000F2
S214403080792E4000F8B50D46164604464FF4E972D0
S2144030901149002818BFAE4234BF012000200F4B14
S2144030A0984720690E4B9847002310E02269076B2B
S2144030B019017F5C02EB4712C2F808622269076B6F
S2144030C0795C02EB4112C2F810520133DBB2C26A9D
S2144030D09342EBD3F8BD00BF208640001126400047
S2144030E0792E400010B504464FF4EF720749003081
S2144030F018BF0120064B98472369DB6813F00F0F73
S21440310001D0012010BD002010BD00BF2086400029
S2144031101126400038B50D4604464FF40072124959
S214403120003018BF0120114B98472069104B984734
S2144031308DB1012D11D038BD2169056B1301ED5CB1
S2144031400123AB400B61DB434B610132D2B2C36A11
S2144031509A42F1D338BD0022F9E740F209220249EB
S2144031600020024B9847E6E72086400011264000A4
S214403170792E400000207047034B6FF07F425A6024
S21440318005221A60704700BF10E000E008B5014B0A
S214403190984708BD79314000080E0DE00D4B6FF0A2
S2144031A07F40586098600B4B1B6813F4803FFAD002
S2144031B001F17F4101311046431EDAB20028EDD1BD
S2144031C0044B59609960034B1B6813F4803FFAD058
S2144031D0704700BF10E000E00023012B15D810B464
S2144031E003EBC3018A000A498A58824207D001335A
S2144031F0DBB2012BF4D900205DF8044B704703EB9B
S214403200C304A30008461844F6E70020704700BFF2
S21440321000004020064B984203D0064B984203D00D
S2144032207047054B1960F8E7034B5960F8E700BF55
S21440323000C00040004005401404402008B5C36864
S2144032401B6A13F0100F00D108BD03689847FBE7D0
S2144032502DE9F04706460C4608462F4B984705464C
S214403260D0F814A0D0F81890C769D0F80C80F46055
S214403270C3222A4901202A4B984748F20703636035
S214403280C4F814A0C4F81890C4F83080E76100234E
S214403290636248F20F026264C4F854A0C4F85890BF
S2144032A0C4F87080E76563662B69C4F8D830314649
S2144032B020461C4B984795F90430002B0DDB5A09E5
S2144032C003F01F03012101FA03F32032164941F8A7
S2144032D02230BFF34F8FBFF36F8F95F90430002B2A
S2144032E009DB5A0903F01F03012101FA03F3603298
S2144032F00D4941F8223095F90430002B08DB590976
S21440330003F01F03012202FA03F3074A42F8213072
S2144033100020BDE8F08700BFD93140003886400025
S214403320112640001532400000E100E0C268052347
S2144033301360C26813647047C268136AC3F30043DD
S214403340106EC0F3004018437047002070470000DE
S21440335008B5024B1868024B984708BD1404402035
S2144033603D32400008B5024B5868024B984708BDAE
S214403370140440203D32400010B5044640F22B2253
S2144033800549003018BF0120044B984704482044A4
S214403390C0F3873010BD00BF58864000112640005D
S2144033A000C0FDBF10B5044640F287220E490030EB
S2144033B018BF01200D4B984720460D4B98470023D9
S2144033C043B140F2912208490020084B9847002319
S2144033D0184610BD03EB43018A0006498A5C9042BA
S2144033E0F6D00133DBB2EBE75886400011264000AA
S2144033F0793340004C86400010B5044640F29E2289
S2144034001149003018BF0120104B98472046104BFA
S2144034109847104BC4F8E430002363606362A362AD
S214403420AC2222604FF4807222604FF40022226069
S21440343000EB40008100084A0A4452686260074A2E
S2144034402262184610BD00BF588640001126400034
S214403450A5334000004153554C864000F40001001F
S214403460F8B50C46094E0746BD223146003018BF17
S2144034700120074DA847BE223146201C18BF012018
S214403480A8473C602046034B9847F8BD5886400006
S21440349011264000F933400070B50A4E044640F20B
S2144034A005123146003018BF0120074DA847246852
S2144034B040F2C7223146201C18BF0120A84750239F
S2144034C0236070BD588640001126400038B50C4633
S2144034D005464FF4D4720449003018BF0120034B10
S2144034E098472B68DC6138BD58864000112640005E
S2144034F010B504464FF4DD720449003018BF012071
S214403500034B984723689869C0B210BD5886400060
S2144035101126400010B5044640F2C312054900305B
S21440352018BF0120044B984723685869C0F34000F1
S21440353010BD00BF588640001126400010B5044616
S2144035404FF4E6720549003018BF0120044B9847F7
S21440355023685869C0F3402010BD00BF588640001D
S2144035601126400010B504464FF4EF72054900306E
S21440357018BF0120044B98472368586900F00100A3
S21440358010BD00BF588640001126400000207047FE
S21440359030B4002304E09901164A52580133DBB296
S2144035A0172BF8D9002314E0134C04EB83120021A8
S2144035B0D1665167981C80012518215069600F49D3
S2144035C051F83300906701EBC3014968D167013376
S2144035D0DBB2172BE8D90A4B4FF08062C3F8842041
S2144035E0BFF34F8FBFF36F8FC3F884215A6000201C
S2144035F030BC70475C8007400080074074864000BF
S21440360000E100E08001024B19500020704700BFE7
S214403610648007408001024B19500020704700BF6D
S214403620608007408001044A0244936FC3F3C1237D
S214403630D94011670020704700800740012303FAF5
S21440364000F0034BD86101B198630020704700BF7B
S2144036500080074001EB41018A00024B134403609F
S214403660002070471C0440209AB151B98201134B88
S214403670134401221A65012303FA00F00F4BD86069
S21440368070470129F7D182010C4B134470221A650A
S214403690F1E751B98201094B134401225A650123CF
S2144036A003FA00F0054B186170470129F7D18201F3
S2144036B0024B134470225A65F1E700BF0080074072
S2144036C0174B99690023172B1BD821FA03F212F0E7
S2144036D0010F02D10133DBB2F5E75BB2002B1DDBF5
S2144036E010B503EB430290000E4A1044D9B289014C
S2144036F00D4A525812F0700F06D112F0010F06D143
S21440370010BD4FF0FF33E9E74368984710BD03EB21
S2144037104304A300034AD3589847F1E7704700BFD5
S214403720008007401C0440205C80074080B584B081
S214403730724B9847724A136843F470031360BFF3A2
S2144037404F8FBFF36F8F6F4B5B6913F4803F00F072
S214403750AB80BFF34F8FBFF36F8F6A4B0027C3F822
S2144037605072BFF34F8FBFF36F8F5A6942F40032E7
S2144037705A61BFF34F8FBFF36F8F634B9847634BCE
S2144037809847634B9847634B9847634B9847634BC0
S21440379098470A20624B9847624B98476420624C91
S2144037A0A047DFF8E08198ED007AB2EE048AC7EED3
S2144037B0087AC8ED007A5D4E96ED007AC7EE087A34
S2144037C0C6ED007A5A4DA8470120A047A8470120D9
S2144037D0A047A8470120A047A8470120A047A847E0
S2144037E00120A047A8470120A047A8470120A0479E
S2144037F0A8470120A047A8470120A047A847012086
S214403800A0474C4BD3ED007AC7EE888AC3ED008ABA
S214403810494DD8F80000A8478046894618EE900AD9
S214403820A847CDE902013068A847CDE900014246E5
S2144038304B464248424DA8474FF48022414B1A63BC
S2144038404148424EB0474248B047424B9847424BA9
S21440385098476420A0474148A847414B9847414B6A
S21440386098474FF4FA70A0473F48A8473F48A847B4
S214403870DFF814814FF4FA72394640463C4EB04762
S21440388040F2E73202214046B04740F2E73239463E
S2144038903848B0474FF4FA60A047374B9847374808
S2144038A0A847374B9847FEE7164B0022C3F88420BC
S2144038B0BFF34F8FD3F88040C4F34E310FE01A4623
S2144038C043F6E07303EA411343EA82730D48C0F8B7
S2144038D06032531E002AF2D14B1E19B11946C4F36A
S2144038E0C902EDE7BFF34F8F436943F4803343612A
S2144038F0BFF34F8FBFF36F8F2BE700BFD50140005C
S21440390088ED00E000ED00E0AD15400001174000F6
S214403910550D40005D114000D517400099164000F7
S214403920F10B400099124000C9204000C4064020D8
S2144039300D14400084064020555340003487400014
S214403940F1644000000E0E40C8074020912440001D
S21440395018074020651540007D1540005087400000
S214403960E90140007D0640005887400064874000DB
S21440397035184000A0084020750F40008087400062
S2144039808D124000B0064020FC06402058B908B5CD
S2144039900B4611461846054B9847002800DB08BDE5
S2144039A04FF0FF3008BD4FF0FF307047053A4000FB
S2144039B0013802280BD808B50B4611461846054B69
S2144039C09847002800DB08BD4FF0FF3008BD4FF099
S2144039D0FF307047293A400070B50646064D2B68C2
S2144039E000219868054CA0472B6800215868A047DE
S2144039F0034B1E6070BD00BF4C0040204165400038
S214403A003C05402008B5064B1B6833B10A460146C4
S214403A1092B21846034B984708BD002008BD00BF29
S214403A203C0540206122400008B5064B1B6833B178
S214403A300A46014692B21846034B984708BD0020F6
S214403A4008BD00BF3C0540203122400010B5044C64
S214403A502046044B98472046034B984710BD00BF6E
S214403A60BC074020E5254000D939400030B5224A01
S214403A7021F00043934287B01BDD204A934205DD88
S214403A8002460B4601F006FB07B030BD02AA00F026
S214403A90DBF800F00303012B1AD0022B0FD01BB328
S214403AA00124DDE90423DDE90201009401F018F960
S214403AB0EAE70022002300F0A7FB07B030BDDDE9AF
S214403AC00423DDE9020100F09FFB01F10041DBE742
S214403AD0DDE904450093DDE9020122462B4601F06C
S214403AE0FFF801F10041CFE7DDE90423DDE90201FB
S214403AF000F08AFBC8E700BFFB21E93FFFFFEF7FEE
S214403B0030B51F4A21F00043934287B01BDD1D4A63
S214403B10934205DD02460B4601F0BCFA07B030BDC5
S214403B2002AA00F091F800F003000128DDE9042322
S214403B301AD002280FD0E0B1DDE9020100F064FBA4
S214403B4001F10041EAE7002300930022002301F040
S214403B50C7F807B030BD0124DDE90201009401F04A
S214403B60BFF801F10041D9E7DDE9020100F04CFB66
S214403B70D4E70124DDE90201009401F0B1F8CDE775
S214403B80FB21E93FFFFFEF7F2DE9F04F8BB0044666
S214403B900D4600F07BFA294B93F900A0BAF1FF3F9F
S214403BA006460F4612D022462B462046294601F0AE
S214403BB0BFFE834650B94FF000084FF0000942461A
S214403BC04B462046294601F08BFE20B93046394602
S214403BD00BB0BDE8F08F1A4BCDF820B00122CDE9EE
S214403BE00445CDE902458DE80C00BAF1000F17D028
S214403BF042464B464046494601F02AFDBAF1020F7E
S214403C00CDE906010ED101F021FF21230360089B78
S214403C1073B9DDE90667304639460BB0BDE8F08F2C
S214403C20CDE90689684601F0A3F90028EFD1EAE716
S214403C3001F00CFF089B0360EBE700BF4800402004
S214403C409C874000000000002DE9F04F9A4E21F07E
S214403C500047B74291B040F38E809246974A9742CB
S214403C600C4626DC00298AA3D3E9002340F3B4811E
S214403C7001F010FA924B9F4204460D4600F09080A9
S214403C8085A3D3E9002301F005FA02460B46CAE9AC
S214403C9000232046294601F0FDF97FA3D3E90023FF
S214403CA001F0F8F90125CAE90201284611B0BDE83D
S214403CB0F08F844A974240F39080834A974265DC6F
S214403CC03D15A5F21645A7EB055319461F46064671
S214403CD001F044FE01F02CFB8046894602460B4626
S214403CE030463946CDE90A8901F0D4F90022774BAF
S214403CF001F084FB8946804601F030FE01F018FB57
S214403D0002460B4606460F4640464946CDE90C67F6
S214403D1001F0C0F900226D4B01F070FB0022002339
S214403D20CDE90E0101F0D2FD002800F0738100239A
S214403D3030463946002201F0C9FD002814BF012351
S214403D400223634A019202212A4600910AA851465C
S214403D5000F07EFB002C054614DADAF80420DAF888
S214403D600C3002F1004203F100434542CAF80420F9
S214403D70CAF80C3006E0C2E9000100250024C2E97A
S214403D8002450025284611B0BDE8F08F02460B4696
S214403D9001F080F90025CAE90201CAE90001F1E70D
S214403DA03FA3D3E9002301F075F93FA3D3E90023ED
S214403DB00D46044601F06EF902460B46CAE900235A
S214403DC02946204601F066F937A3D3E9002301F0DF
S214403DD061F90125CAE90201D4E701F037F834A3B6
S214403DE0D3E900238046894601F008FB0022394B80
S214403DF001F052F901F0B2FD054601F099FA24A30C
S214403E00D3E90023CDE9040101F0F8FA02460B4657
S214403E104046494601F03EF91FA3D3E900238046B9
S214403E208946DDE9040101F0E9FA1F2DCDE90201DA
S214403E3054DC294B6A1E53F822309F424ED002462D
S214403E400B464046494601F025F902460B46CAE96C
S214403E50002383460E465A4633464046494601F0BE
S214403E6019F9DDE9022301F015F9002C02460B464C
S214403E70CAE9022386DA5B4606F1004601F10041B4
S214403E808AE84800CAF80C10CAF808006D4279E77C
S214403E9000004054FB21F93F3163621A61B4D03DC3
S214403EA00000601A61B4D03D7370032E8A19A33B9C
S214403EB083C8C96D305FE43FFB21E93F7BD90240B0
S214403EC0FB21F93FFB213941FFFFEF7F00007041A6
S214403ED0248840000000E03FA4874000DDE902233C
S214403EE04046494601F0D6F83A15C1F30A53D31A6C
S214403EF0102B83460E460992CAE90001ABDD58A353
S214403F00D3E90023DDE9040101F078FA06460F46BE
S214403F1002460B464046494601F0BCF8CDE906014C
S214403F2002460B464046494601F0B4F832463B4608
S214403F3001F0B0F84CA3D3E9002306460F46DDE96E
S214403F40040101F05BFA32463B4601F0A3F8DDE996
S214403F500689CDE9020102460B464046494601F035
S214403F6099F80B46C1F30A570E460999CF1B0246ED
S214403F70312F8346CAE900236CDD3DA3D3E90023F5
S214403F80DDE9040101F03AFA06460F4602460B46C2
S214403F9040464946CDE9068901F07CF802460B4684
S214403FA080468946DDE9060101F074F832463B4614
S214403FB001F070F830A3D3E9002306460F46DDE94A
S214403FC0040101F01BFA32463B4601F063F8024614
S214403FD00B46CDE9022334E701F05EF82A4B9F42B8
S214403FE004460D4618D026A3D3E9002301F054F822
S214403FF002460B46CAE900232946204601F04AF805
S2144040001FA3D3E9002301F047F84FF0FF35CAE974
S2144040100201B7E6032394E611A3D3E9002301F097
S2144040203BF811A3D3E900230D46044601F034F8CB
S21440403002460B46CAE900232946204601F02AF8E4
S21440404009A3D3E9002301F027F84FF0FF35CAE96A
S214404050020197E6DDE90689FDE600BFAFF3008082
S2144040600000601A61B4D03D7370032E8A19A33BDA
S2144040700000002E8A19A33BC14920259A837B392C
S2144040803163621A61B4D03DFB21F93F2DE9F84314
S2144040905B4F8F4305460C4600F0928000290B4646
S2144040A002466FDD0F157BD0A7F2FF37C3F313032D
S2144040B0F80743F480135CD403EBD27100260B441C
S2144040C07F105200B64616204FF400110EEB010446
S2144040D09C424FEAD2754FEA420203DC1B1B04EBBC
S2144040E0010E0E44013805EB43034FEA5101EDD172
S2144040F0844620244FF0004109E020D003EBD275DF
S214404100013C4FEA51012B444FEA420220D073450E
S21440411001EB0C05F1DD002D05EB010C09DBF0464B
S2144041209542A3EB0E0300D9013B521B0844C646FA
S214404130E4E7BCF1000FF2DB0EF10108F0E7954230
S214404140DCD8002D05EB010C44DB98460023ECE759
S214404150134313D14008731003F17F5303F5001344
S214404160F20703EB075948BF40F000404946BDE818
S214404170F8835B0003EBD27352009DE7411C2DD0C1
S2144041800130E7E7064621F000473E43EFD069BBE3
S2144041900F46D30A153F5205002BFAD0DE0220D434
S2144041A0002400E004465B00DD0204F10100F9D57E
S2144041B0C0F1200122FA01F10B433F1B824073E716
S2144041C002460B4601F01AF92A46234600F064FFE1
S2144041D0BDE8F883BCF1000FAEDAB6E701362046FC
S2144041E0B9E7002020214FF0FF34E3E702460B46B4
S2144041F000F050FF02460B4601F02AFAB7E700BF30
S2144042000000F07F000000002DE9F04F21F000464E
S214404210B6F1795F85B00C4692469B4605466BDA0A
S21440422001F09CFB002800F0E8802A4623462846FA
S214404230214601F0E3F874A3D3E90023804689467B
S21440424001F0DCF872A3D3E9002300F025FF4246D4
S2144042504B4601F0D3F870A3D3E9002300F01AFFD1
S21440426042464B4601F0CAF86DA3D3E9002300F05E
S21440427013FF42464B4601F0C1F86BA3D3E9002337
S21440428000F008FF42464B4601F0B8F868A3D3E971
S214404290002300F001FF42464B4601F0AFF8CDE95F
S2144042A000010022644B4046494601F0A7F8DDE98C
S2144042B0002306460F464046494601F09FF85246C0
S2144042C0804689465B462846214601F097F80246D6
S2144042D00B464046494600F0DDFE02460B46304659
S2144042E0394600F0D7FE02460B460020534900F000
S2144042F0D1FE05B0BDE8F08F02460B4601F07EF8D1
S21440430041A3D3E900238046894601F077F840A3CD
S214404310D3E9002300F0C0FE42464B4601F06EF85B
S2144043203DA3D3E9002300F0B5FE42464B4601F0DC
S21440433065F83BA3D3E9002300F0AEFE42464B4669
S21440434001F05CF838A3D3E9002300F0A3FE424610
S2144043504B4601F053F836A3D3E9002300F09CFE09
S2144043604B46424601F04AF8354B9E42CDE90001A5
S21440437097DD344B9E424FF0000238DCA6F5001322
S21440438000202E4916461F4600F084FECDE9020165
S2144043900022294B4046494601F030F832463B461B
S2144043A000F078FEDDE9002306460F4640464946C3
S2144043B001F024F85246804689465B462846214608
S2144043C001F01CF802460B464046494600F062FEA5
S2144043D002460B463046394600F05CFE02460B4627
S2144043E0DDE9020100F056FE05B0BDE8F08F164B41
S2144043F0164FCDE902230026CAE71049002005B033
S214404400BDE8F08FAFF30080D43888BEE9FAA8BD87
S214404410C4B1B4BD9EEE213EAD529C804F7E923ECE
S2144044209015CB19A001FA3E7751C1166CC1563F84
S2144044304C5555555555A53F0000E03F0000F03F10
S2144044403233D33F0000E93F0000E73F0000D23F51
S2144044502DE9F04FADF5197D9C4CA29E9C4D54F82D
S214404460264005942646D41E85FB0475E417C4EB07
S214404470A50424EAE4741D460893631CA3EB830357
S214404480013D02EBC30304932B4609940295651B3A
S214404490F418039006911AD42C4401340DF1780890
S2144044A000260027DDF88C9208E059F8250000F039
S2144044B03FFF0135A542E8E9020108D0002DF4DAB5
S2144044C0013530463946A542E8E90201F6D1059B5A
S2144044D0002B2EDB089B4FEAC309039BA9F1080873
S2144044E0984420AB9944059B70AA02EBC30B0DF58C
S2144044F0DC7A029B002BC0F20F83039B4D46A3F150
S21440450008040026002775E90223F4E9020100F0BA
S21440451075FF02460B463046394600F0BDFD444521
S21440452006460F46EFD1EAE90267DA4509F108097F
S214404530DFD10598089A009000F18043013B9B002C
S2144045400CAC191F234402F100520B93039B013A13
S21440455021440A9103EBC20B009A98A901EBC203CF
S214404560002A53E9284513462BDD01EBC308A8F182
S214404570A8080DF12C090DF5DC7A0022554B204693
S214404580294600F03BFF01F0E9F900F0D1FE002299
S214404590514B06460F4600F031FF02460B4620467A
S2144045A0294600F077FD01F0D9F978E8022349F86A
S2144045B0040F3946304600F06FFDD04504460D46A0
S2144045C0DBD1DDF81090204629464A4600F0D4FC60
S2144045D000224FF07F5304460D4600F00FFF00F0D8
S2144045E03BFC00223D4B00F009FF02460B462046AE
S2144045F0294600F04FFD0D46044601F0AFF98046CF
S21440460000F096FE0B4602462946204600F042FD44
S2144046104B46002B06460F4640F3F780009A0CA9FF
S214404620013AC9F1180351F8225045FA03F101FA4C
S21440463003F30CA8EB1A40F82230C9F1170588445A
S21440464043FA05F5002D63DD009B002B08F10108B9
S21440465040F381820C9C002C00F01883012000233C
S2144046600CAAC4F1807442F82340009A824219DDB5
S2144046700CAA0CAC52F820106FF07F42511A44F846
S21440468020100099023399420CDD1046009A0CA97E
S21440469001EB830301EB82011A68821A43F8042B6C
S2144046A08B42F9D1049B002B1ADD049B012B4FF063
S2144046B0010440F05882009B5A1E0CAB0CA953F8DC
S2144046C02230C3F3160341F8223058E27089400086
S2144046D0ABAAAA2A0000703E0000704100002040AD
S2144046E0022D15D132463B460020974900F0D2FCB9
S2144046F006460F46049A9449002000F03DFC0246C8
S2144047000B463046394600F0C5FC022506460F46A5
S214404710002200233046394601F0D8F8002800F041
S2144047205282009A059B501E83420FDC02F1804362
S214404730013B0CAA0B9C02EB8303002253F804199E
S214404740A34242EA0102F9D1002A6FD1059B0CAA86
S214404750013B52F82330002B40F033820A9A012363
S21440476052F8041901330029FAD0009AD31802F1FE
S214404770010A9A4507933DDC009B0899099A0B4429
S21440478007990AEB0208994620AB08F1804803EBEC
S214404790C9098B18A39A08F1FF3802EB880870AA5B
S2144047A002EBCA0AA39A02EB8303009358F8040F5D
S2144047B000F0BEFD029B002BE9E802011DDB039BD7
S2144047C04D46A3F108040026002775E90223F4E9C4
S2144047D0020100F013FE02460B463046394600F012
S2144047E05BFC5C4506460F46EFD1009B9845EAE8E1
S2144047F00267DBD1079B0093AEE6009B00260027AE
S2144048009845EAE80267D1D1F4E706D1009B0CAAA6
S214404810013B52F82350ED1514E700224B4B01F0B4
S21440482073F8002840F08281054671E70CA902958E
S21440483051F820300499CDF81C8018390246009073
S21440484004916BB900F18043013B0CA800EB830355
S21440485053F80409013A18390028F9D00092049117
S214404860049A3949002000F087FB009B002B044641
S2144048700D46C0F20382DA0070A901EB020B0492E7
S2144048800CAA02EB8306DFF8C8900BF10807043643
S2144048904FF0000856F8040D00F04AFD22462B461D
S2144048A000F0ACFD4B4667E90201424620462946E9
S2144048B000F0A4FD0CAB9E4204460D46EAD10DF531
S2144048C0907ACDF80CA0DDF814A04FF00009BAF1AC
S2144048D0000FC0F23D81DFF87C805D4618A1D1E92B
S2144048E0000100260027002403E04C4510DCF8E8D1
S2144048F00201F5E8022300F081FD02460B463046F1
S214404900394600F0C9FB0134A24506460F46ECDAAC
S214404910039B03EBC903ABF1080BC3E900676EAB1F
S2144049205B4509F10109D2D1A29BDDF80CA0032B0F
S21440493000F28B80DFE813F0D1009000900010006A
S21440494000000040FB21F93F0000F03F0000E03F40
S2144049500000703E38894000009B002B40F3A48145
S214404960049B0AEB0308D8E90067D34658E9029A45
S21440497032463B464846514600F08EFB04460D46BE
S21440498002460B464846514600F084FB32463B46BC
S21440499000F082FBC8E9000168E90245C3452646A7
S2144049A02F46E3D1009B012BDA4640F37D81049BE2
S2144049B05B44D3E90067984699460DF5947B59E9E0
S2144049C002343246184621463B46CDE9000100F007
S2144049D063FB04460D4602460B46DDE9000100F047
S2144049E059FB32463B4600F057FBC9E9000169E9EE
S2144049F00245CB4526462F46E1D1002308F108085C
S214404A001D464CAC1846294678E9022300F044FB84
S214404A10444503460D46F5D1029A002A00F020810F
S214404A20DAF80440DAF80C20069FDAF80010DAF8D4
S214404A3008003B6105F1004504F1004402F10042E4
S214404A407D617C60FA603960B860079B03F00700C0
S214404A500DF5197DBDE8F08F049C002608345444BB
S214404A6033463046194674E9022300F015FB544598
S214404A7006460B46F5D1029A30461946002A00F003
S214404A80DA80069803F10044324644600660DAE96C
S214404A90000100F0FFFA0B460099002902460EDDA1
S214404AA0012410461946FAE9022300F0F5FA0B46AF
S214404AB000990134A1420246F3DA029909B103F1A2
S214404AC000431946069B1046C3E90201079B03F0C4
S214404AD007000DF5197DBDE8F08F049C00220834D0
S214404AE0544413461046194674E9022300F0D4FA9B
S214404AF0A24502460B46F5D1029909B103F100439F
S214404B001946069B1046C3E90001079B03F00700C1
S214404B100DF5197DBDE8F08F00260027EAE902670B
S214404B20DA4509F108097FF4E4AC02E5009B002B66
S214404B3008F10108C8BF02253FF78CAD32463B4618
S214404B400020634900F0A6FA022506460F46DFE538
S214404B5000260027DCE6049B002B26DD0024049B71
S214404B60012B3FF4A8AD022B09D1009B5A1E0CAB7B
S214404B700CA953F82230C3F3150341F82230022D16
S214404B807FF4C6AD32463B460020514900F082FADB
S214404B9006460F46002C3FF4BBADABE5009901330B
S214404BA0994278D1049B002BD9DC022D7FF4B0AD1E
S214404BB032463B460020464900F06CFA06460F4611
S214404BC0A6E50123D1E53946049F02957A42304650
S214404BD0CDF81C8000F0D0F900223E4B04460D462E
S214404BE000F092FE002862D000223B4B2046294629
S214404BF000F004FC00F0B2FE064600F099FB0022EE
S214404C00344B00F0FBFB02460B462046294600F09C
S214404C1041FA00F0A3FE00990B4601331A46009372
S214404C203B46183304930B460CA941F82300134621
S214404C3041F8236014E6069B3246C3E900010B4662
S214404C40DAE9000100F026FA0B46009900290246F0
S214404C503FF726AF1946069B1046C3E9020135E7E3
S214404C6018462946DAE90023DAE90245069FC7E9ED
S214404C700401C7E90023C7E90245E6E6A29B032BE9
S214404C803FF6E3AEDFE803F0211C1C0E009B012B31
S214404C9088DD0CAA012352F8044F002C3FF47EAF67
S214404CA0581CDDE40DF5907A00231D46B4E62946EF
S214404CB0204600F053FE009A0CA941F82200CFE5AA
S214404CC0002633460DF5907AD5E60022134613E7C4
S214404CD00000F03F000070410000703E0000000001
S214404CE02DE9F04F21F00046B6F1795F85B00C46CD
S214404CF090469946054604DA00F030FE002800F05B
S214404D0085802A4623462846214600F077FB0646FD
S214404D100F4602460B462846214600F06FFB3EA350
S214404D20D3E9002382468B463046394600F066FB80
S214404D303BA3D3E9002300F0ADF932463B4600F0F2
S214404D405DFB39A3D3E9002300F0A6F932463B4683
S214404D5000F054FB36A3D3E9002300F09BF932461B
S214404D603B4600F04BFB34A3D3E9002300F094F914
S214404D700E9BCDE900019BB30022334B404649468B
S214404D8000F03CFBDDE90023CDE9020150465946E0
S214404D9000F034FB02460B46DDE9020100F07AF9EA
S214404DA032463B4600F02AFB42464B4600F072F93C
S214404DB023A3D3E9002306460F465046594600F043
S214404DC01DFB02460B463046394600F065F9024662
S214404DD00B462846214600F05DF905B0BDE8F08F49
S214404DE002460B463046394600F008FB14A3D3E98A
S214404DF0002300F04FF952465B4600F0FFFA2A4681
S214404E00234600F049F905B0BDE8F08F2846214614
S214404E1005B0BDE8F08F00BF7CD5CF5A3AD9E53D06
S214404E20EB9C2B8AE6E55A3E7DFEB157E31DC73E16
S214404E30D561C119A0012A3FA6F810111111813F72
S214404E40495555555555C53F0000E03F21F00041B6
S214404E50704700BF00000000C1F30A522DE9F84336
S214404E60A2F2FF36132E0B460D46044688460746EA
S214404E701DDC002E40DB3C4A42FA06F901EA0902F4
S214404E800243864618D036A3D3E9002300F004F93F
S214404E900022002300F042FD20B1002D42DB28EA2C
S214404EA0090500273C4629462046BDE8F883332EB0
S214404EB006DDB6F5806F2FD019462046BDE8F8834C
S214404EC0A2F213424FF0FF3929FA02F910EA090F0D
S214404ED0F2D023A3D3E9002300F0DEF8002200231B
S214404EE000F01CFD0028DDD0002D21DB454627EADA
S214404EF009073C462946D7E719A3D3E9002300F023
S214404F00CBF80022002300F009FD0028CAD0002D6F
S214404F1019DB00273D46C5E702460B4600F0BCF8C5
S214404F200446CAE74FF4801343FA06F6B044B6E7A1
S214404F30142E10D00123C6F1340603FA06F63719AC
S214404F4028BF9844D2E725F00042084B224318BFBA
S214404F501D460027A6E705F10108C7E7AFF3008026
S214404F609C7500883CE4377EFFFF0F000000F0BFD2
S214404F700020704700000000F8B5C1F30A5604460A
S214404F800D460B4617460EBB21F0004303438646AC
S214404F9025D00022344B00F031FA344A974204467A
S214404FA00D460B462ADBC1F30A56363E3E4440F2D7
S214404FB0FE72964228DC002E12DD23F0FF4323F4D7
S214404FC0E00343EA065520462946F8BD40F2FF7204
S214404FD09642EBD102460B4600F05EF8F8BDF8BDAF
S214404FE016F1350F1DDA4CF250339F4222462B46BF
S214404FF025DC19A1D1E9000100F03CF816A3D3E95D
S214405000002300F0FBF9F8BD22462B4614A1D1E957
S214405010000100F02FF812A3D3E9002300F0EEF9C8
S214405020F8BD23F0FF4323F4E003363643EA065543
S2144050302046294600220E4B00F0E0F9F8BD08A1B4
S214405040D1E9000100F016F805A3D3E9002300F0EB
S214405050D5F9F8BDAFF3008059F3F8C21F6EA5012D
S2144050609C7500883CE4377E00005043B03CFFFF10
S2144050700000903C03F0004321F0004242EA030166
S214405080704700BF018042804360704781F0004116
S21440509002E000BF83F0004330B54FEA41044FEAD8
S2144050A0430594EA050F08BF90EA020F1FBF54EA73
S2144050B0000C55EA020C7FEA645C7FEA655C00F00F
S2144050C0E2804FEA5454D4EB5555B8BF6D420CDDE0
S2144050D02C4480EA020281EA030382EA000083EA63
S2144050E0010180EA020281EA0303362D88BF30BD03
S2144050F011F0004F4FEA01314FF4801C4CEA113159
S21440510002D0404261EB410113F0004F4FEA0333B7
S2144051104CEA133302D0524263EB430394EA050F42
S21440512000F0A780A4F10104D5F1200E0DDB02FAB1
S2144051300EFC22FA05F2801841F1000103FA0EF245
S214405140801843FA05F359410EE0A5F120050EF10B
S214405150200E012A03FA0EFC28BF4CF0020C43FA3C
S21440516005F3C01851EBE37101F0004507D54FF049
S214405170000EDCF1000C7EEB00006EEB0101B1F599
S214405180801F1BD3B1F5001F0CD349085FEA3000DF
S2144051904FEA3C0C04F101044FEA445212F5800FEA
S2144051A080F09A80BCF1004F08BF5FEA500C50F187
S2144051B0000041EB045141EA050130BD5FEA4C0C6A
S2144051C0404141EB010111F4801FA4F10104E9D1F3
S2144051D091F0000F04BF01460020B1FA81F308BFEA
S2144051E02033A3F10B03B3F120020CDA0C3208DDB6
S2144051F002F1140CC2F10C0201FA0CF021FA02F191
S2144052000CE002F11402D8BFC2F1200C01FA02F100
S21440521020FA0CFCDCBF41EA0C019040E41AA2BF25
S21440522001EB0451294330BD6FEA04041F3C1CDAED
S2144052300C340EDC04F11404C4F1200220FA04F00D
S21440524001FA02F340EA030021FA04F345EA0301B7
S21440525030BDC4F10C04C4F1200220FA02F001FA79
S21440526004F340EA0300294630BD21FA04F02946FB
S21440527030BD94F0000F83F4801306BF81F4801194
S2144052800134013D4EE77FEA645C18BF7FEA655C07
S21440529029D094EA050F08BF90EA020F05D054EAD9
S2144052A0000C04BF1946104630BD91EA030F1EBFDE
S2144052B00021002030BD5FEA545C05D140004941E2
S2144052C028BF41F0004130BD14F580043CBF01F5D5
S2144052D0801130BD01F0004545F0FE4141F47001BB
S2144052E04FF0000030BD7FEA645C1ABF1946104696
S2144052F07FEA655C1CBF0B46024650EA013406BF97
S21440530052EA033591EA030F41F4002130BD00BF55
S21440531090F0000F04BF0021704730B54FF4806412
S21440532004F132044FF000054FF0000150E700BF93
S21440533090F0000F04BF0021704730B54FF48064F2
S21440534004F1320410F0004548BF40424FF00001DF
S2144053503EE700BF42004FEAE2014FEA31014FEA22
S21440536002701FBF12F07F4393F07F4F81F0605171
S214405370704792F0000F14BF93F07F4F704730B5E0
S2144053804FF4607401F0004521F0004120E700BF73
S21440539050EA010208BF704730B54FF000050AE0FA
S2144053A050EA010208BF704730B511F0004502D5FB
S2144053B0404261EB41014FF4806404F132045FEAFD
S2144053C0915C3FF4DCAE4FF003025FEADC0C18BFA2
S2144053D003325FEADC0C18BF033202EBDC02C2F198
S2144053E0200300FA03FC20FA02F001FA03FE40EA2A
S2144053F00E0021FA02F11444C1E600BF70B54FF02A
S214405400FF0C4CF4E06C1CEA11541DBF1CEA13550B
S21440541094EA0C0F95EA0C0F00F0DEF82C4481EA73
S214405420030621EA4C5123EA4C5350EA013518BF93
S21440543052EA033541F4801143F4801338D0A0FB80
S21440544002CE4FF00005E1FB02E506F00042E0FB2D
S21440545003E54FF00006E1FB03569CF0000F18BF33
S2144054604EF0010EA4F1FF04B6F5007F64F54074DB
S21440547004D25FEA4E0E6D4146EB060642EAC6216E
S21440548041EA55514FEAC52040EA5E504FEACE2EDB
S214405490B4F1FD0C88BFBCF5E06F1ED8BEF1004FDE
S2144054A008BF5FEA500E50F1000041EB045170BD5A
S2144054B006F0004646EA010140EA020081EA03019E
S2144054C0B4EB5C04C2BFD4EB0C0541EA045170BD9A
S2144054D041F480114FF0000E013C00F3AB8014F114
S2144054E0360FDEBF002001F0004170BDC4F100045D
S2144054F0203C35DA0C341BDC04F11404C4F12005DE
S21440550000FA05F320FA04F001FA05F240EA020038
S21440551001F0004221F0004110EBD37021FA04F66E
S21440552042EB06015EEA430E08BF20EAD37070BD28
S214405530C4F10C04C4F1200500FA04F320FA05F087
S21440554001FA04F240EA020001F0004110EBD37089
S21440555041F100015EEA430E08BF20EAD37070BDF9
S214405560C4F1200500FA05F24EEA020E20FA04F3D2
S21440557001FA05F243EA020321FA04F001F0004181
S21440558021FA04F220EA020000EBD3705EEA430EF2
S21440559008BF20EAD37070BD94F0000F0FD101F021
S2144055A00046400041EB010111F4801F08BF013C5A
S2144055B0F7D041EA060195F0000F18BF704703F098
S2144055C00046520043EB030313F4801F08BF013D1F
S2144055D0F7D043EA0603704794EA0C0F0CEA1355DB
S2144055E018BF95EA0C0F0CD050EA410618BF52EA95
S2144055F04306D1D181EA030101F000414FF000009B
S21440560070BD50EA410606BF1046194652EA4306A8
S21440561019D094EA0C0F02D150EA013613D195EA1C
S2144056200C0F05D152EA03361CBF104619460AD164
S21440563081EA030101F0004141F0FE4141F470016E
S2144056404FF0000070BD41F0FE4141F4780170BD5E
S21440565070B54FF0FF0C4CF4E06C1CEA11541DBFC3
S2144056601CEA135594EA0C0F95EA0C0F00F0A7F8C5
S214405670A4EB050481EA030E52EA03354FEA0131F2
S21440568000F088804FEA03334FF0805545EA131305
S21440569043EA12634FEA022245EA111545EA1065CD
S2144056A04FEA00260EF000419D4208BF964244F164
S2144056B0FD0404F5407402D25B084FEA3202B61A83
S2144056C065EB03055B084FEA32024FF480104FF457
S2144056D0002CB6EB020E75EB030E22BFB61A7546CB
S2144056E040EA0C005B084FEA3202B6EB020E75EB5E
S2144056F0030E22BFB61A754640EA5C005B084FEAC6
S2144057003202B6EB020E75EB030E22BFB61A754692
S21440571040EA9C005B084FEA3202B6EB020E75EB9D
S214405720030E22BFB61A754640EADC0055EA060E5E
S21440573018D04FEA051545EA16754FEA06164FEAA1
S214405740C30343EA52734FEAC2025FEA1C1CC0D14D
S21440575011F4801F0BD141EA00014FF000004FF0DA
S214405760004CB6E711F4801F04BF01430020B4F19B
S214405770FD0C88BFBCF5E06F3FF6AFAEB5EB030C53
S21440578004BFB6EB020C5FEA500C50F1000041EB50
S214405790045170BD0EF0004E4EEA113114EB5C041D
S2144057A0C2BFD4EB0C0541EA045170BD41F48011F0
S2144057B04FF0000E013C90E645EA060E8DE60CEAF8
S2144057C0135594EA0C0F08BF95EA0C0F3FF43BAF15
S2144057D094EA0C0F0AD150EA01347FF434AF95EACC
S2144057E00C0F7FF425AF104619462CE795EA0C0FB0
S2144057F006D152EA03353FF4FDAE1046194622E77D
S21440580050EA410618BF52EA43067FF4C5AE50EA56
S21440581041047FF40DAF52EA43057FF4EBAE12E746
S2144058204FF0FF3C06E000BF4FF0010C02E000BF27
S2144058304FF0010C4DF804CD4FEA410C7FEA6C5C0A
S2144058404FEA430C18BF7FEA6C5C1BD001B050EAAD
S214405850410C0CBF52EA430C91EA030F02BF90EA98
S214405860020F0020704710F1000F91EA030F58BF57
S214405870994208BF90422CBFD8176FEAE37040F0B9
S214405880010070474FEA410C7FEA6C5C02D150EA57
S214405890013C07D14FEA430C7FEA6C5CD6D152EA12
S2144058A0033CD3D05DF8040B704700BF84461046D7
S2144058B062468C461946634600E000BF01B5FFF7D6
S2144058C0B7FF002848BF10F1000F01BD4DF808EDA6
