S01400003459505F536F6674776172652E7372656389
S214400000180D4020C90B4000C50B4000C50B4000F2
S214400010C50B4000C50B4000C50B4000000000006B
S214400020000000000000000000000000C50B40007B
S214400030C50B400000000000C50B4000C50B40004B
S214400040C50B4000C50B4000C50B4000C50B40002B
S214400050C50B4000C50B4000C50B4000C50B40001B
S214400060C50B4000000000006520400059204000BD
S214400070C50B4000C50B4000C50B4000C50B4000FB
S2144000804D204000C50B4000C50B4000C50B40004E
S214400090C50B4000C50B4000C50B400089264000FC
S2144000A0C50B4000C50B4000C50B4000C50B4000CB
S2144000B0C50B4000151C4000C50B400019224000EF
S2144000C0C50B4000C50B4000C50B4000C50B4000AB
S2144000D0C50B4000FD1D4000C50B4000C50B400051
S2144000E0291C4000C50B4000C50B4000C50B400016
S2144000F0C50B4000C50B4000C50B4000C50B40007B
S214400100C50B4000C50B40009D264000C50B400077
S214400110C50B40000000000000000000000000008A
S214400120C50B4000C50B4000F9294000C50B4000F8
S2144001302D224000C50B4000C50B4000C50B4000BB
S214400140C50B4000C50B4000C50B4000C50B40002A
S214400150C50B4000C50B4000C50B4000C50B40001A
S214400160C50B4000C50B400010B5054C237833B98D
S214400170044B13B10448AFF300800123237010BD35
S2144001801802402000000000D86740000C4B43B1E6
S2144001900C480D4910B5AFF300800C48036823B9EE
S2144001A010BD0A48036833B97047094B002BF7D097
S2144001B0BDE810401847064B002BF5D0184700BF47
S2144001C000000000D86740001C024020D86740006E
S2144001D00000000008B5024B9847024B984708BD00
S2144001E0A1104000D52B400010B507EE900AB8EE9F
S2144001F0677ADFED0B7A67EE277A17EE900A094B9F
S214400200984705A3D3E90023074CA047074B9847D8
S21440021010BD00BFAFF300806666666666660A403D
S21440022000008039BD2E4000652F40001535400047
S21440023070B50E4B98470E4B984701200D4B98478C
S2144002400D4E082130460D4DA8470D4CA0470D4B8E
S214400250186008213046A847A0470B4B1860082175
S2144002603046A847A047094B186070BD6D06400051
S21440027051074000011440001006402091094000FC
S214400280E90140000805402010054020EC044020CD
S21440029010B50D4B98470D4BD3ED007A07EE100A7C
S2144002A077EE677A17EE900A094B984704A3D3E98E
S2144002B00023084CA047084B984710BDAFF300807A
S2144002C07B14AE47E17A743FE901400010054020B8
S2144002D0BD2E4000B93140001535400008B5564B9C
S2144002E09B6913F4000F03D14FF40002524B1A617E
S2144002F0514B9B6913F0807F03D14FF080724E4B79
S2144003001A614D4BD3F8083113F4802F04D14FF4C3
S2144003108022494BC3F80021474BD3F8083113F4E9
S214400320002F04D14FF40022434BC3F80021434929
S2144003302D20434B9847434B4FF400621A604022AF
S21440034083F80B234FF40002C3F88020BFF34F8F8F
S214400350BFF36F8FC3F880214FF08072C3F88020C0
S214400360BFF34F8FBFF36F8FC3F880214FF00072FB
S214400370C3F88020BFF34F8FBFF36F8FC3F8802141
S2144003804FF08062C3F88020BFF34F8FBFF36F8F6C
S214400390C3F880214FF00062C3F88020BFF34F8F30
S2144003A0BFF36F8FC3F880214FF08052C3F8802090
S2144003B0BFF34F8FBFF36F8FC3F880214FF40042D7
S2144003C0C3F88420BFF34F8FBFF36F8FC3F88421E9
S2144003D04FF48032C3F88420BFF34F8FBFF36F8F44
S2144003E0C3F884214FF40032C3F88420BFF34F8F04
S2144003F0BFF36F8FC3F884214FF48022C3F8842064
S214400400BFF34F8FBFF36F8FC3F884214FF40022A2
S214400410C3F88420BFF34F8FBFF36F8FC3F8842198
S2144004204FF48012C3F88420BFF34F8FBFF36F8F13
S214400430C3F8842108BD00BF00060E406D0440008E
S2144004409914400000E100E0064A1369106D034429
S21440045002F5902210690344106D0344024A106866
S214400460181A704700C00040F804402008B50B4BEF
S21440047098470B4B1B685BB1C0F30D00811F43F6DA
S214400480F372914206D807490A681044086001E0B2
S214400490044A10600133024A136008BD4904400014
S2144004A0F4044020F804402030B40122134B1A7064
S2144004B0134B9868134B1B681B1A002B11DD012247
S2144004C0002A11DC07EE903AF8EEE77ADFED0E6A86
S2144004D087EEA67A0D4B83ED007A0A4B186030BC47
S2144004E0704703F18073EAE7541E084901EB840520
S2144004F02D6801EB820215602246E1E7F0044020B9
S21440050010E000E00405402000009643FC04402034
S21440051030B40122134B1A70134B9868134B1B6868
S2144005201B1A002B11DD0122002A11DC07EE903A3F
S214400530F8EEE77ADFED0E6A87EEA67A0D4B83ED8E
S214400540007A0A4B186030BC704703F18073EAE7C4
S214400550541E084901EB84052D6801EB82021560A4
S2144005602246E1E7F004402010E000E00405402089
S21440057000009643FC04402030B40122134B1A700E
S214400580134B9868134B1B681B1A002B11DD012276
S214400590002A11DC07EE903AF8EEE77ADFED0E6AB5
S2144005A087EEA67A0D4B83ED007A0A4B186030BC76
S2144005B0704703F18073EAE7541E084901EB84054F
S2144005C02D6801EB820215602246E1E7F0044020E8
S2144005D010E000E00405402000009643FC04402064
S2144005E010B519497320194CA04719490220A04755
S2144005F018490520A047184B4FF480621A60202205
S21440060083F80A234FF48031196083F810230022C0
S214400610124B1A60124B9A606FF07F415960114B33
S214400620012159600221D960032199600421996112
S21440063005211961062159614FF0FF311960D961D2
S214400640094B1A7010BD00BF1105400099144000B8
S214400650A90440007905400000E100E00405402080
S21440066010E000E0C8044020F004402008B50649E9
S2144006700020064B984718210020054B984701213B
S2144006800020044B984708BD340240203D294000D6
S2144006905D2940007529400030B583B00122224BC9
S2144006A01A70002308E092B220494A6020490A7E28
S2144006B042F002020A760133052B13DC1C4A52F83C
S2144006C0232002F07061B1F1007FECD0B1F1006FF1
S2144006D0F1D192B215490A6015490A7E42F00102EC
S2144006E00A76E8E7134B1B782BB9114B1B7E0F2B72
S2144006F004D003B030BD104B9847F6E70F4B1B783D
S214400700002BF6D000220A4B1A760D480D4CA04717
S2144007100648436802680C490968C56801958068C0
S21440072000900A48A047E4E70C0540201805402002
S21440073034024020150540206D064000E804402065
S214400740AC5E4000E13E400024054020E05E4000B4
S21440075008B506490120064B984710210120054B55
S214400760984701210846044B984708BD5002402050
S2144007703D2940005D2940007529400030B583B0D2
S2144007800122234B1A70002308E092B221498A6066
S21440079021490A7E42F004020A760133032B14DC18
S2144007A01D4A02EB8302D26902F07061B1F1807F8C
S2144007B0EBD0B1F1C06FF0D192B218490A60164939
S2144007C00A7E42F008020A76E7E7154B1B782BB9FB
S2144007D0114B1B7E0F2B04D003B030BD114B9847F6
S2144007E0F6E7114B1B78002BF6D000220A4B1A7600
S2144007F00E480F4CA04707484368026807490968F7
S214400800C5680195806800900A48A047E4E700BFA5
S214400810E9044020180540203402402024054020AA
S2144008201405402051074000E8044020F05E400098
S214400830E13E4000E05E40000022014B1A707047E7
S214400840150540200022014B1A70704714054020C1
S2144008502DE9F8432A490020DFF8D890C847DFF84A
S214400860D88041460020274FB84718210020264D03
S214400870A84700210C460846244EB0472368244A21
S2144008801A60012221462046224CA04722490120D8
S214400890C84708F11C010120B84710210120A8478D
S2144008A0012100252846B0472B681C4A1A600122C1
S2144008B029461046A0471A4B4FF080625A60802265
S2144008C083F83A234FF00052C3F88020BFF34F8F8F
S2144008D0BFF36F8FC3F880214FF48072C3F8842033
S2144008E0BFF34F8FBFF36F8FC3F884210D4B9847EC
S2144008F00D4B98470D4A15700D4A1570BDE8F883A4
S21440090020C003403D2940005D2940008D2940001D
S21440091099064000A1294000204006407D0740003F
S21440092000E100E039084000450840000C05402042
S214400930E90440204D2940003402402070B5114D56
S21440094008212846104CA04702212846A0470F4EB3
S21440095001213046A04706213046A04705213046B3
S214400960A04706212846A0470A212846A04700213E
S2144009703046A04705212846A04700212846A047E4
S21440098070BD00BF1006402091134000E80640208E
S21440099010B40023174A1370174A1370174B984227
S2144009A008D0174B984214D000205DF8044B70478F
S2144009B098B2FAE70022052AF3DC124B53F82230AD
S2144009C083EA016414F0706FF2D00132F3E780B22C
S2144009D0EBE70023032B0ADC0A4A02EB8302D069CA
S2144009E080EA016212F0706FF1D00133F2E7002026
S2144009F0DBE700BF0C054020E904402010064020FD
S214400A00E8064020340240207047000008B52E4BD0
S214400A10D3F8002242F48032C3F80022D3F81822DA
S214400A2042F02202C3F81822D3F8182242F40812E1
S214400A30C3F81822D3F8402242F48032C3F840224A
S214400A40D3F8582242F02202C3F85822D3F858224C
S214400A5042F40812C3F858221C4AD2F8001241F455
S214400A608031C2F80012D2F8181241F02201C2F8C2
S214400A701812D2F8181241F40811C2F81812D3F816
S214400A80301141F00101C3F83011D2F8301141F075
S214400A900101C2F8301101221A610D4A00210D48A9
S214400AA00D4B98470D4B4FF000421A60602283F87A
S214400AB01F234FF08052C3F88420BFF34F8FBFF3FD
S214400AC06F8FC3F8842108BD0000024000C0054077
S214400AD0090A4000280540205D16400000E100E07D
S214400AE070B5124AD2F8383143F00103C2F83831B3
S214400AF002F57032D2F8383143F00103C2F838318B
S214400B000B4C20460B4EB0470B4D2846B0474FF493
S214400B10FA724FF47A712046084CA0474FF4FA72A6
S214400B204FF47A712846A04770BD00BF00000240CF
S214400B302805402021164000CC064020A51640003F
S214400B4080B584B0144B9847144B98470220144DF8
S214400B50A847144C144B1868A04780468946134F44
S214400B6002213846124EB047124B98478246022121
S214400B703846B047104B9847A047CDE9020150464B
S214400B80A047CDE9000142464B460C480C498847F1
S214400B904FF47A70A847D5E76D06400051074000ED
S214400BA001144000BD2E4000100540201006402095
S214400BB091094000E9014000910240004460400035
S214400BC0E13E4000FEE7000008B5104B104A9A424E
S214400BD009D00E4B0E4A03E0116819600433043204
S214400BE00C498B42F8D30C4B02E000221A600433C7
S214400BF00A4A9342F9D30A4A0A4B23F07F0393608A
S214400C00094B9847094B9847FEE700BF0000402035
S214400C10D86740001802402018024020180740209D
S214400C2000ED00E000004000B5354000652A400079
S214400C30F0B585B0204BD3F8083113F4807F04D14B
S214400C404FF480721C4BC3F800211C4D1C4C0026F0
S214400C5002961C4B01930423009306232A461A4906
S214400C6020461A4FB847102305F108023146204661
S214400C70174EB047102305F1180201212046B04711
S214400C80102305F1280205212046B047102305F120
S214400C90380206212046B04702220E4B1A6003F562
S214400CA000734FF400521A604FF080421A604FF0C3
S214400CB000421A6005B0F0BD00060E4060024020BB
S214400CC0E80640208805402000400640311240009B
S214400CD0D912400000100E402DE9F04184B02A4B56
S214400CE09B6913F0005F03D14FF00052264B1A6108
S214400CF0264D274C00260296264B01930627009742
S214400D000A2305F1480224492046DFF89C80C04764
S214400D10102305F1540231462046204EB04710239A
S214400D2005F1640202212046B047102305F1740203
S214400D3005212046B047102305F184023946204657
S214400D40B047102305F1940208212046B0471023EF
S214400D5005F1A4020A212046B0474FF08042104BCE
S214400D601A60A3F5806308221A6004221A600D4AAE
S214400D704FF4003111604FF40021116001221A60D7
S214400D8004B0BDE8F08100BF00060E40600240207F
S214400D90100640203C06402000C00340D9124000C8
S214400DA000140E40000E0E4031124000044B4FF42B
S214400DB000225A611A66C3F890201A60704700BF36
S214400DC000140E40044B4FF400525A611A66C3F8A2
S214400DD090201A60704700BF00100E40064B042259
S214400DE05A611A66C3F890201A6020225A611A6621
S214400DF0C3F890201A607047000E0E40164B1A6FCC
S214400E0042F400021A675A6F22F400025A674FF4FF
S214400E1000025A601A6F42F000721A675A6F22F048
S214400E2000725A674FF000725A601A6F22F0020240
S214400E301A675A6F22F002025A6702225A601A6FE5
S214400E4022F080421A675A6F22F080425A674FF06B
S214400E5080425A60704700BF000E0E40044B9B69AC
S214400E60002B03DB4FF00042014B1A61704700BF76
S214400E7000060E4008B5064B9847064B9847064B6B
S214400E809847024605490648064B984708BD00BFA6
S214400E905D0E4000FD0D4000AD24400000000240C5
S214400EA028054020DD1540000C4B1A6F22F4805276
S214400EB01A675A6F42F480525A674FF480525A600B
S214400EC003F5C0631A6F42F001021A675A6F22F0A8
S214400ED001025A6701225A60704700BF000E0E405A
S214400EE0054BD3F8083113F0805F04D14FF08052A1
S214400EF0014BC3F80021704700060E4008B5064B6C
S214400F009847064B9847064B984702460549064879
S214400F10064B984708BD00BFE10E4000A90E4000B2
S214400F20AD24400000C00540CC064020DD15400002
S214400F30064B1A6F42F000521A675A6F22F0005260
S214400F405A674FF000525A60704700BF000E0E407E
S214400F5008B5094B9B6913F4000F03D14FF4000208
S214400F60054B1A61054B9847054B9847024605497D
S214400F700548064B984708BD00060E40310F400016
S214400F808326400000C00040F40540208D174000F6
S214400F90064B1A6F22F080721A675A6F42F08072C0
S214400FA05A674FF080725A60704700BF00140E4078
S214400FB008B50A4BD3F8083113F4802F04D14FF408
S214400FC08022064BC3F80021054B9847054B9847AF
S214400FD0024605490548064B984708BD00060E40A0
S214400FE0910F4000832640000040054044054020C5
S214400FF08D17400008B50248024B984708BD00BF11
S21440100010E000E0ED1340000F4B1A6F22F4001280
S2144010101A675A6F22F400125A674FF400125A6049
S2144010200A4AD2F8143143F01003C2F81431084B80
S2144010301A6F42F010021A675A6F42F010025A674F
S21440104010225A60704700BF000E0E4000800840D5
S21440105000100E40044B9B6913F4804F03D14FF4AD
S2144010608042014B1A61704700060E4008B5064B99
S2144010709847064B9847064B984702460549064808
S214401080064B984708BD00BF551040000910400069
S214401090C528400000800240E8054020D5184000A2
S2144010A008B5374B9847374B9B6913F4806F03D18D
S2144010B04FF48062334B1A61324B9B6913F4006FD6
S2144010C003D14FF400622F4B1A612E4B9B6913F4E9
S2144010D0805F03D14FF480522A4B1A61294B9B699B
S2144010E013F4803F03D14FF48032264B1A61264AD0
S2144010F0536843F400435360244B4FF400625A61F4
S214401100C3F890205A661A604FF4802159631961DB
S21440111019604FF080525A631A611A6003F5806373
S2144011204FF480705863186118604FF4007058632D
S2144011301861186003F500735963196119604FF020
S21440114000615963196119605A631A611A60104B3D
S2144011509847104B9847104B9847104B9847104B62
S2144011609847104B9847104B9847104B9847104B52
S2144011709847104B9847104B9847104B984708BDD8
S214401180151D400000060E4050180E40000E0E4042
S214401190D90C4000310C4000AD0D4000C50D40005C
S2144011A0DD0D4000750E4000FD0E4000510F400022
S2144011B0B10F4000F50F40006D1040006514400030
S2144011C008B5836903B1984708BD08B5C36903B13C
S2144011D0984708BD2DE9F047054688469146036A7C
S2144011E05B5C876A03EB4303DE00BC1904F1040A28
S2144011F0D1B250460C4B984728460C4B984701288E
S21440120007D94FEA19215046074B9847A38A01331E
S214401210A382A38A0133A382BB5913B14146284611
S2144012209847BDE8F08700BFED194000FD1C400020
S2144012302DE9F84F16461C469DF828800B9D07461C
S2144012408946002818BF00290BD0131C18BF01235D
S214401250B8F1000F17D0B3B10DB1012002E0002065
S21440126000E00020DFF868B03F225946DFF864A06F
S214401270D047601C402259468045CCBF0020012004
S214401280D047002305E00020ECE7FF22F25401336C
S214401290DBB2A342F9D93E6287F8244087F825801E
S2144012A0BD6249463846064B9847034628B9054A24
S2144012B0BA60054A3A60054A7A601846BDE8F88F33
S2144012C03D1C4000D5114000C1114000CB114000EC
S2144012D024614000491940002DE9F8430E461F4658
S2144012E005469046002818BF002A02D0C3B9002001
S2144012F000E00020DFF8949066224946214CA04743
S21440130095F8240067224946B04234BF00200120A9
S214401310A047296A8B5DFF2B2BD10024234603E090
S2144013200120E7E70133DBB295F82420934205D845
S214401330CA5CFF2AF6D00134E4B2F3E795F82530CC
S2144013409C4219D8A86A04EB44034FEAC3094844B0
S2144013503A46414604300C4B9847024678B92B6AC9
S2144013609C55AB6A99440023A9F814301046BDE852
S214401370F8836FF00C02F9E76FF01B02F6E76FF0A8
S2144013800C02F3E749194000A919400024614000C7
S214401390F8B50D460B4F044683223946003018BF39
S2144013A00120094EB04794F8240084223946A842CA
S2144013B034BF00200120B04729462046034B9847BB
S2144013C00020F8BD2461400049194000F11C40004F
S2144013D0EFF31083036072B6BFF35F8F7047BFF3BF
S2144013E05F8F036883F310887047000008B5024B90
S2144013F01860024B984708BD14034020C52440009F
S21440140010B5044B1C68044B984701462046034BD6
S214401410984710BD14034020011D4000D1244000D1
S21440142038B50425002407E00D4A52F83330B3B1EE
S214401430984738BD013AD5B2AC4210D82B195B104C
S214401440DAB2032A0BD81346054901EBC2014968B4
S2144014508142E9D08142EDD20132D4B2ECE738BDC8
S2144014601803402008B500230AE0084A02EBC301EF
S2144014704FF0FF304860002142F8331001339BB2F2
S214401480032BF2D90248034B984708BD1803402067
S2144014902114400071204000F0B583B0054600237B
S2144014A0032B0ED818462E4A02EBC3025268AA42B5
S2144014B002D00133DBB2F3E7294B43F83010012763
S2144014C000E0002759B1002F3DD10026032E13D847
S2144014D0234B53F8363043B10136F6B2F6E7002FC9
S2144014E038D028461F4B984732E01D4B43F83610FD
S2144014F003EBC6035D600127002301E00133DBB246
S214401500032B98BF032E1ED8B646154A02EBC601DB
S214401510486802EBC30252689042EFD2B2F1FF3FF6
S214401520ECD00F4C04EBC30292E803008DE80300B6
S21440153004EBC60494E8030082E803009DE8030039
S21440154084E80300DAE747B101212846054B98476F
S21440155003B0F0BD6FF00C00FAE76FF00C00F7E751
S21440156018034020A120400070B5164604460D469C
S214401570002818BF002914BF012000203422044947
S214401580044B98472368324629462046984770BD04
S214401590406140004919400070B5164604460D4665
S2144015A0002818BF002914BF012000203D2204490E
S2144015B0044B98476368324629462046984770BD94
S2144015C0406140004919400008B5436903B1984757
S2144015D008BD08B5836903B1984708BD38B50446C9
S2144015E00D46002818BF002914BF012000203322D2
S2144015F00649074B984729462046064B9847064BD0
S2144016002360064B6360002038BD00BF5461400035
S2144016104919400041224000C9154000D3154000FA
S21440162010B504464A220949003018BF0120084B2D
S21440163098472046074B984720B92046064B984780
S214401640002010BD6FF0100010BD00BF5461400078
S214401650491940001D2440007923400070B50D46CE
S21440166021B1012915D06FF00C0070BD42611646BD
S214401670044672220849003018BF0120074B98479D
S214401680321C18BF012229462046054B98470020A9
S21440169070BD8261EBE700BF5461400049194000CD
S2144016A04D24400070B50D46164604467C22064939
S2144016B0003018BF0120054B984732462946204641
S2144016C0034B9847002070BD5461400049194000C4
S2144016D0BD234000F8B5076817B13C4600260BE02E
S2144016E00E4B9847F8BDA5682B449B1A01338D686E
S2144016F0AB4209D22646246834B163689342F2D896
S214401700A5689B1A2B44F2E7BC4203D03046044BF4
S2144017109847F8BD014B9847F8BD00BF6519400093
S21440172091194000F8B54469066901360661037EA2
S21440173013F0010F05D1037E13F0020F01D10546C9
S21440174009E0037E43F002030376F8BD6F69E36861
S214401750204698473C469CB16368F31AA268934279
S2144017600ED305F114073846064B9847237C012BC9
S214401770ECD16660324621463846034B9847E5E74B
S214401780F8BD00BF99194000D516400038B504464C
S2144017900D46002818BF002914BF012000203B2218
S2144017A00549064B984729462046054B9847002052
S2144017B02061044B236038BD6C61400049194000ED
S2144017C0892540002517400010B504465322094994
S2144017D0003018BF0120084B98472046074B9847D3
S2144017E020B92046064B9847002010BD6FF01000E9
S2144017F010BD00BF6C614000491940007126400092
S21440180065264000F8B5164605460F46002818BF20
S214401810002902D00ABB002000E00020F122104937
S214401820104B984705F1080420460F4B9847002870
S214401830F8D00025795D20460C4B984720460A4B49
S21440184098470028FAD00135B542F3D32046084BD6
S21440185098470028FAD02846F8BD0120DEE700BFAA
S21440186084614000491940004D284000052840004A
S214401870752840002DE9F041174605468846002861
S21440188018BF002902D0D2B9002000E000204FF453
S21440189086720C490C4B9847002605F108042046F2
S2144018A00A4B98470028F8D02046094B984708F836
S2144018B006000136BE42F0D33046BDE8F081012036
S2144018C0E5E700BF84614000491940009D2840007C
S2144018D02928400038B504460D46002818BF002980
S2144018E014BF0120002034220749084B9847294658
S2144018F004F10800064B9847034618B9054A62604B
S214401900054A2260184638BD8461400049194000A7
S21440191099274000751840000518400010B5044649
S21440192053220649003018BF0120054B984704F162
S2144019300800044B9847002010BD00BF846140005B
S21440194049194000D127400000B900BE70470368DF
S2144019501BB18B4203D01B68FAE70020704701207A
S2144019607047000038B504460D46064B984780F051
S214401970010039220449C0B2044B984723682B60C3
S214401980256038BD4F194000A0614000491940000D
S21440199003680B600160704703681BB11A680260F9
S2144019A0184670470020704770B5154604460E46E8
S2144019B0002818BF002902D07AB9002000E0002095
S2144019C028220849084B98476B1E1D4207D1636082
S2144019D00020A060E060266070BD0120F0E76FF058
S2144019E00C0070BDC06140004919400038B50D4636
S2144019F0044651220B49003018BF01200A4B984735
S214401A002268E36861680B40D554E368A2689A1A76
S214401A1061688A4201D9591AA1600133E360002007
S214401A2038BD00BFC0614000491940000346064A21
S214401A30126822B1044A1068034413607047034991
S214401A40014A1160F6E700BF38034020180D4020D9
S214401A504FF0FF3070474FF400534B600020704704
S214401A6001207047002070474369074A934205D0DB
S214401A7002F52032934203D1282070471D2070473C
S214401A804FF0FF30704700BF00C00340064B9842FF
S214401A9003D0064B984203D07047054B1960F8E7D1
S214401AA0034B5960F8E700BF00C0034000400640C3
S214401AB03C03402064231D4A03FB01235A684260CE
S214401AC09A688260DA68C2601A6902615A69026579
S214401AD09A694265DA6902661A6AC0F894205A6AB8
S214401AE0C0F8A0209A6AC0F8D020DA6AC0F8D4209D
S214401AF01B6BC0F8D83000220B2A14D810B44266AC
S214401B0001EB810303EB830313440C33074C04EBD4
S214401B1083035B68C3660132D2B20B2AEFD900203A
S214401B205DF8044B70470020704700BFE4614000FA
S214401B3030B583B005464269116BD36A0B400193BA
S214401B40019B13F0806F0ED1019B13F0007F0ED1E6
S214401B50019BC3F30B030193019CB4FA84F4C4F1D4
S214401B602004E4B21FE0036800219847ECE76B6866
S214401B70002128469847EBE7013CE4B26B695C6677
S214401B80AB686A69926E92B221462846984701230E
S214401B90A340019C24EA03040194019CB4FA84F413
S214401BA0C4F12004E4B2002CE6D103B030BD0000FE
S214401BB008B5094B98420AD003F52033984208D01E
S214401BC0A72206490020064B9847002008BD002063
S214401BD008BD012008BD00BF00C00340AC62400005
S214401BE04919400008B5094B98470023012B09D8EE
S214401BF0642202FB03F206498A5C904203D001331A
S214401C00DBB2F3E70023184608BD00BFB11B400017
S214401C10E461400008B5024B1868024B984708BD7F
S214401C203C034020311B400008B5024B5868024B2D
S214401C30984708BD3C034020311B400070B50C4619
S214401C4005464FF4A1722349003018BF0120224BAD
S214401C5098472046214B984701462046204B9847B8
S214401C60064608B1304670BD6C61294620461D4B7D
S214401C70984728461C4B984700280DDB430900F040
S214401C801F00012202FA00F02033184A42F82300CF
S214401C90BFF34F8FBFF36F8F2846134B98470028EC
S214401CA009DB430900F01F00012202FA00F060330E
S214401CB00E4A42F8230028460B4B98470028D1DBB3
S214401CC0420900F01F00012303FA00F0074B43F8D7
S214401CD02200C7E7AC62400049194000E51B4000BF
S214401CE0B51A40008D1A4000691A400000E100E035
S214401CF04269012303FA01F151617047022070479F
S214401D004FF4967303FB00F04FF47A7303FB00F036
S214401D107047000000B583B001A8144B9847144A9A
S214401D20D2F8883043F47003C2F88830BFF34F8F40
S214401D30BFF36F8F01A80F4B98470F4A136823F4E1
S214401D40706343F4C06313600C4BD3F8083113F050
S214401D50806F04D14FF08062084BC3F80021084BD7
S214401D609847084B984703B05DF804FBD1134000F2
S214401D7000ED00E0DF134000000C0E4000060E4071
S214401D80C92840009D21400038B5054603681C6DB3
S214401D9014F0010F1AD114F4007F1AD114F0007F0A
S214401DA01BD114F0807F1DD114F4000F08D0EB68CF
S214401DB02A68526C12F0200F19D002212846984704
S214401DC014F0080F15D12B681C6538BD83689847FA
S214401DD0E1E76B6828469847E0E7EB68032128462A
S214401DE09847DEE7EB68002128469847DCE7012164
S214401DF0E4E7EB68042128469847E4E708B5024B39
S214401E00986A024B984708BD44034020891D40000D
S214401E1030B400258D4210D2012200231F2B0AD851
S214401E2050F82540224202D152000133F6E703EB38
S214401E30451030BC70470135ECE74FF0FF30F8E70F
S214401E4010B586B000230193029303930493059341
S214401E50284B1868F8222849003018BF0120274B25
S214401E609847274BDA6C9B6C13400193254AD16CFC
S214401E70926C0A40029213432349CA6C896C0A400A
S214401E80049213432CE01B4B1B6820469847631173
S214401E9004F01F04012202FA04F406AA02EB8303AC
S214401EA053F8142C22EA040243F8142C052101A806
S214401EB0164B98470446B4F1FF3FE4D1104AD16C24
S214401EC0936C0B4001930F49C86C8A6C0240029297
S214401ED0134301F58061C86C8A6C02400492134338
S214401EE02BB1052101A8094B98470446E3E706B005
S214401EF010BD00BF700340202063400049194000D9
S214401F00000E0E4000100E4000140E40111E400001
S214401F1010B50446D2220549003018BF0120044BB4
S214401F20984704482044C0F3472010BD2063400033
S214401F304919400000F2F1BF10B50446E0220D49B1
S214401F40003018BF01200C4B984720460B4B984753
S214401F500023022B0BD8C3EBC3018A0008498A5CD6
S214401F60904202D00133DBB2F3E758B210BD4FF0D7
S214401F70FF3010BD2063400049194000111F40004B
S214401F80C462400038B504464FF4AF722949003069
S214401F9018BF0120284B98472046284B98470028D2
S214401FA043DB274DC200111A8B002B449968C4F8B6
S214401FB0B010D968C4F8C0101969C4F8C4109B6939
S214401FC0C4F8D030101A83002B445B69C4F8D43070
S214401FD020461C4B9847284490F95430002B0CDB85
S214401FE05A0903F01F00012181402032164840F86C
S214401FF02210BFF34F8FBFF36F8F002B08DB5A09B9
S21440200003F01F000121814060320F4840F8221043
S214402010002B0DDB590903F01F03012202FA03F3DC
S214402020094A42F82130002038BD6FF0100038BD14
S214402030002038BD2063400049194000391F400049
S214402040C4624000111F400000E100E008B5014BAB
S214402050984708BD411E400008B5014B984708BD4B
S214402060411E400008B5014B984708BD411E400040
S21440207038B505460548064CA0470648A0470648DA
S214402080A047064B1D60002038BD00BF000E0E4026
S214402090851F400000100E4000140E407003402084
S2144020A02DE9F04104460F46DFF8508040F2AB126F
S2144020B041469F288CBF002001200E4EB047E5B217
S2144020C0C32241469F2D8CBF00200120B0476D099A
S2144020D0094B03EB452504F01F0437B9012303FAE7
S2144020E004F46C640020BDE8F081012303FA04F494
S2144020F02C64F7E749194000000E0E40206340006C
S2144021000E490A6A22F002020D4B13430B620B4B38
S2144021109B6E13F0010FFAD0084B196A094A0A431E
S2144021201A62996A084A0A409A62084A9A62034BB7
S2144021309B6E13F0020FFAD0704700BF00060E40A9
S214402140013E370000003701FFFF00F8013F18202E
S214402150114A136B23F0700313630F4B9B6E13F0FF
S214402160080FFAD00C4A136B23F4407343F4807381
S2144021701363094B9B6E13F0080FFAD0064A136B95
S21440218023F0030343F002031363034B9B6E13F0E9
S214402190080FFAD0704700BF00060E4008B5024B45
S2144021A09847024B984708BD012140005121400006
S2144021B00023012B0FD8C3EB03118A0007498A5826
S2144021C0824202D00133DBB2F3E7C3EB03139A003B
S2144021D00846104470470020704700BF3C634000EC
S2144021E0064B984203D0064B984203D07047054BA7
S2144021F01960F8E7034B5960F8E700BF000002405B
S21440220000C005407403402008B50369DB6913B17C
S214402210036803B1984708BD08B5024B1868024BDF
S214402220984708BD740340200922400008B5024B79
S2144022305868024B984708BD740340200922400066
S214402240F8B506460C46081C18BF01204FF4BF726E
S2144022504449454B98472046444B98470546346189
S21440226083682360C368E3670369C4F880304369C2
S214402270E3658369A366C369C4F8C030036AE3664E
S214402280436AC4F82C34836AC4F84C34002319E0FB
S2144022902F6B180107EB000E3A5CDEF80410103284
S2144022A05201A1503A5CDEF80C10103204EB421298
S2144022B051603A5CDEF8081004EB4212C2F80C1289
S2144022C001335BB2EA6A9342E2D3002314E0A96B7F
S2144022D003EB4300820001EB020E885CDEF80470DC
S2144022E004EB0010C0F838718A5CDEF80810133230
S2144022F01201A15001335BB26A6B9342E7D3314679
S21440230020461B4B984795F90430002B0DDB5A09A5
S21440231003F01F03012101FA03F32032154941F867
S2144023202230BFF34F8FBFF36F8F95F90430002BE9
S21440233009DB5A0903F01F03012101FA03F3603257
S2144023400C4941F8223095F90430002B08DB590936
S21440235003F01F03012202FA03F3064A42F8213033
S2144023600020F8BDE463400049194000B121400018
S214402370E121400000E100E038B5044640F2B512E5
S2144023800B49003018BF01200A4B984720690A4B7A
S2144023909847002308E02169056B1A01AD5C0122CD
S2144023A0AA404A6001335BB2C26A9342F3D338BD57
S2144023B0E463400049194000B1214000F8B50D469D
S2144023C0164604464FF4E9721149002818BFAE423B
S2144023D034BF012000200F4B984720690E4B98478A
S2144023E0002310E02269076B19017F5C02EB47125D
S2144023F0C2F808622269076B795C02EB4112C2F8A8
S21440240010520133DBB2C26A9342EBD3F8BD00BF31
S214402410E463400049194000B121400010B504462D
S2144024204FF4EF720749003018BF0120064B98471B
S2144024302369DB6813F00F0F01D0012010BD002088
S21440244010BD00BFE46340004919400038B50D4652
S21440245004464FF400721249003018BF0120114B59
S21440246098472069104B98478DB1012D11D038BD43
S2144024702169056B1301ED5C0123AB400B61DB4327
S2144024804B610132D2B2C36A9A42F1D338BD0022C0
S214402490F9E740F2092202490020024B9847E6E756
S2144024A0E463400049194000B121400000207047D5
S2144024B0034B6FF07F425A6005221A60704700BF98
S2144024C010E000E008B5014B984708BDB124400035
S2144024D0080E0DE00D4B6FF07F40586098600B4B38
S2144024E01B6813F4803FFAD001F17F41013110465A
S2144024F0431EDAB20028EDD1044B59609960034B75
S2144025001B6813F4803FFAD0704700BF10E000E02D
S2144025100023012B15D810B403EBC3018A000A49E7
S2144025208A58824207D00133DBB2012BF4D900200F
S2144025305DF8044B704703EBC304A30008461844F9
S214402540F6E70020704700BF00004020064B984248
S21440255003D0064B984203D07047054B1960F8E706
S214402560034B5960F8E700BF00C0004000400540FC
S2144025709403402008B5C3681B6A13F0100F00D1BF
S21440258008BD03689847FBE72DE9F04706460C462A
S21440259008462F4B98470546D0F814A0D0F8189018
S2144025A0C769D0F80C80F460C3222A4901202A4B20
S2144025B0984748F207036360C4F814A0C4F818901C
S2144025C0C4F83080E7610023636248F20F02626419
S2144025D0C4F854A0C4F85890C4F87080E7656366A1
S2144025E02B69C4F8D830314620461C4B984795F99D
S2144025F00430002B0DDB5A0903F01F03012101FABA
S21440260003F32032164941F82230BFF34F8FBFF311
S2144026106F8F95F90430002B09DB5A0903F01F032E
S214402620012101FA03F360320D4941F8223095F951
S2144026300430002B08DB590903F01F03012202FA7D
S21440264003F3074A42F821300020BDE8F08700BF78
S21440265011254000FC634000491940004D254000CC
S21440266000E100E0C26805231360C2681364704747
S214402670C268136AC3F30043106EC0F300401843A9
S214402680704700207047000008B5024B1868024BA0
S214402690984708BD940340207525400008B5024B76
S2144026A05868024B984708BD940340207525400063
S2144026B010B5044640F22B220549003018BF0120D1
S2144026C0044B984704482044C0F3873010BD00BFF1
S2144026D01C6440004919400000C0FDBF10B50446C8
S2144026E040F287220E49003018BF01200D4B984714
S2144026F020460D4B9847002343B140F291220849AB
S2144027000020084B98470023184610BD03EB4301B2
S2144027108A0006498A5C9042F6D00133DBB2EBE78A
S2144027201C64400049194000B12640001064400037
S21440273010B5044640F29E221149003018BF0120D1
S214402740104B98472046104B9847104BC4F8E4303F
S214402750002363606362A362AC2222604FF48072FF
S21440276022604FF40022226000EB40008100084ABD
S2144027700A4452686260074A2262184610BD00BF8B
S2144027801C64400049194000DD2640000041535576
S21440279010644000F4000100F8B50C46094E0746A8
S2144027A0BD223146003018BF0120074DA847BE2243
S2144027B03146201C18BF0120A8473C602046034BEA
S2144027C09847F8BD1C644000491940003127400036
S2144027D070B50A4E044640F205123146003018BF26
S2144027E00120074DA847246840F2C7223146201CE6
S2144027F018BF0120A8475023236070BD1C644000CA
S2144028004919400038B50C4605464FF4D472044981
S214402810003018BF0120034B98472B68DC6138BD59
S2144028201C6440004919400010B504464FF4DD7260
S2144028300449003018BF0120034B98472368986925
S214402840C0B210BD1C6440004919400010B5044693
S21440285040F2C3120549003018BF0120044B984788
S21440286023685869C0F3400010BD00BF1C64400098
S2144028704919400010B504464FF4E6720549003049
S21440288018BF0120044B984723685869C0F340207E
S21440289010BD00BF1C6440004919400010B50446F6
S2144028A04FF4EF720549003018BF0120044B98479B
S2144028B02368586900F0010010BD00BF1C6440004A
S2144028C0491940000020704730B4002304E09901C5
S2144028D0164A52580133DBB2172BF8D9002314E0BE
S2144028E0134C04EB83120021D1665167981C80017B
S2144028F02518215069600F4951F83300906701EB65
S214402900C3014968D1670133DBB2172BE8D90A4BBC
S2144029104FF08062C3F88420BFF34F8FBFF36F8FB2
S214402920C3F884215A60002030BC70475C80074062
S214402930008007403864400000E100E08001024B20
S21440294019500020704700BF648007408001024B4A
S21440295019500020704700BF608007408001044A3D
S2144029600244936FC3F3C123D940116700207047D8
S21440297000800740012303FA00F0034BD86101B101
S21440298098630020704700BF0080074001EB41017C
S2144029908A00024B13440360002070479C0340208B
S2144029A09AB151B98201134B134401221A6501238F
S2144029B003FA00F00F4BD86070470129F7D1820127
S2144029C00C4B134470221A65F1E751B98201094B4A
S2144029D0134401225A65012303FA00F0054B18619F
S2144029E070470129F7D18201024B134470225A6581
S2144029F0F1E700BF00800740174B99690023172B6B
S214402A001BD821FA03F212F0010F02D10133DBB2D8
S214402A10F5E75BB2002B1DDB10B503EB43029000DD
S214402A200E4A1044D9B289010D4A525812F0700F1E
S214402A3006D112F0010F06D110BD4FF0FF33E9E783
S214402A404368984710BD03EB4304A300034AD3589A
S214402A509847F1E7704700BF008007409C0340203E
S214402A605C80074080B5194B9847194B9847194BDF
S214402A709847194B9847194B9847194B9847194B05
S214402A809847194B98474FF48022184B1A631848BA
S214402A90184CA0471848A047184B9847184F4FF077
S214402AA08058C7F83080174D4FF480762E634FF429
S214402AB0FA70154CA047154B9847154B9847C7F8E2
S214402AC034806E634FF4FA70A047E7E7D5014000C4
S214402AD0510840000D0A4000DD024000E10540007C
S214402AE0E10A40003D09400031024000000E0E4021
S214402AF0F4054020C917400044054020410B4000E3
S214402B0000140E4000120E40011440006D064000B6
S214402B105107400058B908B50B4611461846054BB4
S214402B209847002800DB08BD4FF0FF3008BD4FF047
S214402B30FF3070478D2B4000013802280BD808B56F
S214402B400B4611461846054B9847002800DB08BD43
S214402B504FF0FF3008BD4FF0FF307047B12B4000BC
S214402B6070B50646064D2B6800219868054CA04770
S214402B702B6800215868A047034B1E6070BD00BFFD
S214402B8048004020113F4000BC04402008B5064B9A
S214402B901B6833B10A46014692B21846034B984723
S214402BA008BD002008BD00BFBC0440209915400069
S214402BB008B5064B1B6833B10A46014692B2184622
S214402BC0034B984708BD002008BD00BFBC0440200A
S214402BD06915400010B5044C2046044B98472046E3
S214402BE0034B984710BD00BFE80540201D19400024
S214402BF0612B400081F0004102E000BF83F00043BB
S214402C0030B54FEA41044FEA430594EA050F08BF42
S214402C1090EA020F1FBF54EA000C55EA020C7FEA06
S214402C20645C7FEA655C00F0E2804FEA5454D4EB83
S214402C305555B8BF6D420CDD2C4480EA020281EA4D
S214402C40030382EA000083EA010180EA020281EA85
S214402C500303362D88BF30BD11F0004F4FEA0131D7
S214402C604FF4801C4CEA113102D0404261EB4101E6
S214402C7013F0004F4FEA03334CEA133302D052426C
S214402C8063EB430394EA050F00F0A780A4F1010428
S214402C90D5F1200E0DDB02FA0EFC22FA05F2801862
S214402CA041F1000103FA0EF2801843FA05F3594148
S214402CB00EE0A5F120050EF1200E012A03FA0EFCC7
S214402CC028BF4CF0020C43FA05F3C01851EBE371F1
S214402CD001F0004507D54FF0000EDCF1000C7EEB0E
S214402CE000006EEB0101B1F5801F1BD3B1F5001F4C
S214402CF00CD349085FEA30004FEA3C0C04F101046B
S214402D004FEA445212F5800F80F09A80BCF1004F93
S214402D1008BF5FEA500C50F1000041EB045141EA15
S214402D20050130BD5FEA4C0C404141EB010111F416
S214402D30801FA4F10104E9D191F0000F04BF0146C1
S214402D400020B1FA81F308BF2033A3F10B03B3F19F
S214402D5020020CDA0C3208DD02F1140CC2F10C022F
S214402D6001FA0CF021FA02F10CE002F11402D8BF8D
S214402D70C2F1200C01FA02F120FA0CFCDCBF41EA59
S214402D800C019040E41AA2BF01EB0451294330BD28
S214402D906FEA04041F3C1CDA0C340EDC04F1140405
S214402DA0C4F1200220FA04F001FA02F340EA0300DC
S214402DB021FA04F345EA030130BDC4F10C04C4F122
S214402DC0200220FA02F001FA04F340EA0300294602
S214402DD030BD21FA04F0294630BD94F0000F83F44C
S214402DE0801306BF81F480110134013D4EE77FEA2F
S214402DF0645C18BF7FEA655C29D094EA050F08BF7B
S214402E0090EA020F05D054EA000C04BF194610465B
S214402E1030BD91EA030F1EBF0021002030BD5FEA9F
S214402E20545C05D14000494128BF41F0004130BDC7
S214402E3014F580043CBF01F5801130BD01F000451B
S214402E4045F0FE4141F470014FF0000030BD7FEA8E
S214402E50645C1ABF194610467FEA655C1CBF0B4689
S214402E60024650EA013406BF52EA033591EA030FA0
S214402E7041F4002130BD00BF90F0000F04BF002198
S214402E80704730B54FF4806404F132044FF00005CB
S214402E904FF0000150E700BF90F0000F04BF002144
S214402EA0704730B54FF4806404F1320410F00045AA
S214402EB048BF40424FF000013EE700BF42004FEAA5
S214402EC0E2014FEA31014FEA02701FBF12F07F4322
S214402ED093F07F4F81F06051704792F0000F14BF1F
S214402EE093F07F4F704730B54FF4607401F0004563
S214402EF021F0004120E700BF50EA010208BF7047BA
S214402F0030B54FF000050AE050EA010208BF7047AE
S214402F1030B511F0004502D5404261EB41014FF417
S214402F20806404F132045FEA915C3FF4DCAE4FF01B
S214402F3003025FEADC0C18BF03325FEADC0C18BF02
S214402F40033202EBDC02C2F1200300FA03FC20FA53
S214402F5002F001FA03FE40EA0E0021FA02F11444A0
S214402F60C1E600BF70B54FF0FF0C4CF4E06C1CEAB5
S214402F7011541DBF1CEA135594EA0C0F95EA0C0F2A
S214402F8000F0DEF82C4481EA030621EA4C5123EA9D
S214402F904C5350EA013518BF52EA033541F48011CC
S214402FA043F4801338D0A0FB02CE4FF00005E1FB7F
S214402FB002E506F00042E0FB03E54FF00006E1FBC9
S214402FC003569CF0000F18BF4EF0010EA4F1FF040C
S214402FD0B6F5007F64F5407404D25FEA4E0E6D414C
S214402FE046EB060642EAC62141EA55514FEAC5205D
S214402FF040EA5E504FEACE2EB4F1FD0C88BFBCF5D9
S214403000E06F1ED8BEF1004F08BF5FEA500E50F189
S214403010000041EB045170BD06F0004646EA01014F
S21440302040EA020081EA0301B4EB5C04C2BFD4EB81
S2144030300C0541EA045170BD41F480114FF0000E7A
S214403040013C00F3AB8014F1360FDEBF002001F0E8
S214403050004170BDC4F10004203C35DA0C341BDC62
S21440306004F11404C4F1200500FA05F320FA04F034
S21440307001FA05F240EA020001F0004221F0004168
S21440308010EBD37021FA04F642EB06015EEA430EDB
S21440309008BF20EAD37070BDC4F10C04C4F120050B
S2144030A000FA04F320FA05F001FA04F240EA0200BE
S2144030B001F0004110EBD37041F100015EEA430E8F
S2144030C008BF20EAD37070BDC4F1200500FA05F2AF
S2144030D04EEA020E20FA04F301FA05F243EA02032E
S2144030E021FA04F001F0004121FA04F220EA02003D
S2144030F000EBD3705EEA430E08BF20EAD37070BD83
S21440310094F0000F0FD101F00046400041EB010162
S21440311011F4801F08BF013CF7D041EA060195F044
S214403120000F18BF704703F00046520043EB0303FE
S21440313013F4801F08BF013DF7D043EA06037047EB
S21440314094EA0C0F0CEA135518BF95EA0C0F0CD0F6
S21440315050EA410618BF52EA4306D1D181EA03013C
S21440316001F000414FF0000070BD50EA410606BF36
S2144031701046194652EA430619D094EA0C0F02D17B
S21440318050EA013613D195EA0C0F05D152EA0336C0
S2144031901CBF104619460AD181EA030101F00041DE
S2144031A041F0FE4141F470014FF0000070BD41F027
S2144031B0FE4141F4780170BD70B54FF0FF0C4CF401
S2144031C0E06C1CEA11541DBF1CEA135594EA0C0F20
S2144031D095EA0C0F00F0A7F8A4EB050481EA030E6D
S2144031E052EA03354FEA013100F088804FEA033354
S2144031F04FF0805545EA131343EA12634FEA022222
S21440320045EA111545EA10654FEA00260EF00041E2
S2144032109D4208BF964244F1FD0404F5407402D234
S2144032205B084FEA3202B61A65EB03055B084FEAC5
S21440323032024FF480104FF4002CB6EB020E75EBC2
S214403240030E22BFB61A754640EA0C005B084FEAEA
S2144032503202B6EB020E75EB030E22BFB61A754667
S21440326040EA5C005B084FEA3202B6EB020E75EBB2
S214403270030E22BFB61A754640EA9C005B084FEA2A
S2144032803202B6EB020E75EB030E22BFB61A754637
S21440329040EADC0055EA060E18D04FEA051545EA26
S2144032A016754FEA06164FEAC30343EA52734FEACF
S2144032B0C2025FEA1C1CC0D111F4801F0BD141EA48
S2144032C000014FF000004FF0004CB6E711F4801FAD
S2144032D004BF01430020B4F1FD0C88BFBCF5E06F8D
S2144032E03FF6AFAEB5EB030C04BFB6EB020C5FEA9D
S2144032F0500C50F1000041EB045170BD0EF0004EF2
S2144033004EEA113114EB5C04C2BFD4EB0C0541EA23
S214403310045170BD41F480114FF0000E013C90E620
S21440332045EA060E8DE60CEA135594EA0C0F08BFE4
S21440333095EA0C0F3FF43BAF94EA0C0F0AD150EAE3
S21440334001347FF434AF95EA0C0F7FF425AF104676
S21440335019462CE795EA0C0F06D152EA03353FF49E
S214403360FDAE1046194622E750EA410618BF52EA1B
S21440337043067FF4C5AE50EA41047FF40DAF52EAEF
S21440338043057FF4EBAE12E74FF0FF3C06E000BF8C
S2144033904FF0010C02E000BF4FF0010C4DF804CD99
S2144033A04FEA410C7FEA6C5C4FEA430C18BF7FEA59
S2144033B06C5C1BD001B050EA410C0CBF52EA430C87
S2144033C091EA030F02BF90EA020F0020704710F107
S2144033D0000F91EA030F58BF994208BF90422CBF96
S2144033E0D8176FEAE37040F0010070474FEA410C8F
S2144033F07FEA6C5C02D150EA013C07D14FEA430CAD
S2144034007FEA6C5CD6D152EA033CD3D05DF8040B1D
S214403410704700BF8446104662468C46194663464F
S21440342000E000BF01B5FFF7B7FF002848BF10F126
S214403430000F01BD4DF808EDFFF7F4FF0CBF01206B
S21440344000205DF808FB00BF4DF808EDFFF7EAFFE7
S21440345034BF012000205DF808FB00BF4DF808EDA2
S214403460FFF7E0FF94BF012000205DF808FB00BF97
S2144034704DF808EDFFF7CEFF94BF012000205DF821
S21440348008FB00BF4DF808EDFFF7C4FF34BF01202E
S21440349000205DF808FB00BF4FEA410C7FEA6C5CF9
S2144034A002D150EA013C0AD14FEA430C7FEA6C5CF9
S2144034B002D152EA033C02D14FF0000070474FF071
S2144034C0010070474FEA410212F5001215D211D59D
S2144034D06FF47873B3EB625212D94FEAC12343F0CC
S2144034E0004343EA505311F0004F23FA02F018BF4E
S2144034F0404270474FF00000704750EA013005D117
S21440350011F0004008BF6FF0004070474FF00000D9
S214403510704700BF4FEA4102B2F1E04324BFB3F523
S214403520001CDCF1FE5C0DD901F0004C4FEAC002F5
S2144035304CEA5070B2F1004F40EB830008BF20F0D9
S2144035400100704711F0804F21D113F13872BCBF93
S21440355001F00040704741F480114FEA5252C2F1E8
S2144035601802C2F1200C10FA0CF320FA02F018BF31
S21440357040F001004FEAC1234FEAD32303FA0CFC84
S21440358040EA0C0023FA02F34FEA4303CCE77FEA13
S214403590625307D150EA01331EBF4FF0FE4040F45D
S2144035A04000704701F0004040F0FE4040F400000C
S2144035B0704700BF70B50D4E0D4CA41BA4100025DF
S2144035C0A54209D10B4E0C4C03F0F6F8A41BA410F0
S2144035D00025A54205D170BD56F8253098470135DF
S2144035E0EEE756F8253098470135F2E7C4674000C5
S2144035F0C4674000C4674000C867400010B5431E1B
S2144036000A44914200D110BD11F8014B03F8014F16
S214403610F7E702440346934200D1704703F8011B84
S214403620F9E72DE9F04788B0002B149F1299109DBA
S214403630DDF84CA01E4627F02007BBBF03F1004331
S2144036401E4600232D23462F14460B7004D0452FCC
S21440365000D10135022300E0032307AA049206AAFC
S21440366003928DE828042246334600F09DFD472FFE
S214403670804602D1119BDB0726D5462F08EB05096D
S21440368011D198F80030302B0AD100220023204672
S2144036903146FFF7CFFE18B9C5F10105CAF800500C
S2144036A0DAF8003099440022002320463146FFF7DE
S2144036B0C1FE38B93022079B994505D9591C079158
S2144036C01A70F8E7CDF81C90079B159AA3EB0803F1
S2144036D04046136008B0BDE8F087F7B503460029BA
S2144036E0B8BF494203F8022BB4BF2D222B2209292A
S2144036F0427020DD0DF1070217460A2691FBF6F5CB
S21440370006FB15113031092D02F8011C02F1FF3479
S214403710294609DC3031023A04F8011CBA421C46FC
S21440372004D3201A03B0F0BD2246E7E712F8011B87
S21440373003F8011BF2E730221C46114404F8022B22
S2144037405970EEE72DE9F04F91B00C461A9F93461C
S2144037501E46054601F076FC03680993184600F0BD
S2144037608DFC00230E933B680A90073323F0070333
S21440377003F1080294F81880D4F800A03A60D3E920
S2144037800023C4E91223D4F84C90A76C29F00043D8
S2144037900B934FF0FF32A64B0B993846FFF77CFE53
S2144037A0002840F0F7814FF0FF32A14B0B99384686
S2144037B0FFF754FE002840F0ED81002200233846F3
S2144037C04946FFF741FE10B12D2384F84330994B0C
S2144037D0994FB8F1470F98BF1F46032323612AF03D
S2144037E0040323604FF0000900965B460FAA21466B
S2144037F0284600F0DFF9013040F09A804FF0FF3065
S21440380011B0BDE8F08F6268531C0EA84AF480637E
S2144038100DF1340E41D106226260236000210DF185
S2144038203302019363680590029200933A464B46F2
S2144038300691CDF81080CDF80CE02846FFF7F1FE53
S21440384008F0DF03472B074609D10D9BD81C02DB47
S2144038506268934259DDA8F102085FFA88F8B8F129
S214403860650F0D9936D80139424604F150000D9146
S214403870FFF733FF0E9A8318012A8146236102DC44
S2144038802268D10701D5013323619DF83330002BE0
S214403890AAD02D2384F84330A6E7B8F1670F02D0AC
S2144038A0B8F1470FB9D19AB1002106910DF1330115
S2144038B08DE80C00236005903A46CDF81080CDF890
S2144038C00CE002914B462846FFF7ABFE0746BCE7A6
S2144038D00122A1E7B8F1660F19D1002963680CDD13
S2144038E0216113B92268D20702D501330B44236104
S2144038F00D9BA3654FF00009C7E713B92268D007B0
S21440390001D50233F3E70123F1E74FF067080D9B3B
S2144039100E9A934205DB22682361D107E8D501332E
S214403920E5E7002BD4BFC3F1020301231344DEE7CF
S21440393023685A0507D423693A4659462846B0476D
S21440394001302AD15AE7B8F1650F40F2DC800022F8
S2144039500023D4E91201FFF76DFD002839D001237A
S214403960364A59462846B04701303FF447AF0E9B8B
S2144039700D9A9A4202DB2368D8070ED50A9B099A0D
S21440398059462846B04701303FF438AF002704F187
S2144039901A080E9B013B9F4211DB23689F0708D500
S2144039A0002704F11908E3680F9A9B1A9F42C0F259
S2144039B0E780E0680F9B9842B8BF184620E701238F
S2144039C0424659462846B04701303FF417AF0137C4
S2144039D0DFE70D9B002B33DC0123184A5946284667
S2144039E0B04701303FF40AAF0D9B23B90E9B13B985
S2144039F02368D907D1D50A9B099A59462846B04725
S214403A0001303FF4FBAE4FF0000804F11A090D9B5D
S214403A105B42984501DB0E9B8EE701234A4659469A
S214403A202846B04701303FF4E9AE08F10108EEE71A
S214403A30FFFFEF7FFC644000006540000C654000DF
S214403A400E9AA36D9A42A8BF1A46002A904636DCC4
S214403A5004F11A034FF0000A28EAE8780B93D4F8EA
S214403A605890A9EB08039A4531DB0E9B0D9A9A4273
S214403A7038DB2368DA0735D40E9B0D99A3EB090291
S214403A80A3EB01089045A8BF9046B8F1000F31DC83
S214403A90002728EAE87804F11A090D9A0E9B9B1A2B
S214403AA0A3EB08039F42BFF678AF01234A46594628
S214403AB02846B04701303FF4A1AE0137EDE7134644
S214403AC059463A462846B0470130C1D196E60123CA
S214403AD00B9A59462846B04701303FF48FAE0AF15C
S214403AE0010ABCE70A9B099A59462846B047013066
S214403AF0C2D183E6434607EB090259462846B047FB
S214403B000130C5D17AE60E9A012A01DCDB0734D5AE
S214403B1001233A4659462846B04701303FF46EAE38
S214403B200A9B099A59462846B04701303FF466AE8C
S214403B3000220023D4E91201FFF77CFC50B1002795
S214403B4004F11A080E9B013B9F420CDB4B4604F1E6
S214403B505002F2E60E9B7A1C013B59462846B04777
S214403B600130F3D14AE60123424659462846B0473B
S214403B7001303FF443AE0137E4E701233A46ECE731
S214403B800123424659462846B04701303FF436AEF8
S214403B90013708E73A464B4638464946FFF77CFC2D
S214403BA000283FF430AE014B014F12E6046540005A
S214403BB0086540002DE9F04791461F468A680B6924
S214403BC0DDF820809342B8BF1346C9F8003091F81C
S214403BD0432006460C4612B10133C9F8003023682C
S214403BE0990642BFD9F800300233C9F8003025683C
S214403BF015F0060507D104F1190AE368D9F8002044
S214403C009B1A9D4229DB94F843302268003318BF44
S214403C10012392062ED404F1430239463046C0476B
S214403C20013021D02368E568D9F8002003F0060368
S214403C30042B08BFAD1AA36822690CBF25EAE575B8
S214403C4000259342C4BF9B1AED184FF000091A3462
S214403C504D451BD10020BDE8F0870123524639462A
S214403C603046C047013003D14FF0FF30BDE8F08703
S214403C700135C2E7E1185A1C302081F8430022443F
S214403C8094F8451082F843100233C4E701232246D5
S214403C9039463046C0470130E6D009F10109D7E73A
S214403CA02DE9F04317460A7E85B06E2A98460646AA
S214403CB00C460C9B01F1430E00F0BC801AD8632AD8
S214403CC02ED00AD8002A00F0C880582A00F08A80F1
S214403CD004F1420584F842202AE0642A01D0692A89
S214403CE0F6D121681A6811F0800F23D0111D196093
S214403CF0136827E0732A00F0B48008D86F2A2AD0C9
S214403D00702AE5D10A6842F020020A6003E0752A6C
S214403D1021D0782ADCD1782284F845206E4964E0A8
S214403D201A6801F14205111D1960136884F8423083
S214403D300123A3E011F0400F02F104011960D7D02F
S214403D40B2F90030002B03DA2D225B4284F8432080
S214403D5062490A2217E02068196810F0800F03D0E5
S214403D60081D18600B6806E010F0400F01F10400D3
S214403D701860F7D00B8859496F2A14BF0A220822C8
S214403D80002084F843006568A560002DC0F29C8042
S214403D90206820F004002060002B3FD1002D40F02A
S214403DA095807546082A0BD12368DA0708D523691B
S214403DB062689A42DEBF302305F8013C05F1FF35C4
S214403DC0AEEB05032361CDF800803B4603AA2146AF
S214403DD03046FFF7EFFE013055D14FF0FF3005B0CB
S214403DE0BDE8F08381F845203C492268186812F007
S214403DF0800F00F104051D6001D0036802E05506FF
S214403E00FBD50388D00744BF42F0200222601BB98E
S214403E10226822F0200222601022B1E77546B3FBEA
S214403E20F2F002FB1033CB5C05F8013D0346002858
S214403E30F5D1B7E708681A68496910F0800F04D0D2
S214403E40101D18601368196007E010F0400F02F16B
S214403E50040018601368F6D0198000232361754665
S214403E60B1E71A68111D1960156862680021284676
S214403E7001F066F908B1401B606063682361002367
S214403E8084F843309FE723692A4639463046C04780
S214403E900130A2D023689B0707D5002504F11909F5
S214403EA0E368039A9B1A9D4205DBE068039B9842B1
S214403EB0B8BF184693E701234A4639463046C047BE
S214403EC001308AD00135EBE7002BA7D10B7884F878
S214403ED0423004F1420565E71F6540000E6540002C
S214403EE00FB40A4B13B51C6824B1A36913B9204616
S214403EF001F01EF805AB049AA1680193204601F034
S214403F0021FD02B0BDE8104004B070474800402094
S214403F1000294FF480630CBF0222002200F000B854
S214403F202DE9F7431D46514B1E6804460F46904602
S214403F3026B1B36913B9304600F0FAFF4C4B9C42A9
S214403F4052D17468B8F1020F06D0B8F1010F00F2F2
S214403F508980002DC0F286802146304600F07EFFE4
S214403F60616B41B104F14403994202D0304601F0FE
S214403F7015FC002363630023A3616360A3891B06CB
S214403F8003D52169304601F009FCA38923F44A632E
S214403F9023F00303B8F1020FA3815DD001AB6A465C
S214403FA02146304601F05CF8A3891843A0812DBB1A
S214403FB0009D284601F0B8F8074600284ED1DDF8A7
S214403FC00090A9453CD14FF0FF30A38943F002034F
S214403FD0A3810023A36004F14703236023610123E8
S214403FE0636103B0BDE8F083224B9C4201D1B468C4
S214403FF0A8E7214B9C4208BFF468A3E7002FD8D01F
S214404000B36913B9304600F093FFB8F1010F08BF0B
S214404010A389276004BF43F00103A381A3892761D6
S21440402013F0080065611BD013F0010018BF6D4205
S2144040304FF000031DBFA360A5611846A560D0E7FA
S214404040484601F071F807460028BCD0A38943F0E3
S2144040508003A3814D46D3E70020B6E7A946F5E79F
S214404060A060BEE74FF0FF30BBE700BF48004020EF
S214404070606540008065400040654000034613F898
S214404080012B002AFBD1181A013870472DE9F74F4B
S21440409003690C699C42804600F38280013C01F132
S2144040A014074FEA840E00F1140657F8245056F8C9
S2144040B0240006EB0E03013507EB0E090193B0FB17
S2144040C0F5F595B34FF0000A3846B446D34650F857
S2144040D0042B93B205FB03A34FEA134A9BB2ABEB08
S2144040E00303120CBCF800B005FB02A213FA8BF3D4
S2144040F04FEA124A1FFA82FBDCF80020CBEB124252
S21440410002EB23429BB243EA024381454FEA224BED
S2144041104CF8043BDBD256F80E3033B9019B043BD7
S2144041209E421A4630D3C8F81040404601F061FA25
S214404130002825DB013530464FF0000E57F8042B9B
S214404140D0F800C093B2AEEB0303120C13FA8CF314
S214404150C2EB1C4202EB23429BB243EA0243B94500
S2144041604FEA224E40F8043BE8D256F8242006EBAD
S21440417084032AB9043B9E421A460BD3C8F8104023
S214404180284603B0BDE8F08F1268043B002ACAD127
S214404190013CC5E71268043B002AEFD1013CEAE740
S2144041A00020EEE7000000002DE9F04F466A95B08B
S2144041B00446219DCDE902233EB9102000F0B4FF0D
S2144041C06062466086600660C660636A196851B180
S2144041D05A684A60012393408B60204601F034F8C9
S2144041E0636A00221A60039B002BBFBF01232B602B
S2144041F0039B23F00043B2BF039300232B60DDF8FC
S2144042000C90A94B33EA09031BD1209A42F20F7354
S2144042101360029B23B9C9F31300002800F0818580
S214404220229B53B9A14B21E0A14B06930833229A17
S2144042301360069815B0BDE8F08F9C4B0693033389
S214404240F5E7DDE902670022002330463946FFF7EE
S214404250F1F8804660B1209A01231360229B002B20
S21440426000F05C85934B229A1360013B0693E0E78F
S21440427012AB019313AB009332463B46204601F007
S21440428030FAC9F30A558246002D7CD0C7F3130393
S21440429043F07F51304641F44011A5F2FF35CDF84A
S2144042A040800022844BFEF7A9FC79A3D3E9002383
S2144042B0FEF758FE78A3D3E90023FEF7A1FC064696
S2144042C028460F46FEF7E8FD75A3D3E90023FEF720
S2144042D049FE02460B4630463946FEF791FC0646F6
S2144042E00F46FFF7EFF80022834600233046394654
S2144042F0FFF7AAF858B15846FEF7CEFD02460B46E1
S21440430030463946FFF796F808B90BF1FF3BBBF14C
S214404310160F57D8694901EBCB01DDE90223D1E9F5
S2144043200001FFF7AFF800284ED00BF1FF3B00230B
S2144043300D93129B5D1B6B1E079343BF0023C5F175
S214404340010807934FF00008BBF1000F3EDB079BC8
S214404350CDF830B05B440793002308931E9B092B8F
S21440436000F2B080052BC4BF043B1E931E9BA3F1F6
S2144043700203CCBF00260126032B00F2AF80DFE805
S21440438003F083852D77139B129D1D4405F232431F
S214404390202B11DD029A05F21240C3F1400322FAA7
S2144043A000F009FA03F31843FEF766FD0123A1F176
S2144043B0F871013D109374E7C3F12000029B03FAA5
S2144043C000F0F1E70123B3E70D90B2E7CBF100032D
S2144043D008930023A8EB0B080C93BFE7012309932F
S2144043E01F9B002B7DDD04939946656A00226A6018
S2144043F0042101F114029A4278D96968204600F0F7
S214404400EFFE636A28601B680693B9F10E0F00F250
S214404410EE80002E00F0EB80DDE90223BBF1000FBA
S214404420CDE90E2377DD254A0BF00F0302EBC303DD
S214404430D3E900234FEA2B16F006CDE90A235AD5D6
S2144044401F4BDDE90E01D3E90823FEF7B5FECDE9A3
S214404450020106F00F060325194F002E4DD1DDE967
S2144044600A23DDE90201FEF7A7FECDE902016CE072
S214404470012309931F9B5B4403F1010904934B46B8
S214404480012BB8BF0123B0E70023A8E70023F0E7DD
S21440449061436F63A787D23FB3C8608B288AC63F05
S2144044A0FB799F501344D33F0000F07F39654000AE
S2144044B0306540000D6540000000F83FC86540008C
S2144044C0A0654000012600231E9309964FF0FF3357
S2144044D004939946002212231F9286E701230993EC
S2144044E0F4E70123049399461A46F5E76A680132D1
S2144044F06A6049007DE70225AEE7F10708D5DDE9A9
S2144045000A01D7E90023FEF72DFDCDE90A01013562
S21440451076100837A1E700F0A580CBF10006A34B44
S214404520A34F06F00F0203EBC203D3E90023DDE9F5
S2144045300E01FEF717FDCDE90201361100230225D4
S214404540002E40F08480002B8FD10D9B002B00F076
S2144045508B80DDE90223CDE90A23DDE90A0100224A
S214404560944BFEF771FF00287ED0B9F1000F7BD048
S214404570049B002B37DD00228F4BDDE90A01FEF756
S214404580F1FCCDE90201049E0BF1FF3701352846C8
S214404590FEF782FCDDE90223FEF7E4FC874B0022AF
S2144045A0FEF72EFBCDE90A010B9BA3F150750B9548
S2144045B0002E5CD10022824BDDE90201FEF71EFB95
S2144045C00A9A2B46CDE90201FEF75CFF002840F030
S2144045D0F7820A9A05F10043DDE90201FEF734FF4F
S2144045E0002840F0EB82DDE90E23CDE90223139B41
S2144045F0002BC0F25181BBF10E0F00F34D816B4B87
S21440460003EBCB03D3E90023CDE904231F9B002B08
S21440461080F2DA80B9F1000F00F3D68040F0CD8208
S2144046200022674BDDE90401FEF79CFCDDE902232E
S214404630FEF71EFF4E464F46002840F0A482069BDB
S214404640069A5D1C312313700BF1010B9FE2F207B3
S21440465005D5D7E90023FEF785FC01350123761002
S21440466008376DE7022570E75F464E468FE7069AA5
S2144046704E4B32441192099A711E002A48D003EBE1
S214404680C103D3E9002300204E49FEF795FDDDE93E
S2144046900A23FEF7B3FACDE90A01069DDDE90201D9
S2144046A0FEF710FF0646FEF7F7FB02460B46DDE92F
S2144046B00201FEF7A3FA303605F8016BDDE90A235E
S2144046C0CDE90201FEF7C0FE002865D1DDE90223F0
S2144046D000203849FEF792FADDE90A23FEF7B4FED9
S2144046E0002840F0B980119B9D423FF47CAF0022E9
S2144046F0314BDDE90A01FEF735FC0022CDE90A011F
S2144047002D4BDDE90201FEF72DFCCDE90201C5E7A0
S21440471003EBC101D1E90001DDE90A23FEF722FCE3
S214404720CDE90A01069DDDE90201FEF7CBFE06460D
S214404730FEF7B2FB303602460B46DDE90201FEF7D5
S2144047405DFA05F8016B119BAB42CDE902014FF0D3
S214404750000225D11B4BDDE90A01FEF751FA02465D
S2144047600B46DDE90201FEF78DFE002874D1DDE937
S2144047700A2300201349FEF741FA02460B46DDE9BC
S2144047800201FEF761FE00283FF42DAF15F8013C0C
S214404790302B05F1FF3201D0BB464CE01546F5E71D
S2144047A0054BFEF7DFFBCDE90201BCE7C8654000DC
S2144047B0A06540000000F03F0000244000001C4080
S2144047C0000014400000E03FDDE90267069DDDE999
S2144047D0042330463946FEF7EFFCFEF773FE80466C
S2144047E0FEF75AFBDDE90423FEF7BCFB02460B4608
S2144047F03046394608F13006FEF700FA05F8016BF8
S214404800069EAE1BB14502460B4638D1FEF7F8F978
S21440481006460F4602460B46DDE90401FEF714FE47
S214404820C8B932463B46DDE90401FEF703FE10B147
S21440483018F0010F0FD15146204600F005FD002329
S214404840209A2B700BF101031360229B002B3FF440
S214404850F0AC1D60EDE45F4615F8012C392A05F1F1
S214404860FF3306D1069A9A4207D130231370013798
S21440487013461A7801321A708EE71D46ECE700227E
S214404880B44BFEF76FFB0022002306460F46FEF7AA
S214404890D1FD00289BD0CEE7099A002A00F0298156
S2144048A01E9A012A00F30E81109A002A00F0068113
S2144048B003F23343089E4546079A01211A44204690
S2144048C09844079200F060FD0746002D0BDD079BDD
S2144048D0002B08DDAB42079AA8BF2B46A8EB03087F
S2144048E0ED1AD31A0793089BFBB1099B002B00F0E7
S2144048F00481002E11DD39463246204600F0DAFDAE
S214404900524601460746204600F047FD51460A906B
S214404910204600F099FC0A9B9A46089B9A1B04D0B6
S2144049205146204600F0C6FD82460121204600F052
S2144049302BFD0C9B002B064640F3E1801A460146B1
S214404940204600F0B7FD1E9B012B064640F3DA805A
S21440495000230893336906EB8303186900F0C6FC0E
S214404960C0F12000079B184410F01F0000F0F080B4
S214404970C0F12003042B40F3E280079BC0F11C00EB
S2144049808044054403440793B8F1000F05DD5146C3
S2144049904246204600F0DCFD8246079B002B05DDA4
S2144049A031461A46204600F0D3FD06460D9B002BA6
S2144049B000F0D2803146504600F01BFE002880F2C0
S2144049C0CB80002351460A22204600F054FC099B27
S2144049D00BF1FF3B8246002B00F0AA8100233946AC
S2144049E00A22204600F047FC049B002B074603DCC7
S2144049F01E9B022B00F3B880002D05DD39462A4663
S214404A00204600F0A5FD0746089B002B00F01081CD
S214404A107968204600F0E4FB3A6902320546920087
S214404A2007F10C010C30FEF7E9FD0122294620462D
S214404A3000F08EFD029BDDF81880079703F0010317
S214404A400746089331465046FFF720FB0799054630
S214404A5000F13009504600F0CCFD3A46029031460F
S214404A60204600F0E0FDC3680246002B40F0E2809E
S214404A7001460990504600F0BCFD099A034611468F
S214404A802046099300F0E0FB099B002B40F0D480C1
S214404A901E9A002A40F0D080089A002A40F0CC8027
S214404AA0B9F1390F00F0E880029B002B01DD05F1DB
S214404AB0310908F1010588F800906AE0129BC3F1BD
S214404AC03603F7E6089B09F1FF36B342BFBF089BA3
S214404AD00896F21A0C9BB7BF9B189E1B0C93002699
S214404AE0B9F1000FB9BFA8EB0905002345464B4670
S214404AF0E2E6089E099F4546E7E6089A10E71E9BB1
S214404B00012B18DC029BB3B9039BC3F31303A3B971
S214404B10039B23F000431B0D1B052BB1079B013362
S214404B20079308F10108012308930C9B002B7FF4A0
S214404B3011AF012016E70023F6E7029BF4E73FF4A7
S214404B4023AF079A1C331A4498441D4413461AE769
S214404B500346F6E700002440B9F1000F33DC1E9B05
S214404B60022B30DDCDF81090049B63B93146052208
S214404B70204600F080FB01460646504600F039FDD0
S214404B8000283FF75CAD1F9B069D6FEA030B002392
S214404B9007933146204600F057FB002F3FF44BAEBC
S214404BA0079B2BB1BB4203D01946204600F04CFB76
S214404BB03946204600F048FB3DE600263746E2E709
S214404BC0BB4637463BE5099BCDF81090002B7FF45B
S214404BD013AF069D31465046FFF758FA00F13009AC
S214404BE005F8019B069B049AEB1A9A4200F38380D1
S214404BF0069B012AACBF9B180133984600230793B7
S214404C0051460122204600F0A3FC3146824600F081
S214404C10F0FC002835DC02D119F0010F31D14546B1
S214404C2015F8013C302B05F1FF32B2D11546F7E7B7
S214404C303846FFE6012322E7029A002A04DB29D100
S214404C401E9A3ABB089A2ABB002B7FF732AF5146D2
S214404C500122204600F07CFC3146824600F0C9FC2A
S214404C60002805DC7FF425AF19F0010F3FF421AF93
S214404C70B9F1390F7FF41BAF392388F8003008F1BB
S214404C800108454615F8013C392B05F1FF323AD06C
S214404C9001333FE0002B08F1010505DDB9F1390F7E
S214404CA0EAD009F1010906E7069B049A05F8019C3B
S214404CB0EB1A9342A846A3D0514600230A22204628
S214404CC000F0D9FA079B0799BB4282464FF0000393
S214404CD04FF00A02204604D100F0CDFA079007466E
S214404CE0B0E600F0C8FA002307900A22394620466C
S214404CF000F0C1FAF3E7514600230A22204600F0AE
S214404D00BAFA824666E7069B934205D1069A0BF1AD
S214404D10010B312313703CE71546B3E7094BFFF709
S214404D20A5BA229B002B7FF47FAA074BFFF79EBABB
S214404D30049B002B3FF74DAF1E9B022B7FF749AFDE
S214404D4012E700BF0C654000306540008A892DE9B7
S214404D50F041054610070C465AD44B68002B05DC3C
S214404D600B6C002B02DC0020BDE8F081E66A002ECA
S214404D70F9D0002312F480522F682B6033D0606D38
S214404D80A3895A0705D56368C01A636B0BB1236CB9
S214404D90C01A00230246E66A216A2846B047431CEA
S214404DA0A38906D129681D294BD82B4ACA40D60765
S214404DB047D500226260D9042269226004D5421C8D
S214404DC001D12B6803B96065616B2F600029CAD09A
S214404DD004F14403994202D0284600F0DFFC00204C
S214404DE06063BDE8F081216A01232846B047411C34
S214404DF0C6D12B68002BC3D01D2B01D0162B01D15A
S214404E002F60B0E7A38943F04003A381BDE8F0815B
S214404E100F69002FA7D093070E6808BF4B690F6035
S214404E2018BF0023A6EB07088B60B8F1000F9ADD89
S214404E3043463A46216AA66A2846B047002807DC19
S214404E40A38943F04003A3814FF0FF30BDE8F081D3
S214404E500744A8EB0008E8E70100402038B50B6996
S214404E6005460C46DBB118B183690BB900F060F813
S214404E700C4B9C4209D16C68B4F90C307BB121468E
S214404E802846BDE83840FFF761BF074B9C4201D13A
S214404E90AC68F1E7054B9C4208BFEC68ECE70020A5
S214404EA038BD00BF606540008065400040654000FA
S214404EB0014900F0A9B800BF5D4E4000002310B580
S214404EC0044603604360836081814366C281036118
S214404ED043618361194608225C30FEF79AFB054B16
S214404EE06362054BA362054BE362054B2462236372
S214404EF010BD00BF915B4000B35B4000EB5B4000E1
S214404F000F5C400070B54A1E682555430E4605F1B5
S214404F10740100F091FC044640B1002180E8420054
S214404F200C30A06005F16802FEF773FB204670BDAA
S214404F30836910B5044633BB8364C3640365124B70
S214404F40124A1B688262984204BF0123836100F0C4
S214404F501FF86060204600F01BF8A060204600F076
S214404F6017F80022E06004216068FFF7A7FF0122DF
S214404F700921A068FFF7A2FF02221221E068FFF78E
S214404F809DFF0123A36110BDF8644000B14E400070
S214404F90F8B51C4B1E68B369074613B93046FFF791
S214404FA0C7FF4836B4687368013B03D5336833B1EE
S214404FB03668F7E7B4F90C506DB16834F4E704216D
S214404FC03846FFF79FFF30600028F1D10C233B6046
S214404FD004462046F8BD4FF6FF73E3810123A381C4
S214404FE065662560A560656025616561A5610822E6
S214404FF0294604F15C00FEF70CFB6563A563A564D7
S214405000E564E6E7F86440002DE9F84380468946C3
S21440501000F14804002614B93046BDE8F883A56878
S2144050206768013F01D52468F5E7AB89012B07D9AE
S214405030B5F90E30013303D029464046C8470643EB
S2144050406835EEE7044B1B68186A044B002808BF17
S2144050501846F030704700BF48004020AC00402063
S21440506070B50E46B1F90E10002990B014461D4694
S21440507007DA00232B60B3891A0610D44FF48063F6
S2144050800EE001AA00F0AAFE0028F2DB029A02F423
S2144050907042A2F500535A425A412A60EEE7402336
S2144050A00020236010B070BD8B8973B59D070646FF
S2144050B00C4607D504F1470323602361012363614F
S2144050C002B070BD01AB6A46FFF7CAFF00990546BD
S2144050D0304600F0B1FB48B9B4F90C309A05EFD42D
S2144050E023F0030343F00203A381E3E70D4BB362CF
S2144050F0A389206043F08003A381009B6361019BEA
S21440510020615BB1B4F90E10304600F079FE28B14C
S214405110A38923F0030343F00103A381A3891D431E
S214405120A581CDE7B14E4000024B0146186800F01D
S21440513083BB00BF48004020000000000000000085
S21440514001F0FF01102A2BDB10F0070F08D010F8F3
S214405150013B013A8B422DD010F0070F42B3F6D1F7
S214405160F0B441EA012141EA014122F007047FF010
S21440517000070023F0E80256083C85EA010586EA67
S214405180010685FA47F5A3FA87F586FA47F6A5FAA3
S21440519087F68EB9EED1F0BC01F0FF0102F00702AF
S2144051A032B110F8013B013A83EA010313B1F8D15A
S2144051B00020704701387047002D06BF354603383B
S2144051C0073815F0010F07D1013015F4807F02BF74
S2144051D0013015F4C03F0130F0BC0138704700BFC5
S2144051E070B5456A04460E463DB91020FFF79CFF51
S2144051F06062456085600560C560656AEB6883B13E
S214405200636ADB6853F82600B8B9012101FA06F54F
S2144052106A1D9200204600F0B3FA60B14660856091
S2144052200EE021220421204600F0AAFA636AE860D4
S214405230DB68002BE4D1002070BD026843F82620CE
S21440524000230361C36070BD70B5446A06460D46D0
S2144052503CB91020FFF768FF7062446084600460C9
S214405260C4603DB1736A6A68DB6853F822102960EF
S21440527043F8225070BD2DE9F0410D691F460646A1
S2144052800C4601F1140E0023DEF8000081B202FB4A
S21440529001710F0C000C02FB007089B2013301EB68
S2144052A000419D424FEA10474EF8041BECDCD7B154
S2144052B0A3689D4212DB616830460131FFF790FFDC
S2144052C02269023204F10C01804692000C30FEF74F
S2144052D095F921463046FFF7B7FF444604EB850371
S2144052E001355F6125612046BDE8F081020C12045D
S2144052F00346B2B90304102013F07F4F04BF1B02CD
S214405300083013F0704F04BF1B01043013F0404FB9
S21440531004BF9B000230002B06DB5B0003D5013048
S21440532070470020E8E720207047036813F0070224
S21440533001460BD0DA0723D4980749BF5B089B0881
S21440534001200B605CBF0B600220704798B2A8B982
S2144053501B0C102013F0FF0F04BF1B0A08301A075F
S21440536004BF1B0904309A0704BF9B080230DA07C3
S21440537002D45B0806D001300B6070471046E9E760
S214405380002070472020704710B50C460121FFF7DB
S21440539027FF01224461026110BD2DE9F74F1446F4
S2144053A00A6923699A42B8BF0B468946BCBFA146E4
S2144053B01C46D9F81070D4F810A0D9F80830D9F89F
S2144053C0041007EB0A069E42C8BF0131FFF708FFEC
S2144053D000F1140505EB86082B460022434516D3FC
S2144053E004F1140209F1140102EB8A0301EB87076A
S2144053F00193019C944213460CD8002E03DD58F8C6
S214405400043D002B54D0066103B0BDE8F08F43F84E
S214405410042BE3E7B3F800A00432BAF1000F20D023
S214405420AE4689464FF0000C59F8044BBEF800B023
S214405430A3B20AFB03B34FEA144BDEF800406344C2
S2144054404FEA144C0AFB0BC404EB13449BB243EAEA
S21440545004434F454FEA144C4EF8043BE4D8CEF88C
S21440546000C032F8029CB9F1000F1FD02B68AE4640
S2144054708C464FF0000ABCF80040BEF802B009FB6C
S21440548004B4A2449BB243EA0A434EF8043B5CF899
S214405490043BBEF800401B0C09FB034303EB1A43D6
S2144054A067454FEA134AE6D8CEF800300435A0E701
S2144054B0013EA2E72DE9F843154612F003020646E0
S2144054C00F4607D0013A214C002354F82220FFF71C
S2144054D0D2FE0746AD1035D0746A3CB91020FFF7AF
S2144054E023FE7062446084600460C460D6F8248002
S2144054F0D8F808404CB940F271213046FFF744FFD7
S2144055000023C8F80800044603604FF00008EB0785
S2144055100AD5394622463046FFF73FFF3946814690
S2144055203046FFF791FE4F466D100BD0206838B9D5
S214405530224621463046FFF730FF2060C0F8008004
S2144055400446E4E73846BDE8F88300BF906640006E
S2144055502DE9F0470C464FEA621A236949680AEB80
S2144055600309A3680746164609F10105AB4231DB3D
S2144055703846FFF735FE0022804600F114031146F8
S21440558052452ADB20692AEAEA7A04F1140116F029
S2144055901F0203EB8A0301EB800E22D0C2F1200CDF
S2144055A000200E689640304343F8040B51F8040B35
S2144055B08E4520FA0CF0F4D8186008B109F10205BF
S2144055C0013D3846C8F810502146FFF73DFE40469C
S2144055D0BDE8F08701315B00C8E743F8221001328E
S2144055E0CEE7043B51F8042B43F8042F8E45F9D8F8
S2144055F0E6E703690A699B1A30B50CD1920014306D
S21440560014318418114454F8045D51F8042D954221
S21440561003D005D30123184630BDA042F3D3FAE7A2
S2144056204FF0FF33F7E72DE9F0470D4607461146A2
S21440563028461446FFF7DDFF061E08D13146384699
S214405640FFF7CEFD012303614661BDE8F087A4BFA6
S21440565023462C4638466168A6BF1D4600260126CE
S214405660FFF7BEFD2B69C660266905F1140904F1F3
S214405670140202EB860709EB830800F114054FF08D
S214405680000C52F804AB59F8044B1CFA8AF1A3B24A
S214405690C91A230CC3EB1A4303EB214389B24FEAE2
S2144056A0234CC84541EA0343964645F8043BE8D8B0
S2144056B0BE4505D355F8043D8BB10661BDE8F0877D
S2144056C05EF8041B1CFA81F31A1402EB11429BB2DB
S2144056D043EA02434FEA224C45F8043BE8E7013EE2
S2144056E0E8E72DE9F34101211C469046089E099DB6
S2144056F0FFF776FDC4F31302C4F30A54074634BBDF
S2144057000192B8F1000F27D002A840F8088DFFF7A5
S2144057100CFE0099F0B1019AC0F1200302FA03F39F
S2144057200B43C2407B610192019BBB61002B14BFBF
S214405730022101213961C4B1A4F2334404443460E7
S214405740C0F135002860384602B0BDE8F08142F42A
S2144057508012D5E77961E7E701A8FFF7E6FD019BF0
S2144057607B61012139612030E5E707EB8103A0F238
S214405770324030601869FFF7B9FDC0EB4110E1E7F1
S21440578038B502FB01F4214600F056F8054618B13C
S21440579022460021FDF73DFF284638BD38B5054670
S2144057A0002945D051F8043C0C1F002BB8BFE41824
S2144057B000F05AFB1F4A1368104633B96360146002
S2144057C02846BDE8384000F050BBA3420CD92168BB
S2144057D06218934204BF1A685B68636004BF52183D
S2144057E022600460ECE713465A680AB1A242FAD92E
S2144057F019685818A0420BD12068014458188242B4
S2144058001960DDD1106852685A6001441960D7E7C4
S21440581002D90C232B60D3E7206821188A4204BFA4
S21440582011685268626004BF091821605C60C7E76F
S21440583038BD00BFC004402070B5CD1C25F0030520
S21440584008350C2D38BF0C25002D064601DBA94235
S21440585003D90C233360002070BD00F005FB234ABB
S2144058601468214691B9224C23681BB9304600F093
S2144058707FF920602946304600F07AF9431C26D14D
S2144058800C233360304600F0F0FAE4E70B685B1B0D
S2144058901AD40B2B0FD90B60CD50CC18304600F0E5
S2144058A0E4FA04F10B00231D20F00700C31A1BD0B6
S2144058B05A42E25070BD8C420DBF63684B686360CD
S2144058C0136018BF0C46E9E70C464968CAE7C41C93
